:100000000C9476010C94A7010C94A7010C94A70101
:100010000C94A7010C94A7010C94A7010C94A701C0
:100020000C94A7010C94A7010C94A7010C94A701B0
:100030000C94A7010C94BE100C94A7010C94A7017A
:100040000C94A7010C9411110C94A7010C94A70116
:100050000C94A7010C9470110C94A7010C9414102B
:100060000C94A7010C9488100C945E100C94A701BA
:100070000C94A7010C94A7010C94A7010C94A70160
:100080000C94A7010C94A7010C94A7010C94A70150
:100090000C94A7010C94A7010C94A7010C94A70140
:1000A0000C94A7010C94A7010C94A7010C94A70130
:1000B0000C94A7010C94A7010C94A7010C94A70120
:1000C0000C94A7010C94A7010C94A7010C94A70110
:1000D0000C94A7010C94A7010C94A7010C94A70100
:1000E0000C94A7010C9408020C940B0C0C944A0479
:1000F0000C94D2190C94F2130C947A1A0C94280FC5
:100100000C9402020C94E7170C94F1040C94EC018B
:100110000C94450A0C94D4070C94CF110C940B0446
:100120000C946C040C940C020C94F4010C94E70BEA
:100130000C943B040C945E040C94D1010C94441870
:100140000C94DC010C94E6010C9456160C94CD0131
:100150000C94E2010C94A4040C948F0A0C945A1988
:100160000C94FE010C944B0A0C94551A0C94FA0151
:100170000C9407020C940E040C94D5010C94070CFB
:100180000C94F0010C94C7010C94D9014E414E49D6
:100190004E495459494E46CDCCCC3D0AD7233C1745
:1001A000B7D13877CC2B329595E6241FB14F0A0092
:1001B0000020410000C84200401C4620BCBE4CCA82
:1001C0001B0E5AAEC59D74020100000021002400E0
:1001D00027002A002D003000330001010000040137
:1001E00007010A0100002200250028002B002E0034
:1001F0003100340002010000050108010B0100007C
:1002000020002300260029002C002F0032000001CE
:100210000000030106010901050505050705080899
:100220000808020202020A0A080804040404010180
:100230000101010101010303030303030303040795
:1002400007070C0C0C0C0C0C0C0C0202020206062C
:100250000606060606060B0B0B0B0B0B0B0B01021F
:1002600010202008081020401020408002010201C8
:100270000804020101020408102040808040201080
:1002800008040201800402018040201008040201D9
:100290000804020101020408102040800102040841
:1002A0001020408000000A0B02090C0D0E08070305
:1002B0000401000000000000000000000000000039
:1002C000000000000000000000000000000000002E
:1002D00012111000000000000000000000000000EB
:1002E00000000000000000000000CF1111241FBE1C
:1002F000CFEFD1E2DEBFCDBF00E00CBF15E0A0E044
:10030000B2E0E8EDF4E500E00BBF02C007900D920B
:10031000A83EB107D9F728E0A8EEB5E001C01D92CC
:10032000AC3EB207E1F711E0C6E7D1E000E006C05D
:1003300021970109802FFE010E943E26C537D10773
:1003400080E00807A9F70E9478120C946A2A0C949E
:1003500000008150823108F05AC0E82FF0E0882771
:10036000EB54FE4F8F4F0C943E26D501D901C701A7
:10037000CD01D1010702DC01E201E601EC01F0014F
:10038000F401FA01FE010702020208020C02809148
:1003900080008F77809380000895809180008F7D0A
:1003A000F9CF80918000877FF5CF84B58F7784BDAA
:1003B000089584B58F7DFBCF8091B0008F778093B7
:1003C000B00008958091B0008F7DF9CF80919000AA
:1003D0008F77809390000895809190008F7DF9CF62
:1003E00080919000877FF5CF8091A0008F778093D8
:1003F000A00008958091A0008F7DF9CF8091A0008A
:10040000877FF5CF809120018F7780932001089519
:10041000809120018F7DF9CF80912001877FF5CFDA
:10042000CF93DF93282F30E0F901EC55FD4F8491F5
:10043000F901E25AFD4FD491F901E85EFD4FC491F4
:10044000CC23A1F081110E94A901EC2FF0E0EE0F66
:10045000FF1FE250FE4FA591B491EC91ED2381E096
:1004600090E009F480E0DF91CF91089580E090E082
:10047000FACF1F93CF93DF93282F30E0F901EC558B
:10048000FD4F8491F901E25AFD4FD491F901E85EE4
:10049000FD4FC491CC23A9F0162F81110E94A90110
:1004A000EC2FF0E0EE0FFF1FEC51FE4FA591B49141
:1004B0008FB7F894EC91111108C0D095DE23DC932E
:1004C0008FBFDF91CF911F910895DE2BF8CFCF938F
:1004D000DF9390E0FC01E25AFD4F2491885E9D4F2E
:1004E000FC0184918823D1F090E0880F991FFC01D2
:1004F000E653FE4FA591B491FC01EC51FE4FC5911E
:10050000D49161110EC09FB7F8948C91E22FE095C1
:100510008E238C932881E223E8839FBFDF91CF91C4
:1005200008958FB7F894EC91E22BEC938FBFF6CF40
:100530003FB7F8948091040890910508A0910608AF
:10054000B091070826B5A89B05C02F3F19F001966A
:10055000A11DB11D3FBFBA2FA92F982F8827BC011D
:10056000CD01620F711D811D911D42E0660F771F45
:10057000881F991F4A95D1F708958F929F92AF9245
:10058000BF92CF92DF92EF92FF924B015C010E94EB
:1005900098026B017C010E9498026C197D098E09FA
:1005A0009F09683E734081059105A8F321E0821AF6
:1005B0009108A108B10888EEC80E83E0D81EE11C9E
:1005C000F11C81149104A104B10429F7FF90EF906C
:1005D000DF90CF90BF90AF909F908F9008952FB7EE
:1005E000F894609100087091010880910208909140
:1005F00003082FBF08954F925F926F927F929F9250
:10060000AF92BF92CF92DF92EF92FF920F931F9320
:10061000CF93DF9300D0CDB7DEB7D82E8091E0081E
:100620009091E108A091E208B091E308892B8A2B10
:100630008B2BD9F00E94980200911008109111089C
:100640002091120830911308601B710B820B930BE1
:100650000091E0081091E1082091E2083091E30850
:100660006017710782079307C8F20E94980260938F
:100670001008709311088093120890931308E0916A
:10068000E808F091E908309759F04091E40850915A
:10069000E5086091E6087091E7088D2D1995D82E30
:1006A000E0900E08F0900F084D2C512C712C612C0D
:1006B000E114F10409F459C0D7011C96CC901C97A1
:1006C0008091DE089091DF088436910510F41C9625
:1006D0001C92D701ED91FC91A280B38019821A82FD
:1006E0001B82DD2079F1F701369610E000E02191C0
:1006F000222319F19280992001F130E050E040E08E
:100700002F5F3F4F4F4F5F4FC301B2010E94B7258C
:100710009B01AC01892D90E0B0E0A0E0BC01CD01CF
:100720006F5F7F4F8F4F9F4F0E94B725A1E0B0E0D2
:10073000AC0FBD1FA00FB11F8C930F5F1F4F033075
:100740001105A9F609811A812B81F7014585568586
:1007500062817381C701F5011995D7011C96CC926E
:100760001C971496ED90FC90A3CF80910C0890916B
:100770000D088C010F5F1F4F10930D0800930C089C
:100780004997B4F10E94EF02C0900808D090090880
:10079000E0900A08F0900B089B01AC012C193D0970
:1007A0004E095F0921F421E030E040E050E088EE9E
:1007B00093E0089FB001099F700D189F700D1124E0
:1007C000072E000C880B990B0E94C7253093DF0879
:1007D0002093DE0810920D0810920C080E94EF0280
:1007E000609308087093090880930A0890930B0897
:1007F0000F900F900F90DF91CF911F910F91FF906D
:10080000EF90DF90CF90BF90AF909F907F906F90D0
:100810005F904F90089580E991E00895AF92BF9264
:10082000CF92DF92EF92FF920F931F93CF93DF93BC
:100830006C017B018B01040F151FEB015E01AE18EB
:10084000BF08C017D10759F06991D601ED91FC910D
:100850000190F081E02DC6011995892B79F7C5012A
:10086000DF91CF911F910F91FF90EF90DF90CF908C
:10087000BF90AF900895FC01538D448D252F30E03B
:10088000842F90E0821B930B541710F0CF9608959D
:1008900001970895FC01918D828D981761F0A28DCA
:1008A000AE0FBF2FB11D5D968C91928D9F5F9F7390
:1008B000928F90E008958FEF9FEF0895FC01918D46
:1008C000828D981731F0828DE80FF11D858D90E0B3
:1008D00008958FEF9FEF0895FC01918D228D892F50
:1008E00090E0805C9F4F821B91098F739927089538
:1008F00084E198E00E946C0421E0892B09F420E057
:10090000822F0895FC01A48DA80FB92FB11DA35A01
:10091000BF4F2C91848D90E001968F739927848F1F
:10092000A689B7892C93A089B1898C918370806442
:100930008C93938D848D981306C00288F389E02DE3
:1009400080818F7D80830895EF92FF920F931F9394
:10095000CF93DF93EC0181E0888F9B8D8C8D981372
:100960001AC0E889F989808185FF15C09FB7F8947E
:10097000EE89FF896083E889F989808183708064CA
:1009800080839FBF81E090E0DF91CF911F910F9115
:10099000FF90EF900895F62E0B8D10E00F5F1F4F24
:1009A0000F731127E02E8C8D8E110CC00FB607FC33
:1009B000FACFE889F989808185FFF5CFCE010E94C1
:1009C0008204F1CFEB8DEC0FFD2FF11DE35AFF4FA9
:1009D000F0829FB7F8940B8FEA89FB89808180624F
:1009E000CFCFCF93DF93EC01888D8823B9F0AA890C
:1009F000BB89E889F9898C9185FD03C0808186FDDA
:100A00000DC00FB607FCF7CF8C9185FFF2CF808128
:100A100085FFEDCFCE010E948204E9CFDF91CF9117
:100A2000089580E090E0892B29F00E9478048111DC
:100A30000E94000080E090E0892B49F080E090E087
:100A4000892B29F00E94000081110E94000080E0A3
:100A500090E0892B49F080E090E0892B29F00E94FA
:100A6000000081110E94000080E090E0892B49F095
:100A700080E090E0892B29F00E94000081110C9405
:100A8000000008952F923F924F925F926F927F9253
:100A90008F929F92AF92BF92CF92DF92EF92FF928E
:100AA0001F93CF93DF9300D000D0CDB7DEB7DC012A
:100AB0001196EC91E7FD44C129833A834B835C8313
:100AC0001B019E838D8361E0FC0180810E9467028F
:100AD000AD81BE8111961C914101B12CA12C812FB9
:100AE0008D7F09F047C160E072E18AE790E0A501DF
:100AF00091010E94E92529013A017A016901B1E0D9
:100B0000CB1AD108E108F108EFEFCE16D104E104C9
:100B1000F10409F00CF4D9C060E472E48FE090E0D5
:100B2000A50191010E94E92569017A01F1E0CF1A3E
:100B3000D108E108F1081230C9F58FEFC816D104C9
:100B4000E104F10409F00CF467C160E970ED83E0A1
:100B500090E0A50191010E94E92569017A0191E0E7
:100B6000C91AD108E108F10883E0AFEFCA16D10431
:100B7000E104F10409F00CF4A1C068E478EE81E02E
:100B800090E0A50191010E94E92569017A01F1E057
:100B9000CF1AD108E108F1088FEFC816D104E1049B
:100BA000F10411F00CF04DC084E088C0BFEFCB160B
:100BB000D104E104F10409F00CF4DAC068E478EE41
:100BC00081E090E0A50191010E94E92569017A0187
:100BD000E1E0CE1AD108E108F10884E0111141C02A
:100BE00083E09FEFC916D104E104F10409F00CF48D
:100BF0006FC062E17AE780E090E0A50194010E9475
:100C0000E92569017A0181E0C81AD108E108F108F3
:100C100084E09FEFC916D104E104F10409F008F45F
:100C200057C0730162019AE0F594E794D794C79492
:100C30009A95D1F7B1E0CB1AD108E108F10885E027
:100C400047C064E274EF80E090E0A50194010E9447
:100C5000E92569017A01F1E0CF1AD108E108F1082C
:100C600085E0EFEFCE16D104E104F10439F130F163
:100C700062E17AE780E090E0A50194010E94E92515
:100C800069017A01A1E0CA1AD108E108F10886E0F9
:100C9000BFEFCB16D104E104F10481F078F07301C9
:100CA00062018AE0F594E794D794C7948A95D1F7C6
:100CB000E1E0CE1AD108E108F10887E09091B10097
:100CC000987F892B8093B10007C081E01111F6CF86
:100CD00095B5987F892B85BD89819A81AB81BC812F
:100CE0002FEF3FEFA901892B8A2B8B2B79F0D101B4
:100CF000AA0FBB1F29813A814B815C810E94082683
:100D000028EE33E040E050E00E94C725AD81BE816F
:100D100011968C91813009F45DC0823009F46CC069
:100D200081110EC0C7BC2093910630939206409368
:100D300093065093940680916E00826080936E00BB
:100D400026960FB6F894DEBF0FBECDBFDF91CF91D0
:100D50001F91FF90EF90DF90CF90BF90AF909F904A
:100D60008F907F906F905F904F903F902F9008955D
:100D700082E0ACCF60E072E18AE790E0A5019101EA
:100D80000E94E92569017A01A1E0CA1AD108E108A7
:100D9000F10891E0C114D104B1E0EB06F10484F054
:100DA00068E478EE81E090E0A50191010E94E925D8
:100DB00069017A01E1E0CE1AD108E108F10893E077
:100DC000113009F089CF80918100887F892B809331
:100DD000810082CFD0928900C092880020938D0636
:100DE00030938E0640938F065093900680916F004B
:100DF000826080936F00A4CFC092B30020938906D5
:100E000030938A0640938B0650938C068091700035
:100E100082608093700094CF82E050CFDC0180919B
:100E20008806833008F07FC06C93E82FF0E0E95328
:100E3000FE4FE4911196EC9311978F5F8093880693
:100E4000E13029F120F0E23009F447C0089514BCE4
:100E500015BC84B5826084BD85B5816085BD8C91EB
:100E600090E0FC01E85EFD4FE491F0E0EE0FFF1F23
:100E7000EC51FE4F259134913093870620938606DE
:100E8000FC01E25AFD4FE491E0938506089510922B
:100E900080001092810080918100886080938100A1
:100EA000809181008160809381008C9190E0FC01B1
:100EB000E85EFD4FE491F0E0EE0FFF1FEC51FE4FB6
:100EC000259134913093840620938306FC01E25AE5
:100ED000FD4FE491E093820608951092B0001092C5
:100EE000B1008091B00082608093B0008091B10029
:100EF00081608093B1008C9190E0FC01E85EFD4F31
:100F0000E491F0E0EE0FFF1FEC51FE4F259134917C
:100F10003093810620938006FC01E25AFD4FE49154
:100F2000E0937F0608958FEF11968C9308950F93A9
:100F30001F93CF93DF9320917E062F5F322F377060
:100F400030937E0620FF2BC020E831FD20643470F2
:100F500009F02062205FFC01EC01239600E011E023
:100F60006485662329F070E0C8010E942A266F5F1D
:100F70006187322F369F030E30E0311D112431116D
:100F800010C01682662311F0615061873196EC170C
:100F9000FD0731F7DF91CF911F910F91089520E068
:100FA000D4CF31503683EECF6F927F928F929F9243
:100FB000AF92BF92CF92DF92EF92FF920F931F9367
:100FC000CF93DF933C01EB010E949802F301278548
:100FD0003089621B730B6A307105B0F3F894E881B5
:100FE000F98150910B01526040910B014D7F40936C
:100FF0000B01EA848F812E2D281B822F2F83DF8403
:10100000AA81BB816D857C85FE846F5F7F5FF394D1
:101010009E813885B984AB84118120E0C32E022FD4
:10102000322F3181112788943111380F08F43FEFA6
:101030008195889460FD130F1795889461FD130FB7
:101040001795889462FD130F1795889463FD130F0D
:101050001795889464FD130F1795889465FD130FF9
:101060001795889466FD130F1795889467FD130FE5
:1010700017958894232F6111212F8E0D122F002C8C
:1010800050930B01002C17FF40930B013081222756
:10109000889400C000C040930B013111390F00C08B
:1010A00050930B01002C16FF40930B0108F43FEF07
:1010B0009195889400C000C040930B0170FD230FF0
:1010C00000C050930B01002C15FF40930B01279596
:1010D000889471FD230F00C000C040930B01279539
:1010E000889400C050930B01002C14FF40930B0117
:1010F00072FD230F2795889400C000C040930B0118
:1011000073FD230F00C050930B01002C13FF40937D
:101110000B012795889474FD230F00C000C04093F5
:101120000B012795889400C050930B01002C12FFEF
:1011300040930B0175FD230F2795889400C000C0D4
:1011400040930B0176FD230F00C050930B01002C40
:1011500011FF40930B012795889477FD230F00C062
:1011600000C040930B012795889400C050930B0159
:10117000002C10FF40930B01132F7111122F9B0DA8
:1011800000C000C040930B0100C000C050930B0191
:10119000002C17FF40930B0132812227889400C056
:1011A00000C040930B0131113C0D00C050930B0166
:1011B000002C16FF40930B0108F43FEFED0DF11DDD
:1011C00000C000C040930B01F0FC230F00C05093FF
:1011D0000B01002C15FF40930B0127958894F1FC1F
:1011E000230F00C000C040930B012795889400C0D6
:1011F00050930B01002C14FF40930B01F2FC230FC2
:101200002795889400C000C040930B01F3FC230F86
:1012100000C050930B01002C13FF40930B01279546
:101220008894F4FC230F00C000C040930B01279565
:10123000889400C050930B01002C12FF40930B01C7
:10124000F5FC230F2795889400C000C040930B0144
:10125000F6FC230F00C050930B01002C11FF4093AC
:101260000B0127958894F7FC230F00C000C0409322
:101270000B012795889400C050930B01002C10FFA0
:1012800040930B01132FF110122FC19400C000C026
:1012900040930B01CA0C00C0002C50930B01002C92
:1012A00017FF40930B0131812227889400C000C0B2
:1012B00040930B013111380F00C050930B01002CEB
:1012C00016FF40930B0108F43FEF8195889400C00E
:1012D00000C040930B0160FD230F00C050930B0131
:1012E000002C15FF40930B012795889461FD230F77
:1012F00000C000C040930B012795889400C0509314
:101300000B01002C14FF40930B0162FD230F279566
:10131000889400C000C040930B0163FD230F00C000
:1013200050930B01002C13FF40930B0127958894D9
:1013300064FD230F00C000C040930B0127958894E3
:1013400000C050930B01002C12FF40930B0165FD70
:10135000230F2795889400C000C040930B0166FDC1
:10136000230F00C050930B01002C11FF40930B0181
:101370002795889467FD230F00C000C040930B01A0
:101380002795889400C050930B01002C10FF4093C8
:101390000B01132F6111122F8E0D00C000C040935E
:1013A0000B01119709F06CCE4A815B8120EE31E090
:1013B000DA010E944626DC01CB01F4E0B695A79540
:1013C00097958795FA95D1F730E020E0B901EAE9E1
:1013D0004E9F040E611D5E9F600D711D1124650FEF
:1013E000711D860F971FA11DB11D893E43E0940713
:1013F000A105B10508F434C0885E9340A109B10984
:1014000042E0B695A795979587954A95D1F747E01D
:10141000849F080E211D949F200D311D1124290F3A
:10142000311D60917D0670E0860F971F820F931F1C
:1014300040910008509101086091020870910308E2
:10144000292F3327420F531F611D711D4093000840
:1014500050930108609302087093030880937D06FF
:1014600078940E949802F301708B6787DF91CF9187
:101470001F910F91FF90EF90DF90CF90BF90AF90B2
:101480009F908F907F906F900895EAE0F1E08081C7
:10149000826080830895EF92FF920F931F93CF9302
:1014A000DF93CDB7DEB762970FB6F894DEBF0FBEFD
:1014B000CDBF7C01DC011C968C917A8369835C83AF
:1014C0004B835E834D830D871E872F87813001F507
:1014D000CE0101960E94970783E0888B1A8A198AA9
:1014E000D701ED91FC910484F585E02DBE016F5F7D
:1014F0007F4FC701199562960FB6F894DEBF0FBEF5
:10150000CDBFDF91CF911F910F91FF90EF90089584
:101510001C861B861A86198618861F82DDCFEF92DD
:10152000FF920F931F93CF93DF93CDB7DEB76297F0
:101530000FB6F894DEBF0FBECDBF7C01DC011C9658
:101540008C917A8369835C834B835E834D830D87A3
:101550001E872F878130F9F4CE0101960E949707EC
:10156000188A1A8A198AD701ED91FC910484F585AD
:10157000E02DBE016F5F7F4FC701199562960FB6D0
:10158000F894DEBF0FBECDBFDF91CF911F910F91B9
:10159000FF90EF9008951C861B861A861986188680
:1015A0001F82DECFCF92DF92EF92FF920F931F93B5
:1015B000CF93DF930BE716E0E8013A912A913B8342
:1015C0002A8326E0C936D20799F590936A0680935C
:1015D00069060E5E1F4FC12CD12C7601699179915D
:1015E000072E000C880B990B0E949A249B01AC01DA
:1015F000C701B6010E9462266B017C010C171D0712
:1016000069F720E030E040E251E40E94CE2660938A
:10161000BA067093BB068093BC069093BD06DF911B
:10162000CF911F910F91FF90EF90DF90CF90089591
:101630008E01C2CFCF92DF92EF92FF920F931F9352
:10164000CF93DF9306E112E0E8013A912A913B83C0
:101650002A8322E0C430D20799F590930502809343
:1016600004020E5E1F4FC12CD12C76016991799135
:10167000072E000C880B990B0E949A249B01AC0149
:10168000C701B6010E9462266B017C010C171D0781
:1016900069F720E030E040E251E40E94CE266093FA
:1016A000190270931A0280931B0290931C02DF911F
:1016B000CF911F910F91FF90EF90DF90CF90089501
:1016C0008E01C2CF0F931F938091D7068823B9F064
:1016D00061E084E30E94390261E088E20E943902FD
:1016E00081E0809368061092D7060E94EF02609313
:1016F000B1087093B2088093B3089093B4088091B6
:1017000068068823E9F00E94EF020091B108109169
:10171000B2082091B3083091B408601B710B820BA2
:10172000930B653671058105910550F060E084E307
:101730000E94390260E088E20E9439021092680635
:101740001F910F9108950E94EF026093C908709352
:10175000CA088093CB089093CC08209183023091E3
:10176000840240918502509186028091C406609166
:101770006F0270917002882321F060917302709162
:10178000740288EB96E00C9442050E94EF0260938D
:10179000CD087093CE088093CF089093D008209105
:1017A000830230918402409185025091860280919B
:1017B000C40660916B0270916C02882321F06091E5
:1017C00073027091740288EB96E00C9442050F93BB
:1017D0001F93CF93DF9300D0CDB7DEB7AB01198253
:1017E0001A821B82DC01ED91FC910190F081E02DC9
:1017F00000E010E020E0BE016F5F7F4F19950F9071
:101800000F900F90DF91CF911F910F910895FC01E0
:1018100085859685089590E080E00895FC0101900B
:101820000020E9F73197AF01481B590BBC0184E157
:1018300098E00C940E048F929F92AF92BF920F93F8
:101840001F93CF93DF93CDB7DEB7A1970FB6F89470
:10185000DEBF0FBECDBF19A2423008F44AE08E01B0
:101860000F5D1F4F842E912CB12CA12CA50194014A
:101870000E94C725E62FB901CA01EA30F4F4E05D01
:10188000D801EE938D01232B242B252B79F790E0A3
:1018900080E0109719F0CD010E940E0CA1960FB6B2
:1018A000F894DEBF0FBECDBFDF91CF911F910F9196
:1018B000BF90AF909F908F900895E95CE1CFCF9358
:1018C000DF930E940E0CEC0187EC92E00E940E0C5C
:1018D0008C0F9D1FDF91CF910895CF93DF93EC0183
:1018E0000E94EF029F938F937F936F93DF93CF9329
:1018F0008AEC92E09F938F931F9280E88F9388EEFB
:1019000095E09F938F930E9487278DB79EB70C9683
:101910000FB6F8949EBF0FBE8DBF88EE95E0DF91A5
:10192000CF910C945F0C85E390E00E946D0CE0EB8E
:10193000F6E0108211821282138214821582809145
:10194000DD080C94FB020F931F9384E390E00E9448
:101950006D0CE0EBF6E066EB76E005E550E0ABEA17
:10196000BAEA1091670230916902932F990F990F8B
:10197000990F292F209F020E20E0211D1124822F74
:10198000232F2074432F407237FD53C021113EC0D6
:10199000411106C0982F9095382F892F90E004C0F0
:1019A00035E5380F90E08BEA1F3F09F421C0252F61
:1019B000112321F0119F212D09F02F5F222309F41B
:1019C00058C0882331F0482F429F040E40E0411D4B
:1019D000842F332321F0329F030E30E0311D9923F1
:1019E00031F0492F429F040E40E0411D942F1124F5
:1019F00080833183928333966E177F0709F0B1CFCE
:101A00008091DD081F910F910C94FB0241110CC0D5
:101A1000292F3B2F239F020E20E0211D11249A2FF6
:101A2000921B3AEA380FB9CF382F3095982F80E0C3
:101A3000BBCF211112C041110CC0292F4B2F249F65
:101A4000020E20E0211D11243A2F321B95E5920F42
:101A5000EECF982F909530E0A7CF411106C025E535
:101A6000280F9A2F981B822FF6CF2AEA280F902F43
:101A7000F9CF90E030E080E0BBCFCF92DF92EF92E1
:101A8000FF920F931F938091510290915202892BE4
:101A900011F00E94A30C0E9498026B017C01C0927D
:101AA000C508D092C608E092C708F092C8080E9404
:101AB00098026093BD087093BE088093BF0890930E
:101AC000C0080E9498026C197D098E099F09009137
:101AD000C1081091C2082091C3083091C408601752
:101AE00071078207930708F048C00E94980200918E
:101AF000BD081091BE082091BF083091C008601B3E
:101B0000710B820B930B6330710581059105C8F24F
:101B10000E9498026093BD087093BE088093BF082E
:101B20009093C0084091000250910102609102021E
:101B300070910302DB01CA01B695A7959795879529
:101B400040FF11C026E082279058B05880930002D1
:101B500090930102A0930202B093030261E082E03D
:101B60000E943902AECF8093000290930102A093AD
:101B70000202B093030260E0F2CF1F910F91FF9039
:101B8000EF90DF90CF900895CF93DF93C091D80668
:101B9000D091D906D0932602C09325020E94EF026D
:101BA0006093D9087093DA088093DB089093DC087F
:101BB000CE01DF91CF910C946D0C20918B0230916E
:101BC0008C0240918D0250918E026091870270913B
:101BD000880286EB96E00E94420561E084E00E9464
:101BE000390280E190E00E946D0C81E08093DE0676
:101BF00060912F02709130028091310290913202F7
:101C00000E9498240E9440270E9498242091270235
:101C1000309128024091290250912A020E94CE263A
:101C20000E9440276093DA067093DB068093DC06FF
:101C30009093DD060E94EF026093B5087093B6089A
:101C40008093B7089093B8081092F20608952091F7
:101C50008B0230918C0240918D0250918E026091E6
:101C600087027091880286EB96E00E94420561E04F
:101C700085E00E9439028EE090E00E946D0C81E0C8
:101C80008093E70660912F027091300280913102BB
:101C9000909132020E9498240E9440270E9498242A
:101CA00020912B0230912C0240912D0250912E0256
:101CB0000E94CE260E9440276093DF067093E006C4
:101CC0008093E1069093E2060E94EF026093B908C8
:101CD0007093BA088093BB089093BC081092F406E6
:101CE0000895EF92FF920F931F93CF93DF93EC0130
:101CF000142F052FF62EE72E0E94EF029F938F934D
:101D00007F936F93EF92FF920F931F93DF93CF9385
:101D100081ED92E09F938F931F9280E88F9388EEDE
:101D200095E09F938F930E9487278DB79EB740962B
:101D30000FB6F8949EBF0FBE8DBF88EE95E0DF9181
:101D4000CF911F910F91FF90EF900C945F0C0F9328
:101D50001F93CF93DF93EC01162F072F0E94EF0202
:101D60009F938F937F936F930F931F93DF93CF93E3
:101D700082EE92E09F938F931F9280E88F9388EE7C
:101D800095E09F938F930E9487278DB79EB70E96FD
:101D90000FB6F8949EBF0FBE8DBF88EE95E0DF9121
:101DA000CF911F910F910C945F0C0E94782128EE27
:101DB00033E040E050E00E94E9250E949A2420E0B0
:101DC00030E04AE754E40E94CE266093C006709348
:101DD000C1068093C2069093C30620E030E0A901BB
:101DE0000E94932487FD05C060E679E080E090E0E2
:101DF000089560ED77E080E090E008950E947821FA
:101E000028EE33E040E050E00E94E9250E949A2449
:101E100020E030E04AE754E40E94CE266093C006FA
:101E20007093C1068093C2069093C30620E030E011
:101E300040E85FE30E94932487FD05C068EE73E0ED
:101E400080E090E0089568E572E080E090E0089519
:101E50000E9479278F929F92AF92BF92CF92DF928A
:101E6000EF92FF926A017B019F938F9382EF92E042
:101E70009F938F931F9280E88F9388EE95E09F93B6
:101E80008F930E94872788EE95E00E940E0C8DB7F5
:101E90009EB708960FB6F8949EBF0FBE8DBFA701E0
:101EA0009601C701B6010E947427882359F18BEF70
:101EB00092E00E940E0C0E94EF029F938F937F93FB
:101EC0006F938CEE92E09F938F931F9280E88F9395
:101ED00088EE95E09F938F930E9487278DB79EB7DA
:101EE0000A960FB6F8949EBF0FBE8DBF88EE95E0A0
:101EF000FF90EF90DF90CF90BF90AF909F908F902A
:101F00000C945F0C46015701E894B7F82FEF3FEFB0
:101F10004FE75FE7C501B4010E94742781110DC02E
:101F20002FEF3FEF4FE75FE7C501B4010E94932415
:101F300018161CF48FEF92E0BCCF2FEF3FEF4FE766
:101F40005FE4C701B6010E946F2718161CF483E0F6
:101F500093E0AFCF2FEF3FEF4FE75FECC701B60144
:101F60000E94932487FDF3CF20E030E0A901C70150
:101F7000B6010E94932487FF09C06DE284E198E0D6
:101F80000E94A404F7FAF094F7F8F0942AE037EDF1
:101F900043EA5BE3C701B6010E9462264B015C0184
:101FA0000E9440276B017C010E9498249B01AC0198
:101FB000C501B4010E9461264B015C014AE0C701E2
:101FC000B6010E941B0C6EE284E198E00E94A4041A
:101FD00020E030E040E251E4C501B4010E94F92460
:101FE0004B015C010E9440276B01F12CE12C4AE07F
:101FF000C701B6010E941B0CC701B6010E949824BC
:102000009B01AC01C501B4010E94612620E030E0D3
:1020100040E251E40E94F9240E94402790E080E0D1
:102020004AE00E941B0C47CF1F920F920FB60F92EF
:1020300011242F933F938F939F93AF93BF938091DE
:10204000000890910108A0910208B0910308309116
:10205000FF0723E0230F2D3758F50196A11DB11D71
:102060002093FF078093000890930108A093020833
:10207000B09303088091040890910508A091060888
:10208000B09107080196A11DB11D8093040890939B
:102090000508A0930608B0930708BF91AF919F91E0
:1020A0008F913F912F910F900FBE0F901F90189519
:1020B00026E8230F0296A11DB11DD2CF1F920F92C9
:1020C0000FB60F9211240BB60F922F933F934F939D
:1020D0005F936F937F938F939F93AF93BF93EF9390
:1020E000FF9384E198E00E948204FF91EF91BF91F9
:1020F000AF919F918F917F916F915F914F913F91A0
:102100002F910F900BBE0F900FBE0F901F90189540
:102110001F920F920FB60F9211240BB60F922F93AE
:102120008F939F93EF93FF93E0912408F0912508FC
:102130008081E0912A08F0912B0882FD1DC09081DA
:1021400080912D088F5F8F7320912E08821741F0A8
:10215000E0912D08F0E0EC5EF74F958F80932D080D
:10216000FF91EF919F918F912F910F900BBE0F9048
:102170000FBE0F901F9018958081F2CF1F920F9283
:102180000FB60F9211240BB60F922F933F938F939C
:102190009F93AF93BF93EF93FF93809189069091A4
:1021A0008A06A0918B06B0918C060097A105B10517
:1021B00041F130917F06E0918006F0918106208107
:1021C00023272083181619061A061B061CF40197EC
:1021D000A109B1098093890690938A06A0938B0682
:1021E000B0938C06FF91EF91BF91AF919F918F912A
:1021F0003F912F910F900BBE0F900FBE0F901F902D
:102200001895209170002D7F2093700020917F06FB
:10221000E0918006F0918106308120952323208370
:10222000D9CF1F920F920FB60F9211240BB60F92B7
:102230008F939F93AF93BF93EF93FF9380918D06FE
:1022400090918E06A0918F06B0919006892B8A2BD3
:102250008B2BB1F190918206E0918306F091840678
:1022600080818927808380918D0690918E06A09130
:102270008F06B0919006181619061A061B069CF4D4
:1022800080918D0690918E06A0918F06B091900658
:102290000197A109B10980938D0690938E06A093B2
:1022A0008F06B0939006FF91EF91BF91AF919F91F0
:1022B0008F910F900BBE0F900FBE0F901F9018952F
:1022C00080916F008D7F80936F0080918206E091F6
:1022D0008306F09184069081809589238083E3CFE3
:1022E0001F920F920FB60F9211240BB60F928F937D
:1022F0009F93AF93BF93EF93FF938091910690913B
:102300009206A0919306B0919406892B8A2B8B2B71
:10231000B1F190918506E0918606F0918706808163
:10232000892780838091910690919206A0919306CF
:10233000B0919406181619061A061B069CF4809193
:10234000910690919206A0919306B0919406019700
:10235000A109B1098093910690939206A0939306E8
:10236000B0939406FF91EF91BF91AF919F918F91A0
:102370000F900BBE0F900FBE0F901F90189580917D
:102380006E008D7F80936E0080918506E0918606B9
:10239000F09187069081809589238083E3CFCF9247
:1023A000DF92EF92FF92E4E1F8E01382128288EE6E
:1023B00093E0A0E0B0E084839583A683B78389EBA4
:1023C00092E09183808385EC90E09587848784EC0C
:1023D00090E09787868780EC90E0918B808B81ECF2
:1023E00090E0938B828B82EC90E0958B848B86ECD3
:1023F00090E0978B868B118E128E138E148ECC24C8
:10240000CA94DC2C7601C092D908D092DA08E09206
:10241000DB08F092DC08C092D508D092D608E09292
:10242000D708F092D808C092D108D092D208E09292
:10243000D308F092D408C092CD08D092CE08E09292
:10244000CF08F092D008C092C908D092CA08E09292
:10245000CB08F092CC08C092C508D092C608E09292
:10246000C708F092C80820918B0230918C024091ED
:102470008D0250918E02A8EEB3E00E940826609370
:10248000C1087093C2088093C3089093C408C09297
:10249000BD08D092BE08E092BF08F092C008C0927A
:1024A000B908D092BA08E092BB08F092BC08C0927A
:1024B000B508D092B608E092B708F092B808C0927A
:1024C000B108D092B208E092B308F092B408EDEDF2
:1024D000F8E08FEF80831282118214861386C78200
:1024E000D086E186F286FF90EF90DF90CF9008953E
:1024F000CF93DF9300D000D01F921F92CDB7DEB7ED
:10250000789484B5826084BD84B5816084BD85B5CE
:10251000826085BD85B5816085BD80916E008160DA
:1025200080936E0010928100809181008260809380
:102530008100809181008160809381008091800082
:102540008160809380008091B10084608093B100AD
:102550008091B00081608093B00080919100826092
:10256000809391008091910081608093910080918F
:1025700090008160809390008091A10082608093A0
:10258000A1008091A10081608093A1008091A000B2
:1025900081608093A000809121018260809321015D
:1025A00080912101816080932101809120018160CF
:1025B0008093200180917A00846080937A008091DA
:1025C0007A00826080937A0080917A0081608093A3
:1025D0007A0080917A00806880937A001092C1001E
:1025E00068EE73E080E090E00E94BD02E091240874
:1025F000F091250882E08083E0912008F091210885
:102600001082E0912208F091230880E180831092EB
:102610002C08E0912808F091290886E08083E09159
:102620002608F0912708808180618083E091260848
:10263000F0912708808188608083E0912608F091DE
:102640002708808180688083E0912608F091270820
:1026500080818F7D808360E083E30E94670260E079
:1026600082E30E94670261E084E30E94670261E006
:1026700088E20E94670261E082E00E94670261E0F6
:102680008EE20E9467026EE288EB96E00E940E07DF
:1026900062E086EB96E00E940E078091A806811109
:1026A00045C010929A06109299068FEF80939D066E
:1026B00080939E0680939F068093A0068093A10638
:1026C0008093A20681E08093A3061092A506109243
:1026D000A40610929C0610929B0680910E08909181
:1026E0000F08892B31F487E996E090930F088093C7
:1026F0000E08E0919506F0919606309721F087E953
:1027000096E09583848387E996E09093960680937C
:1027100095061092A7061092A60687EA92E090937B
:1027200098068093970681E08093A80680910A011D
:10273000826080930A0180EB96E090939A068093E2
:10274000990682E090E09093A5068093A40680917C
:10275000E0089091E108A091E208B091E308843C80
:1027600029E09207A105B10520F484EC99E0A0E0EE
:10277000B0E08093E0089093E108A093E208B09362
:10278000E3088091510290915202892B11F00E942E
:10279000930C87E093E00E945F0C68EE73E080E0AA
:1027A00090E00E94BD02DD24D3948FE7C82E809173
:1027B000FE07882309F462C0E091D806F091D9069B
:1027C000E830F10508F05AC08827E651FC4E8F4FDB
:1027D0000C943E265A19F2135616E7174418D219CC
:1027E0007A1A551A80912502909126020197C9F014
:1027F0000E94C40D84E190E00E946D0C8091510212
:1028000090915202892B11F00E94930C2091D806CE
:102810003091D90680912502909126022817390718
:1028200069F58091470290914802892B29F48CE147
:102830000E941002019711F50E94EF020091D10849
:102840001091D2082091D3083091D408601B710BED
:10285000820B930B0091390210913A0220913B02B6
:1028600030913C02061717072807390738F4809182
:10287000E80622E030E0882309F485C38091E7066A
:1028800081118BC08091F406882309F4ABC080913C
:10289000F306882379F10E94C50B1092F30680900D
:1028A0007B0290907C02A0907D02B0907E024090CE
:1028B0007F025090800260908102709082024814E2
:1028C00059046A047B0474F484189508A608B708B0
:1028D0000E947821A50194010E94E925460E571E09
:1028E000681E791E4092E3065092E4066092E50667
:1028F0007092E6068091450290914602019709F098
:1029000046C08091430290914402019729F580913D
:10291000ED06882309F10E94EF020091D50810917D
:10292000D6082091D7083091D808601B710B820B14
:10293000930B0091350210913602209137023091AD
:102940003802061717072807390730F48EE290E09F
:102950000E946D0C0E94270E0E94EF020091CD088C
:102960001091CE082091CF083091D008601B710BD8
:10297000820B930B0091E3061091E4062091E5068B
:102980003091E606061717072807390710F40E944A
:10299000270E8091E706882329F10E94EF0200911B
:1029A000B9081091BA082091BB083091BC08601B8F
:1029B000710B820B930B0091DF061091E0062091C2
:1029C000E1063091E206061717072807390750F489
:1029D00060E085E00E9439028FE090E00E946D0C7B
:1029E0001092E7068091DE0681118BC08091F2067D
:1029F000882309F4ABC08091F106882379F10E9405
:102A0000A30B1092F10680907B0290907C02A09024
:102A10007D02B0907E0240907F02509080026090D4
:102A2000810270908202481459046A047B0474F491
:102A300084189508A608B7080E947821A50194017A
:102A40000E94E925460E571E681E791E4092E30635
:102A50005092E4066092E5067092E6068091450287
:102A600090914602019709F046C0809143029091EF
:102A70004402019729F58091EA06882309F10E9412
:102A8000EF020091D5081091D6082091D708309117
:102A9000D808601B710B820B930B009135021091CB
:102AA000360220913702309138020617170728079F
:102AB000390730F48EE290E00E946D0C0E94DD0D2B
:102AC0000E94EF020091C9081091CA082091CB081A
:102AD0003091CC08601B710B820B930B0091E306C5
:102AE0001091E4062091E5063091E60606171707D7
:102AF0002807390710F40E94DD0D8091DE06882337
:102B000029F10E94EF020091B5081091B6082091BA
:102B1000B7083091B808601B710B820B930B0091C2
:102B2000DA061091DB062091DC063091DD060617EF
:102B300017072807390750F460E084E00E94390243
:102B400081E190E00E946D0C1092DE0683E30E940A
:102B5000100221E0009709F420E02093EE06209176
:102B6000ED06211112C0892B81F08AE090E00E94CD
:102B70006D0CD092ED060E94EF026093D508709321
:102B8000D6088093D7089093D8088091ED068823C3
:102B9000F1F08091EE0681111AC08BE090E00E9466
:102BA0006D0C1092ED060E94EF026093D1087093B5
:102BB000D2088093D3089093D4088091EC068823A0
:102BC00031F085E290E00E946D0C1092EC0682E3F9
:102BD0000E94100221E0009709F420E02093EB0608
:102BE0002091EA06211112C0892B81F08CE090E03F
:102BF0000E946D0CD092EA060E94EF026093D50805
:102C00007093D6088093D7089093D8088091EA06ED
:102C10008823F1F08091EB0681111AC08DE090E0DD
:102C20000E946D0C1092EA060E94EF026093D10898
:102C30007093D2088093D3089093D4088091E906CA
:102C4000882331F086E290E00E946D0C1092E90634
:102C50008091ED06811102C08091EA068093E8061A
:102C600084E198E00E946C042091FD071816190673
:102C70000CF0EEC42111EFC484E198E00E944A04F4
:102C80009091F006992309F4DDC49091EF06E92FA5
:102C9000F0E0E350F94F8E3309F4CCC4808381E037
:102CA000890F87FFC4C4C092EF06DACF8091250256
:102CB00090912602029709F464C10E94C40D85E137
:102CC00090E00E946D0C8091FB069091FC060197AC
:102CD00081F42091770230917802409179025091ED
:102CE0007A02609173027091740288EB96E00E9400
:102CF0004205D092D7060E94620B80914D029091BE
:102D00004E02019761F58091C506811116C0809130
:102D10004B0290914C022091D1063091D206281797
:102D200039073CF42091CF063091D0062817390797
:102D300024F0D092C5061092C4068091C50688235F
:102D400091F02091D3063091D40680914902909160
:102D50004A02281739070CF45FC01092C50680910B
:102D6000C506811159C08091F9069091FA06019724
:102D700009F015C10E94782128EE33E040E050E0D0
:102D80000E94E9250E949A2420E030E04AE754E4BA
:102D90000E94CE266093C0067093C1068093C2063F
:102DA0009093C3062091190230911A0240911B02A0
:102DB00050911C020E946F2718160CF0E9C086E0A3
:102DC00090E09093D6068093D5060E94782128EE55
:102DD00033E040E050E00E94E9250E949A2420E080
:102DE00030E04AE754E40E94CE266093C006709318
:102DF000C1068093C2069093C3062091F5063091D8
:102E0000F6064091F7065091F8060E949324880F29
:102E1000880B8D218093C4062091BE063091BF0699
:102E200080913D0290913E028217930754F4809165
:102E30001802882331F01092460210924502109237
:102E400018028091180281111BC020913F0230911D
:102E5000400240914102509142026091BA06709145
:102E6000BB068091BC069091BD060E946F27181684
:102E70000CF0A2C081E090E090934602809345025E
:102E80008091D5069091D606069789F480913302F9
:102E900090913402892B09F094C00E94FE0E609339
:102EA0002102709322028093230290932402809146
:102EB000D5069091D606049789F4809133029091BB
:102EC0003402019709F080C00E94FE0E6093210237
:102ED0007093220280932302909324026091BE0695
:102EE0007091BF068EE293E00E94A70E40912102EE
:102EF0005091220260912302709124028CE393E0AE
:102F00000E94710E6091D5067091D6068AE493E016
:102F10000E94A70E6091C50670E087E593E00E94CD
:102F2000A70E4091190250911A0260911B027091F4
:102F30001C0284E693E00E942A0F6091C40670E0B0
:102F400083E495E00E94A70E6091450270914602CD
:102F500089E693E00E94A70E4091BA065091BB0605
:102F60006091BC067091BD068DE793E00E942A0F28
:102F70008091BE069091BF0601969093BF06809304
:102F8000BE0623E030E03093D9062093D80676CCF5
:102F900024E030E03093D6062093D50616CF20E00B
:102FA00030E040E05FE36091C0067091C10680911F
:102FB000C2069091C306FECE1092460210924502C0
:102FC0005FCF0E94D50E6BCF0E94D50E7FCF809130
:102FD000250290912602039711F00E94C40D0E94D1
:102FE000EF020091D9081091DA082091DB083091A6
:102FF000DC08601B710B820B930B00912102109176
:103000002202209123023091240206171707280775
:10301000390708F033CC8091D5069091D6060497F5
:1030200081F486E390E00E946D0C809133029091D0
:103030003402019719F588E390E00E946D0C0E941C
:10304000C50B8091D5069091D606069781F487E34B
:1030500090E00E946D0C80913302909134020197B0
:1030600081F489E390E00E946D0C0E94A30B84E040
:1030700090E09093D9068093D80600CC89E390E045
:10308000DCCF88E390E0EFCF80912502909126027B
:103090000497F1F10E94C40D80914502909146027F
:1030A000019759F580907B0290907C02A0907D0260
:1030B000B0907E0240907F0250908002609081022A
:1030C00070908202481459046A047B0474F48418D2
:1030D0009508A608B7080E947821A50194010E94CE
:1030E000E925460E571E681E791E4092E30650924F
:1030F000E4066092E5067092E60620912502309182
:1031000026028091D8069091D9062817390761F5D3
:103110008091450290914602019731F50E94EF029D
:103120000091D9081091DA082091DB083091DC0871
:10313000601B710B820B930B0091E3061091E40668
:103140002091E5063091E60606171707280739078C
:1031500058F425E030E03093D9062093D80683E276
:1031600090E00E946D0C8ACB8091E806882309F4D8
:1031700077C00E94EF020091D5081091D6082091E7
:10318000D7083091D808601B710B820B930B00910C
:10319000350210913602209137023091380206171D
:1031A00017072807390708F05BC088E290E00E9403
:1031B0006D0C8091ED068823C1F08AE290E00E94B8
:1031C0006D0C80911F029091200201969093200235
:1031D00080931F028091330290913402019709F08D
:1031E0006CC08DE290E00E946D0C8091EA0688230D
:1031F000C1F08BE290E00E946D0C80911D029091D5
:103200001E02019690931E0280931D02809133024C
:1032100090913402019709F053C08CE290E00E9433
:103220006D0C1091ED06112321F090E080E00E94DA
:103230001A0B0091EA06002321F081E090E00E9441
:103240001A0B90E080E00E94D20A8091D5069091FE
:10325000D60684309105B9F5111139C0011160C04D
:103260000E94EF020091D9081091DA082091DB0842
:103270003091DC08601B710B820B930B009157029D
:10328000109158022091590230915A0206171707DF
:103290002807390708F0F2CA89E190E00E946D0C16
:1032A00088E190E00E946D0C81E090E00E94D20ADB
:1032B0000E943D0D86E090E0DCCE8CE290E093CF62
:1032C0008DE290E0ACCF069759F6002331F18BE107
:1032D00090E00E946D0C87E190E00E946D0C80915F
:1032E000D3069091D40601969093D4068093D3068A
:1032F0008091D5069091D6068430910539F41092CC
:10330000D2061092D10685E090E0B3CE0697D9F7A9
:103310001092D0061092CF06F6CF112309F4A0CF59
:103320008AE190E00E946D0C88E190E00E946D0CB3
:103330000E943D0D8091D5069091D606843091056E
:10334000D1F48091D1069091D20601969093D20645
:103350008093D1061092D0061092CF061092D40618
:103360001092D30680914F0290915002892B99F4CC
:1033700026E030E008CE069789F78091CF0690913D
:10338000D00601969093D0068093CF061092D20675
:103390001092D106E3CF64E670E080E090E00E94F6
:1033A000BD025ECF8091250290912602059791F093
:1033B0000E94C40D8091D5069091D606049729F5F8
:1033C0008FE190E00E946D0CD092F406D092EC0652
:1033D0001092E9068091D5069091D6068430910529
:1033E000F9F48091ED06882301F184E290E00E94D7
:1033F0006D0C8091450290914602019709F0B8CF7B
:1034000090E080E00E94D20AB3CF80E290E00E9478
:103410006D0CD092F206D092E9061092EC06DACF4B
:10342000069719F48091EA06DECF0E94EF02009120
:10343000D9081091DA082091DB083091DC08601B74
:10344000710B820B930B0091530210915402209147
:10345000550230915602061717072807390708F05A
:103460000DCA87E290E00E946D0C80914502909118
:103470004602019721F481E090E00E94D20A8091F7
:10348000D5069091D606049721F48DE291E00E9432
:103490006D0C8091D5069091D606069709F068CFFD
:1034A0008EE291E00E946D0C63CF80912502909195
:1034B0002602079711F00E94C40D0E94EF020091AE
:1034C000D9081091DA082091DB083091DC08601BE4
:1034D000710B820B930B00915B0210915C022091A7
:1034E0005D0230915E02061717072807390708F4B6
:1034F0003FCFC4C98091250290912602069709F416
:1035000043C00E94C40D80905F0290906002A09022
:103510006102B09062024090630250906402609039
:10352000650270906602481459046A047B0474F4BE
:1035300084189508A608B7080E947821A50194016F
:103540000E94E925460E571E681E791E4092CB0642
:103550005092CC066092CD067092CE060E947821E1
:1035600028EE33E040E050E00E94E92568517C4FAE
:103570008F4F9F4F6093C7067093C8068093C9060C
:103580009093CA061092C606209125023091260219
:103590008091D8069091D9062817390749F580906F
:1035A000D9089090DA08A090DB08B090DC080E945F
:1035B000EF02681979098A099B090091C7061091E1
:1035C000C8062091C9063091CA06061717072807B2
:1035D000390770F48091C60681110AC080915102AA
:1035E00090915202892B11F00E94A30CD092C60632
:1035F0000E94EF020091D9081091DA082091DB08AF
:103600003091DC08601B710B820B930B0091CB0691
:103610001091CC062091CD063091CE0606171707E3
:103620002807390708F02AC921E030E0ACCC8093A4
:10363000EF0616CB10821092F0061092EF06D09291
:10364000FD070ECB8C3309F00BCBD092F00608CBE4
:10365000222309F4FBC58DEF96E09F938F9387E8B3
:1036600093E09F938F931F9280E88F938DE797E06D
:103670009F938F930E9487278DE797E00E945F0CAE
:10368000EDEFF6E08DB79EB708960FB6F8949EBFA3
:103690000FBE8DBF10E000E08191882339F00F5FED
:1036A0001F4F00381105C1F710E000E044E050E082
:1036B0006DEF76E0CE0101960E94FE226EE973E086
:1036C000CE0101960E947E27892B09F07CC2ADB6FF
:1036D000BEB6A801435051092DB73EB7241B350B88
:1036E0000FB6F8943EBF0FBE2DBF8DB79EB70196A3
:1036F0007C0161E077E00E94FE2262EA73E0C7018C
:103700000E947E27892B61F440918B0250918C029C
:1037100060918D0270918E0282EA93E00E94710E98
:103720006BEA73E0C7010E947E27892B61F4409108
:103730008702509188026091890270918A028BEA17
:1037400093E00E94710E69EF73E0C7010E947E272B
:10375000892B61F44091830250918402609185022B
:103760007091860289EF93E00E94710E65EB73E021
:10377000C7010E947E27892B61F440917F025091FE
:103780008002609181027091820285EB93E00E9439
:10379000710E61ED73E0C7010E947E27892B61F4F1
:1037A00040917B0250917C0260917D0270917E027B
:1037B00081ED93E00E94710E6DEE73E0C7010E94EF
:1037C0007E27892B61F440917702509178026091B5
:1037D000790270917A028DEE93E00E94710E62E0A0
:1037E00074E0C7010E947E27892B61F44091730227
:1037F00050917402609175027091760282E094E0BB
:103800000E94710E63E174E0C7010E947E27892B3C
:1038100061F440916F025091700260917102709159
:10382000720283E194E00E94710E62E274E0C701CB
:103830000E947E27892B61F440916B0250916C02AB
:1038400060916D0270916E0282E294E00E94710EAE
:1038500060E374E0C7010E947E27892B41F46091E8
:10386000690270916A0280E394E00E94A70E68E307
:1038700074E0C7010E947E27892B41F460916702A2
:103880007091680288E394E00E94A70E67E474E0F8
:10389000C7010E947E27892B61F4409163025091F9
:1038A0006402609165027091660287E494E00E9470
:1038B000710E63E574E0C7010E947E27892B61F4D5
:1038C00040915F02509160026091610270916202CA
:1038D00083E594E00E94710E6FE574E0C7010E94D9
:1038E0007E27892B61F440915B0250915C026091CC
:1038F0005D0270915E028FE594E00E94710E6BE6AE
:1039000074E0C7010E947E27892B61F44091570221
:10391000509158026091590270915A028BE694E0DE
:103920000E94710E66E774E0C7010E947E27892B12
:1039300061F440915302509154026091550270918C
:10394000560286E794E00E94710E6BE874E0C701AE
:103950000E947E27892B41F46091FB067091FC0642
:103960008BE894E00E94A70E6CE974E0C7010E9406
:103970007E27892B41F460915102709152028CE9AB
:1039800094E00E94A70E68EA74E0C7010E947E27B7
:10399000892B41F460914F027091500288EA94E0C3
:1039A0000E94A70E67EB74E0C7010E947E27892B57
:1039B00041F46091F9067091FA0687EB94E00E9459
:1039C000A70E66EC74E0C7010E947E27892B41F4A4
:1039D00060914D0270914E0286EC94E00E94A70E19
:1039E00067ED74E0C7010E947E27892B41F4609146
:1039F0004B0270914C0287ED94E00E94A70E67EE97
:103A000074E0C7010E947E27892B41F4609149022E
:103A100070914A0287EE94E00E94A70E66EF74E070
:103A2000C7010E947E27892B41F460914702709163
:103A3000480286EF94E00E94A70E69E673E0C70192
:103A40000E947E27892B41F46091450270914602C5
:103A500089E693E00E94A70E66E075E0C7010E9428
:103A60007E27892B41F4609143027091440286E0E5
:103A700095E00E94A70E60E275E0C7010E947E27D4
:103A8000892B61F440913F025091400260914102C4
:103A90007091420280E295E00E942A0F61E375E096
:103AA000C7010E947E27892B41F460913D027091ED
:103AB0003E0281E395E00E94A70E61E475E0C70134
:103AC0000E947E27892B61F44091F5065091F606FD
:103AD0006091F7067091F80681E495E00E942A0F44
:103AE00060E575E0C7010E947E27892B61F4409153
:103AF000390250913A0260913B0270913C0280E59C
:103B000095E00E94710E60E675E0C7010E947E2775
:103B1000892B61F440913502509136026091370251
:103B20007091380280E695E00E94710E6EE675E0B5
:103B3000C7010E947E27892B41F460913302709166
:103B400034028EE695E00E94A70E69E775E0C70192
:103B50000E947E27892B61F440912F025091300200
:103B6000609131027091320289E795E00E94710EF6
:103B70006AE875E0C7010E947E27892B61F44091B5
:103B80002B0250912C0260912D0270912E028AE836
:103B900095E00E942A0F6BE975E0C7010E947E271D
:103BA000892B61F4409127025091280260912902EB
:103BB00070912A028BE995E00E942A0F0FB6F894C3
:103BC000BEBE0FBEADBE6DEA75E0CE0101960E948D
:103BD0007E27892B09F0E2C22DB73EB738872F83A5
:103BE000C80103979E838D83281B390B0FB6F89469
:103BF0003EBF0FBE2DBF8DB79EB701965C014D81B4
:103C00005E8161E077E00E94FE22F501712C612C5B
:103C10002191C3010196203239F03C0190E86916E8
:103C20007104B1F7712C612C43012FEF821A920AB3
:103C30008DB79EB7881999090FB6F8949EBF0FBE2D
:103C40008DBF2DB73EB72F5F3F4F7901A401B5015E
:103C5000C9010E94FE22A801425051094619570984
:103C60008DB79EB7841B950B0FB6F8949EBF0FBE01
:103C70008DBF0DB71EB70F5F1F4FB501680D791DC2
:103C8000C8010E94FE2262EA73E0C7010E947E27FB
:103C9000892B79F44AE050E070E060E0C8010E94AE
:103CA000D02160938B0270938C0280938D0290934D
:103CB0008E026BEA73E0C7010E947E27892B79F49C
:103CC0004AE050E070E060E0C8010E94D0216093BB
:103CD0008702709388028093890290938A0269EF29
:103CE00073E0C7010E947E27892B79F44AE050E0F7
:103CF00070E060E0C8010E94D0216093830270935D
:103D00008402809385029093860265EB73E0C7017D
:103D10000E947E27892B79F44AE050E070E060E051
:103D2000C8010E94D02160937F027093800280932B
:103D300081029093820261ED73E0C7010E947E27A9
:103D4000892B79F44AE050E070E060E0C8010E94FD
:103D5000D02160937B0270937C0280937D029093CC
:103D60007E026DEE73E0C7010E947E27892B79F4F5
:103D70004AE050E070E060E0C8010E94D02160930A
:103D80007702709378028093790290937A0262E0CE
:103D900074E0C7010E947E27892B79F44AE050E045
:103DA00070E060E0C8010E94D021609373027093BC
:103DB0007402809375029093760263E174E0C70108
:103DC0000E947E27892B79F44AE050E070E060E0A1
:103DD000C8010E94D02160936F027093700280939B
:103DE00071029093720262E274E0C7010E947E2722
:103DF000892B79F44AE050E070E060E0C8010E944D
:103E0000D02160936B0270936C0280936D0290934B
:103E10006E0260E374E0C7010E947E27892B39F4AB
:103E2000C8010E94D72290936A028093690268E3D6
:103E300074E0C7010E947E27892B39F4C8010E94D3
:103E4000D722909368028093670267E474E0C70109
:103E50000E947E27892B79F44AE050E070E060E010
:103E6000C8010E94D0216093630270936402809322
:103E700065029093660263E574E0C7010E947E27A5
:103E8000892B79F44AE050E070E060E0C8010E94BC
:103E9000D02160935F0270936002809361029093DF
:103EA00062026FE574E0C7010E947E27892B79F4D6
:103EB0004AE050E070E060E0C8010E94D0216093C9
:103EC0005B0270935C0280935D0290935E026BE6EE
:103ED00074E0C7010E947E27892B79F44AE050E004
:103EE00070E060E0C8010E94D02160935702709397
:103EF00058028093590290935A0266E774E0C70112
:103F00000E947E27892B79F44AE050E070E060E05F
:103F1000C8010E94D0216093530270935402809391
:103F20005502909356026BE874E0C7010E947E2709
:103F3000892B39F4C8010E94D7229093FC06809304
:103F4000FB066CE974E0C7010E947E27892B39F4D7
:103F5000C8010E94D722909352028093510268EACE
:103F600074E0C7010E947E27892B39F4C8010E94A2
:103F7000D7229093500280934F0267EB74E0C70101
:103F80000E947E27892B39F4C8010E94D722909382
:103F9000FA068093F90666EC74E0C7010E947E275A
:103FA000892B39F4C8010E94D72290934E02809346
:103FB0004D0267ED74E0C7010E947E27892B39F41A
:103FC000C8010E94D72290934C0280934B0267EE67
:103FD00074E0C7010E947E27892B39F4C8010E9432
:103FE000D72290934A028093490266EF74E0C7019A
:103FF0000E947E27892B39F4C8010E94D722909312
:1040000048028093470269E673E0C7010E947E2759
:10401000892B39F4C8010E94D722909346028093DD
:10402000450266E075E0C7010E947E27892B39F4BE
:10403000C8010E94D722909344028093430260E219
:1040400075E0C7010E947E27892B59F4C8010E94A0
:10405000D32260933F027093400280934102909379
:10406000420261E375E0C7010E947E27892B39F483
:10407000C8010E94D72290933E0280933D0261E4E2
:1040800075E0C7010E947E27892B59F4C8010E9460
:10409000D3226093F5067093F6068093F70690930B
:1040A000F80660E575E0C7010E947E27892B79F448
:1040B0004AE050E070E060E0C8010E94D0216093C7
:1040C000390270933A0280933B0290933C0260E67F
:1040D00075E0C7010E947E27892B79F44AE050E001
:1040E00070E060E0C8010E94D021609335027093B7
:1040F000360280933702909338026EE675E0C7016E
:104100000E947E27892B39F4C8010E94D722909300
:1041100034028093330269E775E0C7010E947E276D
:10412000892B79F44AE050E070E060E0C8010E9419
:10413000D02160932F0270933002809331029093CC
:1041400032026AE875E0C7010E947E27892B59F484
:10415000C8010E94D32260932B0270932C0280939B
:104160002D0290932E026BE975E0C7010E947E2715
:10417000892B59F4C8010E94D322609327027093BF
:1041800028028093290290932A022F8138850FB646
:10419000F8943EBF0FBE2DBF0D811E8161EB75E00F
:1041A000CE0101960E947E27892B09F04DC0EDB605
:1041B000FEB6A801435051098DB79EB7841B950BDD
:1041C0000FB6F8949EBF0FBE8DBF2DB73EB72F5FC1
:1041D0003F4F590161E077E0C9010E94FE2265EB83
:1041E00075E0C5010E947E27892B31F4D092FE072D
:1041F00089EB95E00E945F0C6EEC75E0C5010E94B2
:104200007E27892B31F41092FE0783ED95E00E9402
:104210005F0C6AE373E0C5010E947E27892B21F4BD
:10422000D092F406D092F30669E975E0C5010E94C8
:104230007E27892B21F4D092F206D092F1060FB698
:10424000F894FEBE0FBEEDBE1092FD070E94620BF9
:104250000E9411050C94D7138F929F92AF92BF9238
:10426000CF92DF92EF92FF92CF93DF93EC016881C0
:1042700079818A819B81611571058105910521F400
:1042800064E279ED8BE597E02DE133EF41E050E01A
:104290000E94E92549015A019B01AC01A7EAB1E45A
:1042A0000E9408266B017C01ACEEB4EFA5019401DD
:1042B0000E941626C60ED71EE81EF91EF7FE06C07F
:1042C00081E0C81AD108E10880E8F80AC882D982DA
:1042D000EA82FB82C701B6019F77DF91CF91FF9001
:1042E000EF90DF90CF90BF90AF909F908F90089508
:1042F0008F929F92AF92BF92CF92DF92EF92FF92F6
:1043000060918F027091900280919102909192023F
:10431000611571058105910521F464E279ED8BE564
:1043200097E02DE133EF41E050E00E94E92549019B
:104330005A019B01AC01A7EAB1E40E9408266B0177
:104340007C01ACEEB4EFA50194010E941626C60EC6
:10435000D71EE81EF91EF7FE06C081E0C81AD10874
:10436000E10880E8F80AC0928F02D0929002E092B1
:104370009102F0929202C701B6019F77FF90EF90F1
:10438000DF90CF90BF90AF909F908F9008956093F3
:104390008F027093900280939102909392020895FD
:1043A0003F924F925F926F927F928F929F92AF92C5
:1043B000BF92CF92DF92EF92FF920F931F93CF9312
:1043C000DF935C016B017A016115710519F0FB0146
:1043D00091838083E114F10449F0C7010297839728
:1043E00028F060E070E0CB019BC05E01E501219602
:1043F000F5011081812F90E00E94F522892BA9F709
:104400001D3209F05CC02196F501118101E0E11433
:10441000F10409F4BBC0F0E1EF16F10409F09BC010
:10442000103341F488818F7D883509F08FC0198160
:1044300022960260E0E1EE2EF12C88248A94982CDA
:10444000A82CFFE0BF2E20E060E070E0CB01270148
:104450000F2C000C66087708FE0150ED352E310E4A
:1044600039E0331568F43FEB310F49EC342E3A3123
:1044700030F03FE9310F3A31B0F539EA332E310EE1
:104480003E141F0484F52F3FB9F086169706A80640
:10449000B90638F1A30192010E94B725232D30E01F
:1044A00050E040E0620F731F841F951F621773076F
:1044B00084079507B0F021E021961081CDCF1B3203
:1044C00021F4E5012296F501118100E0A0CF78E00A
:1044D000E72EF12C88248A94982CA82C6FE1B62E14
:1044E000B2CF2FEFE9CFC114D10431F0222351F123
:1044F0002197F601D183C08300FF07C09095809576
:10450000709561957F4F8F4F9F4F2F3F49F482E207
:1045100090E09093EB088093EA086FEF7FEFCB0178
:10452000DF91CF911F910F91FF90EF90DF90CF908F
:10453000BF90AF909F908F907F906F905F904F90C3
:104540003F90089501FFD8CF2297D3CF10E3E11415
:10455000F10409F4BCCF3AE0E316F104E9F080E19C
:10456000E816F10409F466CFE8E0EE16F10409F468
:10457000B1CF6FEF7FEFCB0197010F2C000C440BF5
:10458000550B0E94C72549015A015DCF103309F42C
:1045900049CF9AE0E92EF12C89E9882E982CA82C95
:1045A00089E1B82E50CF662777270C941A23FC0197
:1045B00088279927E89421912032E9F3293010F0D7
:1045C0002E30C8F32B3241F02D3239F4689404C0F8
:1045D0000E941223820F911D219120532A30C0F393
:1045E0001EF4909581959F4F089591110C94782415
:1045F000803219F089508550C8F70895DC01FB011D
:104600004150504058F049F001900D920020C1F700
:10461000E61BF70B3197CF0108951C920190002003
:10462000E9F7F6CF7AE0979F902D879F802D910D27
:10463000112408958F929F92AF92BF92CF92DF92F2
:10464000EF92FF920F931F93CF93DF935C017B0157
:104650006115710519F0DB018D939C9385010F5F46
:104660001F4FF501D0818D2F90E00E94F5226C0143
:10467000892BB9F5DD32B9F50F5F1F4FD5011196C2
:10468000DC91C1E05801F1E0AF1AB10843E050E01D
:1046900064E971E0C5010E947B24892B69F56801FA
:1046A00082E0C80ED11C45E050E06FE871E0C60121
:1046B0000E947B24892B21F4680197E0C90ED11C4C
:1046C000E114F10419F0D701CD92DC9260E070E0C2
:1046D00080E89FEFC111FFC060E070E080E89FE7D5
:1046E000FAC05801BBCFDB3229F485010E5F1F4FA2
:1046F000F501D181C0E0C6CF43E050E06CE871E045
:10470000C5010E947B24892BE9F0F80110E000E04C
:1047100020E030E0A9015F01B0ED8B2E8D0E89E025
:104720008815C8F19C2E689491F88C2F8870C2FF70
:1047300016C0811102C00F5F1F4F3196D501DC9169
:10474000C92DE9CFE114F10429F00E5F1F4FF701E5
:104750001183008360E070E080EC9FE7BCC0882399
:1047600011F001501109A5E0B0E00E9408269B015C
:10477000AC01220F331F441F551F280D311D411D51
:10478000511D283999E93907490799E15907A8F2D4
:10479000C6609C2ED2CFAEEF8A1206C0C3FD3CC0CD
:1047A0009C2E689493F8C9CFDF7DD534A9F580811C
:1047B0008D3239F4C061DF011296818162E070E0D0
:1047C00006C0DF018B32C1F3119661E070E08053C7
:1047D0005D01A61AB70A8A30F8F4E0E8CE16ECE0DC
:1047E000DE065CF4B601660F771F660F771FC60EF4
:1047F000D71ECC0CDD1CC80ED11C5D01FFEFAF1A1B
:10480000BF0A8C9180538A30A8F1C4FF03C0D194B1
:10481000C194D1080C0D1D1DC1FF09C0E114F104A4
:1048200031F081E0A81AB108D701AD92BC92CA015B
:10483000B9010E949824C370C33009F490584B0109
:104840005C0120E030E0A9010E949324882309F450
:1048500040C0C3ECD1E017FF05C0119501951109C7
:10486000CBEAD1E06E01B8E1CB1AD10880E2E82EA4
:10487000F12C0FC0D501B1CFFE01259135914591A5
:1048800054910E191F09C501B4010E94F9244B016E
:104890005C01D501C4010E151F0574F72497F5942A
:1048A000E794CC16DD06A9F78A2F880F8B2F881F77
:1048B0008F3F49F020E030E0A901C501B4010E941A
:1048C0009324811106C082E290E09093EB088093DC
:1048D000EA08C501B401DF91CF911F910F91FF90BC
:1048E000EF90DF90CF90BF90AF909F908F90089502
:1048F000992788270895FB01DC014150504088F03A
:104900008D9181341CF08B350CF4805E659161349F
:104910001CF06B350CF4605E861B611171F3990B12
:104920000895881BFCCF0E94D52408F481E00895E7
:10493000E89409C097FB3EF4909580957095619539
:104940007F4F8F4F9F4F9923A9F0F92F96E9BB27EF
:104950009395F695879577956795B795F111F8CF6B
:10496000FAF4BB0F11F460FF1BC06F5F7F4F8F4FD6
:104970009F4F16C0882311F096E911C0772321F0CC
:104980009EE8872F762F05C0662371F096E8862F64
:1049900070E060E02AF09A95660F771F881FDAF7BB
:1049A000880F9695879597F90895990F0008550FE8
:1049B000AA0BE0E8FEEF16161706E807F907C0F0A5
:1049C00012161306E407F50798F0621B730B840BAD
:1049D000950B39F40A2661F0232B242B252B21F487
:1049E00008950A2609F4A140A6958FEF811D811D27
:1049F00008950E940C250C947D250E946F2538F0A7
:104A00000E94762520F0952311F00C9466250C94D5
:104A10006C2511240C94B1250E948E2570F3959F6E
:104A2000C1F3950F50E0551F629FF001729FBB27A5
:104A3000F00DB11D639FAA27F00DB11DAA1F649F41
:104A40006627B00DA11D661F829F2227B00DA11DF4
:104A5000621F739FB00DA11D621F839FA00D611D7A
:104A6000221F749F3327A00D611D231F849F600D9B
:104A7000211D822F762F6A2F11249F5750409AF0C4
:104A8000F1F088234AF0EE0FFF1FBB1F661F771F50
:104A9000881F91505040A9F79E3F510580F00C941B
:104AA00066250C94B1255F3FE4F3983ED4F38695D8
:104AB00077956795B795F795E7959F5FC1F7FE2BBB
:104AC000880F911D9695879597F9089597F99F6797
:104AD00080E870E060E008959FEF80EC0895002486
:104AE0000A941616170618060906089500240A9453
:104AF00012161306140605060895092E0394000CD9
:104B000011F4882352F0BB0F40F4BF2B11F460FF67
:104B100004C06F5F7F4F8F4F9F4F089557FD905890
:104B2000440F551F59F05F3F71F04795880F97FB71
:104B3000991F61F09F3F79F087950895121613062B
:104B40001406551FF2CF4695F1DF08C0161617065A
:104B50001806991FF1CF869571056105089408958F
:104B6000E894BB2766277727CB0197F90895DB01E7
:104B70008F939F930E940826BF91AF91A29F800DB3
:104B8000911DA39F900DB29F900D11240895A1E255
:104B90001A2EAA1BBB1BFD010DC0AA1FBB1FEE1FB7
:104BA000FF1FA217B307E407F50720F0A21BB30B02
:104BB000E40BF50B661F771F881F991F1A9469F77E
:104BC00060957095809590959B01AC01BD01CF01DA
:104BD0000895052E97FB1EF400940E94002657FDB1
:104BE00007D00E94C72507FC03D04EF40C94002682
:104BF00050954095309521953F4F4F4F5F4F089509
:104C000090958095709561957F4F8F4F9F4F089538
:104C10000E941B26A59F900DB49F900DA49F800D10
:104C2000911D11240895B7FF0C9408260E940826B0
:104C3000821B930B0895A29FB001B39FC001A39F55
:104C4000700D811D1124911DB29F700D811D1124C5
:104C5000911D089597FB072E16F4009407D077FD59
:104C600009D00E944D2607FC05D03EF49095819511
:104C70009F4F0895709561957F4F0895EE0FFF1F28
:104C8000881F8BBF0790F691E02D19940E941B2678
:104C9000B7FF0895821B930B0895AA1BBB1B51E11C
:104CA00007C0AA1FBB1FA617B70710F0A61BB70B9C
:104CB000881F991F5A95A9F780959095BC01CD0141
:104CC00008955058BB27AA270E9479260C947D2569
:104CD0000E946F2538F00E94762520F039F49F3F1E
:104CE00019F426F40C946C250EF4E095E7FB0C9473
:104CF0006625E92F0E948E2558F3BA1762077307BD
:104D00008407950720F079F4A6F50C94B0250EF4ED
:104D1000E0950B2EBA2FA02D0B01B90190010C01CB
:104D2000CA01A0011124FF27591B99F0593F50F4E3
:104D3000503E68F11A16F040A22F232F342F44273B
:104D4000585FF3CF469537952795A795F040539533
:104D5000C9F77EF41F16BA0B620B730B840BBAF003
:104D60009150A1F0FF0FBB1F661F771F881FC2F76E
:104D70000EC0BA0F621F731F841F48F48795779582
:104D80006795B795F7959E3F08F0B0CF9395880F3C
:104D900008F09927EE0F9795879508950E94E226CF
:104DA0000C947D250E94762558F00E946F2540F0D6
:104DB00029F45F3F29F00C94662551110C94B1251C
:104DC0000C946C250E948E2568F39923B1F355232A
:104DD00091F3951B550BBB27AA276217730784070E
:104DE00038F09F5F5F4F220F331F441FAA1FA9F3A4
:104DF00035D00E2E3AF0E0E832D091505040E69592
:104E0000001CCAF72BD0FE2F29D0660F771F881FF2
:104E1000BB1F261737074807AB07B0E809F0BB0BE5
:104E2000802DBF01FF2793585F4F3AF09E3F5105F9
:104E300078F00C9466250C94B1255F3FE4F3983E1E
:104E4000D4F3869577956795B795F7959F5FC9F7E2
:104E5000880F911D9695879597F90895E1E0660F63
:104E6000771F881FBB1F621773078407BA0720F0DC
:104E7000621B730B840BBA0BEE1F88F7E095089545
:104E80000E94962588F09F5798F0B92F9927B7511F
:104E9000B0F0E1F0660F771F881F991F1AF0BA95DE
:104EA000C9F714C0B13091F00E94B025B1E0089567
:104EB0000C94B025672F782F8827B85F39F0B93F59
:104EC000CCF3869577956795B395D9F73EF4909591
:104ED0008095709561957F4F8F4F9F4F08950E94E9
:104EE000D52408F48FEF08950E94D524880B990BE0
:104EF000089581E090E0F8940C946A2AFB01DC01AB
:104F00008D91019080190110D9F3990B08950F9399
:104F10001F93CF93DF93CDB7DEB72E970FB6F894DC
:104F2000DEBF0FBECDBF0E891F89888D998D26E00B
:104F30002C831A83098397FF02C080E090E80197D1
:104F40009E838D83AE01445E5F4F6A8D7B8DCE0163
:104F500001960E94C4274D815E8157FD0AC02F81B2
:104F60003885421753070CF49A01020F131FF801FA
:104F700010822E960FB6F894DEBF0FBECDBFDF9124
:104F8000CF911F910F9108952F923F924F925F9270
:104F90006F927F928F929F92AF92BF92CF92DF9249
:104FA000EF92FF920F931F93CF93DF9300D000D027
:104FB00000D01F921F92CDB7DEB77C013B018A0162
:104FC000FC0117821682838181FFDDC1CE0101962B
:104FD0005C01F7019381F30193FD859193FF81912A
:104FE0003F01882309F453C1853239F493FD85913B
:104FF00093FF81913F01853229F4B70190E00E942F
:10500000DC29E7CF912C212C312CFFE1F31538F06E
:105010008B3211F190F4803209F1833229F137FC9F
:105020003CC020ED280F2A3050F536FE20C08AE023
:10503000989E200D1124922E06C08D3291F080335F
:1050400071F7689430F8F30193FD859193FF819196
:105050003F018111DACF21C0689431F8689432F8A9
:10506000F2CF689433F8EFCF689434F8ECCFEAE0ED
:105070002E9E200D1124222E689435F8E4CF8E3216
:1050800029F436FC04C1689436F8DDCF8C3619F467
:10509000689437F8D8CF8836B1F2982F9F7D955411
:1050A0009330E0F08336A1F18337C1F1833509F005
:1050B00063C02801F2E04F0E511CF801C080D1807E
:1050C000692D70E036FC02C06FEF7FEFC6010E94D1
:1050D000C6294C01689437F882010AC00C5F1F4F43
:1050E000FFE3F98388248394912C6501E89437F8D1
:1050F00033FE2DC0522C8114910471F5552009F412
:1051000068CFB70180E290E00E94DC295A94F6CF84
:10511000F801808189830E5F1F4FE4CF2801F2E000
:105120004F0E511CF801C080D180692D70E036FC13
:1051300002C06FEF7FEFC6010E94D1294C018201AE
:10514000D5CFB70180E290E00E94DC292A94281490
:10515000190409F0B0F7CECFF60137FC859137FE80
:1051600081916F01B70190E00E94DC2951105A949F
:10517000F1E08F1A9108BFCF843619F0893609F013
:1051800077C0F80137FE6BC06081718182819381A5
:105190000C5F1F4FF32DFF763F2E97FF09C09095B0
:1051A0008095709561957F4F8F4F9F4F689437F82A
:1051B0002AE030E0A5010E940C2AC82ECA188C2CC7
:1051C000432C36FE0CC0E89440F8C91440F434FE79
:1051D00005C032FC03C0F32DFE7E4F2E892C44FE09
:1051E000AAC0FE01EC0DF11D8081803309F09CC046
:1051F000242D297E422E842D8870582E43FCAAC06F
:1052000040FEA4C09C2C821418F42C0C922C9818EC
:1052100044FEA6C0B70180E390E00E94DC2942FE74
:1052200009C088E790E041FE02C088E590E0B70140
:105230000E94DC29C91408F49FC0CA94D12C9FEFA6
:10524000C91AD90ACA0CDB1CF60182916F01B70199
:1052500090E00E94DC29AC14BD04B1F74FCF60810F
:105260007181072E000C880B990B0E5F1F4F92CF98
:10527000D32CE894D4F82AE030E08537E1F1232DEF
:10528000297FD22E8F36A9F1F0F4883551F1F7013C
:10529000868197812B960FB6F894DEBF0FBECDBFE7
:1052A000DF91CF911F910F91FF90EF90DF90CF9002
:1052B000BF90AF909F908F907F906F905F904F9036
:1052C0003F902F900895803749F0883701F7D4FE3A
:1052D00002C06894D2F820E130E00DC06894D4F8A0
:1052E000F6CF34FE03C0822F8660D82E20E132E054
:1052F00002C028E030E0F801D7FE0FC06081718164
:10530000828193810C5F1F4FA5010E940C2AC82E39
:10531000CA183D2CE89437F852CF6081718190E033
:1053200080E00E5F1F4FF0CF42FC02C0839463CF3A
:105330008394839460CF842D867809F45CCFF6CF74
:10534000B70180E290E00E94DC2983948214C0F3CC
:10535000512C5ECF522C5818821408F459CFF8CF34
:10536000842D867809F466CF8BE241FE80E247FC0B
:105370008DE2B70190E05CCFB70180E390E00E943E
:10538000DC299A9457CF8FEF9FEF84CFFC010590D3
:10539000615070400110D8F7809590958E0F9F1F37
:1053A0000895FC016150704001900110D8F780957C
:1053B00090958E0F9F1F08950F931F93CF93DF93A8
:1053C000182F092FEB018B8181FD09C01FEF0FEF13
:1053D000812F902FDF91CF911F910F91089582FF20
:1053E00014C02E813F818C819D81281739073CF4A0
:1053F000E881F981CF0101969983888310838E819A
:105400009F8101969F838E83E3CFE885F985812F65
:105410001995892BA1F3DACFFA01AA27283051F187
:10542000203181F1E8946F936E7F6E5F7F4F8F4FD5
:105430009F4FAF4FB1E03ED0B4E03CD0670F781F34
:10544000891F9A1FA11D680F791F8A1F911DA11D19
:105450006A0F711D811D911DA11D20D009F4689452
:105460003F912AE0269F11243019305D3193DEF6FA
:10547000CF010895462F4770405D4193B3E00FD0B0
:10548000C9F7F6CF462F4F70405D4A3318F0495D9B
:1054900031FD4052419302D0A9F7EACFB4E0A6957E
:1054A0009795879577956795BA95C9F700976105A0
:1054B000710508959B01AC010A2E069457954795F6
:1054C00037952795BA95C9F7620F731F841F951FEB
:0854D000A01D0895F894FFCF20
:1054D800CEFAEDFE0000010000000100000001000E
:1054E8000000010000000100010000003F01000170
:1054F80000DC050000FFFF1F85EB3D643BDF3D043A
:10550800000000010014000000E80300000A003356
:1055180033333F01000100010002000300010001D4
:1055280000010088130000B80B000070170000ECA1
:105538002C0000342100006400B4002C0100003C61
:105548000000008200000005000000DC050000FAF1
:10555800000000C8000000E02E000032000000013A
:1055680000000000000000280F280F280FE70B0795
:105578000C0B0C000000008F0A4B0A450AE70B07CA
:105588000C0B04D40700000000A4040E043B04F133
:10559800046C044A045E040D0A00257509256C751F
:1055A800003C56415220257320256C7520256C75CA
:1055B8003E003C56415220257320256920256C75F4
:1055C8003E003C56415220257320006E616E0069F2
:1055D8006E66006F7666003C41726475696E6F2076
:1055E800697320726561647920746F2072656365E0
:1055F80069766520636F6D6D616E64733E007472C9
:1056080069616C5F636F756E746572007468697345
:105618005F696E74657276616C00636F7272656340
:10562800745F7369646500696E5F636F72725F6C43
:105638006F6F700062696173006175746F64656C87
:10564800697665725F72657761726473006D6973FC
:10565800735F66726163003C41726475696E6F20A6
:1056680072656365697665643A2025733E0047452F
:105678005400746F6E655F64757200746F6E655F59
:1056880066726571006B616D696E5F626C6F636BEA
:105698005F70726F746563745F6475725F6D696E55
:1056A800006B616D696E5F626C6F636B5F70726FC8
:1056B800746563745F6475725F6D61780074726994
:1056C800616C5F656E7472795F62757A7A5F647512
:1056D800720062757A7A5F63656E7465725F66726E
:1056E80065710062757A7A5F686967685F66726576
:1056F800710062757A7A5F6C6F775F6672657100A8
:105708006C65645F687376006C65645F6272696774
:1057180068746E657373004954495F6475725F6D90
:10572800696E004954495F6475725F6D61780074F1
:10573800696D656F75745F6475720063686F69631E
:10574800655F647572007265776172645F61766126
:10575800696C61626C655F6475720070726573650F
:105768006E745F696E69745F637565004C45445F6C
:10577800656E61626C656400616C6C6F775F6D6902
:105788007374616B65730070726F625F62696173D5
:105798005F636F727200636F7272656374696F6EB4
:1057A8005F6C6F6F707300636F72725F6C6F6F7096
:1057B8005F656E74727900636F72725F6C6F6F7081
:1057C8005F6578697400747269616C5F6175746F84
:1057D8007374617274007265776172645F70726568
:1057E800646963746976655F72656163686573008F
:1057F8006D6973735F667261635F746872657368FD
:10580800006E5F7761726D75705F747269616C7339
:1058180000705F74696D696E675F747269616C00AE
:1058280072656163685F626C6F636B5F6475720059
:105838006D696E5F67726173705F647572006C6525
:1058480066745F73686F7274007265776172645F03
:105858006D61676E69747564650076616C76655F05
:10586800756C5F6D735F6C6566740076616C7665E8
:105878005F756C5F6D735F72696768740053455438
:1058880000434D440052554E003C41726475696EA8
:105898006F2069732072756E6E696E673E004841AD
:1058A8004C54003C41726475696E6F2069732068BE
:0858B800616C7465643E0000A0
:00000001FF
