:100000000C94B3010C94E4010C94E4010C94E4010D
:100010000C94E4010C94E4010C94E4010C94E401CC
:100020000C94E4010C94E4010C94E4010C94E401BC
:100030000C94E4010C94E4010C94E4010C94E401AC
:100040000C94E4010C941A160C94E4010C94E40151
:100050000C94E4010C94E4010C94E4010C94C2139C
:100060000C94E4010C9436140C940C140C94E401DC
:100070000C94E4010C94E4010C94E4010C94E4016C
:100080000C94EC150C94E4010C94E4010C94E40140
:100090000C94E4010C94E4010C94E4010C946C14B1
:1000A0000C94E4010C94E4010C94BE150C94E4014E
:1000B0000C94E4010C94E4010C94E4010C9490156C
:1000C0000C94E4010C94E4010C94E4010C94E4011C
:1000D0000C94E4010C94E4010C94E4010C94E4010C
:1000E0000C94E4010C94E0020C94E60C0C94F902DC
:1000F0000C94A50C0C94B1130C9470130C94BF06C3
:100100000C94BD060C94E4020C9415030C941B0390
:100110000C94C8040C940E020C9407030C94AF0CBE
:100120000C94F5020C94BE060C946D0A0C945E0CB3
:100130000C94590C0C946A0B0C94180F0C941F031C
:100140000C94410F0C94870F0C94290F0C944816B3
:100150000C94720A0C94FA010C94E8060C94DC0CD2
:100160000C94D20C0C940D030C9490040C94F50C8C
:100170000C94FF020C94EC020C94D90F0C949F0A7F
:100180000C9415070C9461120C94350F0C94630CAD
:100190000C94F9120C9482040C94890C0C94E601D2
:1001A0000C9403030C947D0E0C9422020C94BE0F4D
:1001B0000C946D0F0C9404020C94DA020C941A0344
:1001C0000C9411030C94CA0F0C94910C0C946D0CAC
:1001D0000C9499110C945F040C94560F0C94EF023C
:1001E0000C94770C0C9423020C942B040C949D1209
:1001F0000C94F00C0C949B0C0C94CE060C942E02D8
:100200000C9480110C94BC060C9415050C946E048F
:100210000C94BE0C0C941B130C94810C0C94E312E4
:100220000C94C80C0C94E8020C94E1060C94F001B8
:100230000C9418020C944D0D0C9432040C945A1129
:100240000C94440700002100240027002A002D0000
:100250003000330001010000040107010A01000021
:100260002200250028002B002E003100340002015E
:100270000000050108010B010000200023002600FA
:1002800029002C002F0032000001000003010601AC
:10029000090105050505070508080808020202020C
:1002A0000A0A080804040404010101010101010112
:1002B0000303030303030303040707070C0C0C0CDD
:1002C0000C0C0C0C020202020606060606060606C6
:1002D0000B0B0B0B0B0B0B0B010210202008081053
:1002E00020401020408002010201080402010102A6
:1002F000040810204080804020100804020180047F
:1003000002018040201008040201080402010102D9
:1003100004081020408001020408102040800000E2
:100320000A0B02090C0D0E0807030401000000006F
:1003300000000000000000000000000000000000BD
:10034000000000000000000000001211100000007A
:10035000000000000000000000000000000000009D
:1003600000000000481611241FBECFEFD1E2DEBF0F
:10037000CDBF00E00CBF12E0A0E0B2E0EEEDFEE386
:1003800000E00BBF02C007900D92AA3CB107D9F75D
:1003900027E0AAECB2E001C01D92AA3CB207E1F747
:1003A00011E0C3EBD1E000E006C021970109802FE6
:1003B000FE010E94311EC23BD10780E00807A9F769
:1003C0000E945C170C946D1F0C940000862FE09126
:1003D0000704F0910804309711F0BA0119940895B8
:1003E000862FE0910504F0910604309711F0BA01D0
:1003F00019940895862FE0910304F0910404309736
:1004000011F0BA0119940895862FE0910104F0913A
:100410000204309711F0BA0119940895862FE091E3
:10042000FF03F0910004309711F0BA011994089578
:10043000862FE091FD03F091FE03309711F0BA0191
:10044000199408950895862F642FE0910904F0917E
:100450000A04309711F0A90119940895E0910B0452
:10046000F0910C04309709F019940895CF93DF931D
:10047000FC01A081B181109701F1EC01ED91FC919B
:1004800011970190F081E02D69EFCD0119958881D8
:100490009981DC01ED91FC910190F081E02D62E009
:1004A000199588819981DC01ED91FC910190F08191
:1004B000E02D65E0DF91CF911994DF91CF91089500
:1004C000A091CD05B091CE05ED91FC9111970190D1
:1004D000F081E02D682FCD0119941F93CF93DF9306
:1004E000182FEB0180919405909195056817790775
:1004F00060F48091920590919305C80FD91F1883DD
:1005000080E0DF91CF911F910895E091C105F091B6
:10051000C205309711F481E0F4CF81E0809391051A
:100520008091AD059091AE051995809194059091BB
:100530009505C817D90778F7DCCFCF93DF93EC0187
:10054000FB0130E020E0C901880F991F8C179D073F
:1005500078F44081DB014D93BD011197918197950E
:1005600099279795942B9C932F5F3F4F3296EBCF13
:10057000C901DF91CF9108958150823108F05AC0AE
:10058000E82FF0E08827E853FD4F8F4F0C94311E81
:10059000E802EC02DA02E002E4021A03EF02F502DA
:1005A000F902FF02030307030D0311031A031503E6
:1005B0001B031F03809180008F7780938000089534
:1005C000809180008F7DF9CF80918000877FF5CF6B
:1005D00084B58F7784BD089584B58F7DFBCF8091DE
:1005E000B0008F778093B00008958091B0008F7D28
:1005F000F9CF809190008F7780939000089580913B
:1006000090008F7DF9CF80919000877FF5CF80910A
:10061000A0008F778093A00008958091A0008F7D27
:10062000F9CF8091A000877FF5CF809120018F774F
:10063000809320010895809120018F7DF9CF8091D2
:100640002001877FF5CFCF93DF93282F30E0F9018A
:10065000E25EFC4F8491F901E852FD4FD491F9011B
:10066000EE56FD4FC491CC23A1F081110E94BC0233
:10067000EC2FF0E0EE0FFF1FE858FD4FA591B4916D
:10068000EC91ED2381E090E009F480E0DF91CF91DF
:10069000089580E090E0FACF1F93CF93DF93282F47
:1006A00030E0F901E25EFC4F8491F901E852FD4F20
:1006B000D491F901EE56FD4FC491CC23A9F0162F29
:1006C00081110E94BC02EC2FF0E0EE0FFF1FE25AF6
:1006D000FD4FA591B4918FB7F894EC91111108C01A
:1006E000D095DE23DC938FBFDF91CF911F910895CA
:1006F000DE2BF8CFCF93DF9390E0FC01E852FD4F63
:1007000024918E569D4FFC0184918823C9F090E07E
:10071000880F991FFC01EC5BFD4FA591B491FC0182
:10072000E25AFD4FC591D49161110DC09FB7F89465
:100730008C91209582238C938881282328839FBFC6
:10074000DF91CF910895623051F49FB7F8943C91B6
:10075000822F809583238C93E8812E2BEFCF8FB748
:10076000F894EC912E2B2C938FBFEACF863308F0B0
:10077000865320917B00982F9870277F922B90931F
:100780007B008770806480937C0080917A00806415
:1007900080937A0080917A0086FDFCCF809178006A
:1007A0009091790008953FB7F89480915204909108
:1007B0005304A0915404B091550426B5A89B05C0DC
:1007C0002F3F19F00196A11DB11D3FBFBA2FA92FD0
:1007D000982F8827BC01CD01620F711D811D911DCD
:1007E00042E0660F771F881F991F4A95D1F7089539
:1007F0008F929F92AF92BF92CF92DF92EF92FF9231
:100800006B017C010E94D3034B015C01C114D10434
:10081000E104F104B9F00E94D303681979098A0947
:100820009B09683E73408105910580F321E0C21A5F
:10083000D108E108F10888EE880E83E0981EA11C1B
:10084000B11CE4CFFF90EF90DF90CF90BF90AF90BE
:100850009F908F900895009721F0805C9F4F0C949B
:1008600036020895AF92BF92CF92DF92EF92FF923D
:100870000F931F93CF93DF936C017B018B01040FC8
:10088000151FEB015E01AE18BF08C017D10759F064
:100890006991D601ED91FC910190F081E02DC601A6
:1008A0001995892B79F7C501DF91CF911F910F9190
:1008B000FF90EF90DF90CF90BF90AF900895FC0134
:1008C000538D448D252F30E0842F90E0821B930BB5
:1008D000541710F0CF96089501970895FC01918D5B
:1008E000828D981761F0A28DAE0FBF2FB11D5D965E
:1008F0008C91928D9F5F9F73928F90E008958FEF00
:100900009FEF0895FC01918D828D981731F0828DB3
:10091000E80FF11D858D90E008958FEF9FEF08950A
:10092000FC01918D228D892F90E0805C9F4F821B6E
:1009300091098F739927089586EA94E00E949004A4
:1009400021E0892B09F420E0822F0895FC01A48D79
:10095000A80FB92FB11DA35ABF4F2C91848D90E0E1
:1009600001968F739927848FA689B7892C93A089C4
:10097000B1898C91837080648C93938D848D98134E
:1009800006C00288F389E02D80818F7D80830895E1
:10099000EF92FF920F931F93CF93DF93EC0181E0CF
:1009A000888F9B8D8C8D98131AC0E889F989808176
:1009B00085FF15C09FB7F894EE89FF896083E889A9
:1009C000F98980818370806480839FBF81E090E09B
:1009D000DF91CF911F910F91FF90EF900895F62E28
:1009E0000B8D10E00F5F1F4F0F731127E02E8C8DC2
:1009F0008E110CC00FB607FCFACFE889F989808107
:100A000085FFF5CFCE010E94A604F1CFEB8DEC0F50
:100A1000FD2FF11DE35AFF4FF0829FB7F8940B8F23
:100A2000EA89FB8980818062CFCFCF93DF93EC018D
:100A3000888D8823B9F0AA89BB89E889F9898C91C6
:100A400085FD03C0808186FD0DC00FB607FCF7CF82
:100A50008C9185FFF2CF808185FFEDCFCE010E9482
:100A6000A604E9CFDF91CF91089580E090E0892B33
:100A700029F00E949C0481110E94000080E090E017
:100A8000892B49F080E090E0892B29F00E9400003A
:100A900081110E94000080E090E0892B49F080E005
:100AA00090E0892B29F00E94000081110E94000033
:100AB00080E090E0892B49F080E090E0892B29F0DC
:100AC0000E94000081110C94000008952091D80329
:100AD000260F3327331F21323105ECF420917C049B
:100AE000FC0190E080E0243069F082E00895A0915C
:100AF000D8032191AC014A545C4FA40FB52FB11D0E
:100B00002C930196861798F38091D803680F609311
:100B1000D80380E0089581E0089510927C0481E07C
:100B200080937B041092560461E084E10E944C03A0
:100B300061E085E10E944C03E9EBF0E080818E7F6B
:100B4000808380818D7F808388E48093B80085E4F2
:100B50008093BC000895CF93DF9391E09093B50309
:100B60008823B9F0C091B800D091BA008091BC0040
:100B70008A7B8093BC0060E084E10E944C0360E0CB
:100B800085E10E944C030E948D05D093BA00C0936A
:100B9000B800DF91CF9108958F929F92AF92BF924C
:100BA000CF92DF92EF92FF920F931F93CF93DF9339
:100BB000D091A504D13208F0D7C0182FC091A40459
:100BC0000E94D3036B017C0180917C0481116BC076
:100BD00082E080937C0410937B048FEF80937A04EF
:100BE00010927904D0937804A4E8B4E0E8E5F4E046
:100BF00080E0D81391C01092570480915704CC0F15
:100C0000C82BC093570480915604813009F088C0E6
:100C1000109256040E94D3036B017C01809157040B
:100C20008093BB0080917E0490917F04A09180040A
:100C3000B0918104892B8A2B8B2BA1F00E94D303C6
:100C400000917E0410917F042091800430918104F2
:100C50006C197D098E099F090617170728073907A0
:100C600008F442C08091BC0083FDD8CF85EC80930E
:100C7000BC000E94D3036B017C0180917C04823014
:100C800009F450C080917A048F3F09F46FC08091BD
:100C90007A04803209F46CC080917A04803309F4BC
:100CA00069C084E026C080917E0490917F04A09169
:100CB0008004B0918104892B8A2B8B2B09F484CF7B
:100CC0000E94D30380907E0490907F04A0908004C3
:100CD000B09081046C197D098E099F0986169706CC
:100CE000A806B90608F070CF80917D040E94AB057C
:100CF00085E0109283041092A50410928204DF9183
:100D0000CF911F910F91FF90EF90DF90CF90BF9008
:100D1000AF909F908F9008959D9191938F5F69CF31
:100D200085EEA5CF80917E0490917F04A0918004F0
:100D3000B0918104892B8A2B8B2B09F49ECF0E94C2
:100D4000D30300917E0410917F04209180043091A0
:100D500081046C197D098E099F090617170728075A
:100D6000390708F08ACFC0CF81E0C3CF80E0C1CF80
:100D700082E0BFCF83E0BDCF089508950895E0914C
:100D8000B4038091B303E81730F4F0E0ED56FC4F64
:100D9000808190E008958FEF9FEF08959091B403C4
:100DA0008091B3032FEF3FEF981748F4E92FF0E05D
:100DB000ED56FC4F208130E09F5F9093B403C90152
:100DC00008958091B3039091B403891B990B089502
:100DD000CF92DF92EF92FF920F931F93CF93DF9307
:100DE0007C01CB018A0120918204222389F0EB014E
:100DF0006B01C40ED51ECC15DD0569F06991D701D4
:100E0000ED91FC910190F081E02DC7011995F3CF90
:100E1000642F0E946605C801DF91CF911F910F9149
:100E2000FF90EF90DF90CF900895CF93DF931F92C4
:100E3000CDB7DEB76983209182042223F9F0209197
:100E4000A504203258F021E030E0FC0133832283F6
:100E500090E080E00F90DF91CF910895809183041E
:100E6000E82FF0E0EC57FB4F998190838F5F8093E0
:100E700083048093A50481E090E0ECCF61E0CE0193
:100E800001960E946605F7CF90E080E00895DF921A
:100E9000EF92FF920F931F93CF93DF93EC01D62E27
:100EA0007A0189018881803308F067C061E08D2D67
:100EB0000E947A038881282F30E0F901EE0FFF1F8E
:100EC000E20FF31FEB55F94F9D2D9F736081607CFE
:100ED000692B608320E232E02E193F0937FF02C000
:100EE0002D5F3F4F3595279535952795298320E62A
:100EF00039E0201B310B37FF02C02D5F3F4F359586
:100F00002795359527952A832CE0622F0E94251E70
:100F1000829FB001112430E020E0AB01420F531F4B
:100F2000FA01EE0FFF1FE40FF51FEB55F94F90810B
:100F300096FD16C02F5F3F4F2C30310571F7813081
:100F400029F51092800082E0809381001092850044
:100F500010928400B19A80916F00826080936F003C
:100F6000E8818E2F90E0FC01EE0FFF1FE80FF91FC4
:100F7000EB55F94F8081806480838881DF91CF9128
:100F80001F910F91FF90EF90DF900895823061F4F0
:100F9000109290008093910010929500109294000E
:100FA00088BB80937100DCCF833069F41092A0007D
:100FB00082E08093A1001092A5001092A40089BB4A
:100FC00080937200CDCF8111CBCF1092200182E0AF
:100FD0008093210110922501109224018ABB8093F5
:100FE0007300BECFAF92BF92CF92DF92EF92FF928B
:100FF0000F931F93CF93DF936B017A01EC01C157DD
:10100000DC4F28813CE0389F8001399F100D11246E
:10101000A0903507B12C27FF1FC0FB011182108261
:1010200088818F5F888388819801280F311D87FD13
:101030003A95F6012A153B051CF488818C30C4F1E1
:1010400080819181049680349C4908F473C0F60134
:1010500080819181049670C088819801280F311D8C
:1010600087FD3A952A153B05DCF68881A801480FD3
:10107000511D87FD5A95FA01EE0FFF1FE40FF51F72
:10108000EB55F94F808186FFCBCF8881F801E80FBF
:10109000F11D87FDFA95CF01EE0FFF1FE80FF91F35
:1010A000EB55F94F808160E08F730E944C03B8CFFD
:1010B000808191812881A801420F511D27FD5A95F9
:1010C0009A01FA01EE0FFF1FE20FF31FEB55F94FE4
:1010D00021813281820F931FF70191838083888160
:1010E0009801280F311D87FD3A95F901EE0FFF1F7A
:1010F000E20FF31FEB55F94F808186FF22C08881F4
:10110000080F111D87FD1A95F801EE0FFF1FE00F64
:10111000F11FEB55F94F808161E08F73DF91CF9123
:101120001F910F91FF90EF90DF90CF90BF90AF9005
:101130000C944C0380E49CE9F701918380838FEF4A
:101140008883DF91CF911F910F91FF90EF90DF90F7
:10115000CF90BF90AF9008955F926F927F928F92E1
:101160009F92AF92BF92CF92DF92EF92FF920F9336
:101170001F93CF93DF935C016901DA015C90232B0D
:1011800019F4CC24CA94DC2C8A013A01660E771E2D
:10119000D0E0C0E0F12CE12C87E0882E912CF50105
:1011A00080819181D8016C910C2E01C0660F0A9448
:1011B000EAF765296F77DC01ED91FC910190F081F0
:1011C000E02D1995BFEFEB1AFB0AF801608170E082
:1011D000C4018C1B9D0B02C0759567958A95E2F73B
:1011E000562E2196C730D10558F1CE14DF0441F1B7
:1011F000D5018D919C91652D6F77DC01ED91FC916E
:101200000190F081E02D1995BFEFEB1AFB0A551CF8
:101210005524551C2797E6CFEC14FD0408F4BFCFE6
:10122000DF91CF911F910F91FF90EF90DF90CF90C2
:10123000BF90AF909F908F907F906F905F90089538
:101240000F5F1F4F6016710639F7209749F3EC14B2
:10125000FD0430F7F5018081918161E070E001C00B
:10126000660FCA95EAF761506521DC01ED91FC91AA
:101270000190F081E02DDF91CF911F910F91FF90B0
:10128000EF90DF90CF90BF90AF909F908F907F9026
:101290006F905F9019941F93CF93DF931F921F92CB
:1012A000CDB7DEB7182F7A83698380918F0590912F
:1012B00090050097C9F0DC01ED91FC910190F0815F
:1012C000E02D1031B8F461157044A0F4612F606E08
:1012D000199522E030E0AE014F5F5F4F62E070E0B1
:1012E0008FE895E00E94AC080F900F90DF91CF91AE
:1012F0001F91089560EF199580918F059091900549
:10130000DC01ED91FC910190F081E02D6FE61995E3
:1013100080918F0590919005DC01ED91FC910190F9
:10132000F081E02D612F199522E030E0AE014F5F92
:101330005F4F62E070E08FE895E00E94AC0880911A
:101340008F0590919005DC01ED91FC910190F08169
:10135000E02D67EF1995C8CFEF92FF920F931F937F
:10136000CF93DF93C82F80918F05909190050097C0
:10137000C9F17A018B01DC01ED91FC910190F081C2
:10138000E02D60EF199580918F0590919005DC011B
:10139000ED91FC910190F081E02D6C2F1995E70102
:1013A0000E0D1F1DC017D10759F030E020E0AE012F
:1013B00061E070E08FE895E00E94AC082196F2CFE2
:1013C00080918F0590919005DC01ED91FC91019049
:1013D000F081E02D67EFDF91CF911F910F91FF908A
:1013E000EF901994DF91CF911F910F91FF90EF90A3
:1013F0000895CF92DF92EF92FF920F931F93CF93B6
:10140000DF93FC01E058FF4FE080EE2009F45CC060
:10141000EC01C05CDF4FA881B981109709F454C07A
:10142000FC01EF57FF4FC080D180F6011181008190
:10143000ED91FC9111970190F081E02D60EFCD01CD
:10144000199588819981DC01ED91FC910190F081E1
:10145000E02D69E7199588819981DC01ED91FC9176
:101460000190F081E02D602F199588819981DC0130
:10147000ED91FC910190F081E02D612F1995F12CF7
:1014800001E010E00F5F1F4FE016F10659F030E069
:1014900020E0A601400F511F61E070E0CE010E94E4
:1014A000AC08F0CF88819981DC01ED91FC9101902D
:1014B000F081E02D67EFDF91CF911F910F91FF90A9
:1014C000EF90DF90CF901994DF91CF911F910F9102
:1014D000FF90EF90DF90CF900895009711F00C945B
:1014E000F9090895CF938031B0F421E030E0082E5F
:1014F00002C0220F331F0A94E2F740914704509133
:101500004804672B51F420953095242335233093DC
:10151000480420934704CF910895242B352B309312
:1015200048042093470490918E039111F4CFC82F63
:101530000E94B603BC018C2FCF910C944B094F92A3
:101540005F926F927F928F929F92AF92BF92CF9253
:10155000DF92EF92FF920F931F93CF93DF93893027
:1015600008F0A7C08F5FC82FCC0FCC0FCC0F4C2E2C
:10157000C73410F056E4452ED62F38EF532E5C0EAC
:10158000852C912CC401880F991F9C01215B3A4F37
:101590005901052DD12CC12C10E07724739404152A
:1015A000C8F58EEF800F8434F8F4F601E80DF91DCC
:1015B000EE52FA4F90819230B8F4872D8D23662435
:1015C0006394811101C0612C7601EE0CFF1C9130F7
:1015D00089F4172939ECE30EF11CF501EE0DFF1D1E
:1015E000862D90E091838083770C0F5F8FEFC81A70
:1015F000D80AD5CF882371F3F701E753FF4FEA0DDF
:10160000FB1D80819181019729F362E0802F0E9468
:101610007A03E0CF10FF05C06D2F6170852D0E9409
:101620004C0311FF06C06D2F627089EF8C0F0E9472
:101630004C0312FF06C06D2F64708AEF8C0F0E945E
:101640004C0313FF06C06D2F68708BEF8C0F0E9448
:101650004C0314FF06C06D2F60718CEF8C0F0E943D
:101660004C0315FF06C06D2F60728DEF8C0F0E942A
:101670004C0316FF06C06D2F60748EEF8C0F0E9416
:101680004C0317FF16C06D2F60788FEF8C0FDF9122
:10169000CF911F910F91FF90EF90DF90CF90BF906F
:1016A000AF909F908F907F906F905F904F900C9431
:1016B0004C03DF91CF911F910F91FF90EF90DF903E
:1016C000CF90BF90AF909F908F907F906F905F90E2
:1016D0004F9008958F929F92AF92BF92CF92DF92D8
:1016E000EF92FF920F931F93CF93DF93EB0186341A
:1016F00008F098C0082F10E0F801EE52FA4F9081E0
:10170000933009F49CC0943009F08CC0825084342A
:1017100008F081C0F801E25CFC4FC080D12C76015A
:10172000EE0CFF1C4B01603282E078070CF03EC0EB
:10173000F701EC0DFD1DEA5CF84F8181A8E88A2EC7
:10174000912C881A910887FD9394880C991C880C19
:10175000991C092C000CAA08BB08828128E532E0FC
:10176000281B310987FD3395220F331F220F331FAA
:10177000032E000C440B550B281939094A095B0943
:10178000DB01653B710514F0A4EBB0E0B7FF02C0CC
:10179000B0E0A0E00E94EC1D24EB30E040E050E01F
:1017A0000E94C21D820E931EA41EB51EF701EC0DF1
:1017B000FD1DEA5CF84F2081203368F5318188E80F
:1017C00090E0831B910937FD9395880F991F880F2F
:1017D000991F881699067CF0328188E592E0831B78
:1017E000910937FD9395880F991F880F991F8816C7
:1017F00099060CF4C4010297880F991F4FB7F8940B
:1018000030E0F901EE0FFF1FE20FF31FEB55F94F28
:10181000928381834FBF000F111FF801E85EF94FDB
:10182000D183C083DF91CF911F910F91FF90EF90F3
:10183000DF90CF90BF90AF909F908F900895F82E3B
:101840008EEF800F8C3020F084ED800F833018F7FE
:1018500061E08F2D0E947A03209729F460E08F2D9C
:101860000E944C03D8CFCF3FD10511F461E0F7CFF0
:10187000F801E25EFC4FE491E150E23108F0B0C0C3
:10188000F0E08827E95BF34F8F4F0C94311E590C21
:101890005E0C630C6D0C770CF00C810C890C910CB8
:1018A0009B0CA50CAF0CBE0CC80CF00CD20CDC0CC5
:1018B000E60C84B5806884BDC7BDADCF84B58062B9
:1018C00084BDC8BDA8CF80918000806880938000CF
:1018D000D0938900C09388009ECF80918000806261
:1018E00080938000D0938B00C0938A0094CF809126
:1018F0008000886080938000D0938D00C0938C001E
:101900008ACF8091B00080688093B000C093B3000C
:1019100082CF8091B00080628093B000C093B40009
:101920007ACF80919000806880939000D093990046
:10193000C093980070CF8091900080628093900057
:10194000D0939B00C0939A0066CF809190008860EE
:1019500080939000D0939D00C0939C005CCF8091B9
:10196000A00080688093A0008091A0008F7B80936E
:10197000A000D093A900C093A8004DCF8091A000F3
:1019800080628093A000D093AB00C093AA0043CFA5
:101990008091A00088608093A000D093AD00C09398
:1019A000AC0039CF80912001806880932001D093D2
:1019B0002901C09328012FCF80912001806280935C
:1019C0002001D0932B01C0932A0125CF80912001C3
:1019D000886080932001D0932D01C0932C011BCFF0
:1019E000C038D1050CF042CF39CF9EEF980F943418
:1019F00080F4E82FF0E0DF01AE52BA4F9C919130B5
:101A000041F4EE0FFF1FE85EF94F608371830C9481
:101A10004C030895FF920F931F93CF93DF931F9270
:101A20001F92CDB7DEB7082F10E0F801E35FFB4F40
:101A30009081F62EF9220C571C4F411104C0F80179
:101A400090819F1511F12F2D30E03A832983A091C9
:101A50008F05B09190051097B1F0682F6F70606995
:101A6000ED91FC9111970190F081E02DCD01199538
:101A700022E030E0AE014F5F5F4F62E070E08FE840
:101A800095E00E94AC08F801F0820F900F90DF9172
:101A9000CF911F910F91FF9008950F931F93CF93B4
:101AA000DF93893008F071C0282F30E0F901EA5E39
:101AB000FB4F6083672B09F468C0082F235F3B4FFF
:101AC000F9011081D82FDD0FDD0FDD0F8EEF8D0FA7
:101AD000843450F4C12FC17010FF07C08D2F0E94B5
:101AE0002303C1E0892B09F4C0E08FEF8D0F84340C
:101AF00048F411FF07C081E08D0F0E942303892B5A
:101B000009F0C26012FF07C082E08D0F0E9423031C
:101B1000892B09F0C46013FF07C083E08D0F0E947A
:101B20002303892B09F0C86014FF07C084E08D0FE0
:101B30000E942303892B09F0C06115FF07C085E0CF
:101B40008D0F0E942303892B09F0C062D034A1F0CD
:101B500016FF07C086E08D0F0E942303892B09F032
:101B6000C064DF3349F017FF07C087E08D0F0E9484
:101B70002303892B09F0C06841E06C2F802FDF918F
:101B8000CF911F910F910C940A0DDF91CF911F916E
:101B90000F910895A82FB0E0A25CBC4F9C91292F13
:101BA00030E0F901EE0FFF1FE20FF31FEA5CF84F80
:101BB000E0812E2F30E0F901EE0FFF1FE20FF31F3F
:101BC000EB55F94F80818F7B808380913C03981384
:101BD00008C0992319F0915090933C038FEF8C9398
:101BE00008958823D9F3E0913D03EF5FE0933D032F
:101BF000F0E0E753FD4F9083F1CFFC01019000200E
:101C0000E9F73197BF01681B790BAC0181E70C94B0
:101C1000AC09CF93DF93DB0190913C03903378F5CF
:101C200030913D03682F70E0FB01E25CFC4F3323F1
:101C3000E1F0C32FD0E0C753DD4F8881808331505E
:101C400030933D03808123E0829FC00111248A5C90
:101C5000984F1A161B0674F4141615065CF49A01B4
:101C6000AD01DF91CF910C94470790839F5F9093D4
:101C70003C03E8CF20E639E040E252E0F2CF8DE2CB
:101C800092E0DF91CF910C94FD0D85ED8093BC0027
:101C900080917E0490917F04A0918004B091810492
:101CA0000796A11DB11D23E0B695A7959795879539
:101CB0002A95D1F72091BC0024FD03C010927C042A
:101CC000089540917E0450917F046091800470914A
:101CD0008104452B462B472B69F30097A105B105DD
:101CE00041F025E32A95F1F700000197A109B10918
:101CF000E1CF80917D040C94AB058F929F92BF92AF
:101D0000CF92DF92EF92FF920F931F93CF93DF93C7
:101D1000C82ED12CE601C15BDA4FFE01ED57FF4F13
:101D200090819F3709F4A1C0963061F490918D03A2
:101D3000992341F06630710529F010928D039FEFD1
:101D4000909300027B01182F0EEF080F043408F562
:101D500064307105F1F0F601E25CFC4F8081803364
:101D6000C0F490E0FC01EE0FFF1FE80FF91FEA5CE2
:101D7000F84FE0818E2F90E0FC01EE0FFF1FE80F7F
:101D8000F91FEB55F94F808186FF03C0812F0E9418
:101D9000CA0D5AECB52EB10E8FE08B1558F061E0EC
:101DA00070E032E0E316F10411F070E060E08B2D9A
:101DB0000E94720A0434C8F4E12FE695E695E69590
:101DC000F0E0E35FFB4F2081312F377081E090E03E
:101DD00001C0880F3A95EAF7E114F10421F03BE0E5
:101DE000E316F10411F5822B80834601880C991CBF
:101DF000F401E85EF94F118210828CE0E816F104DC
:101E000008F0C8C0F7018827E75FF04F8F4F0C94A8
:101E1000311E290F560F180F6D0F870FCA0FBE0FF7
:101E2000CA0FCA0FCA0F350F410F80958223DCCF2E
:101E30003FE03B15D0F0043420F460E0812F0E9495
:101E40007A03CD57DF4F88818F3779F082E088831E
:101E50000CC0043450F460E0812F0E947A03CD5707
:101E6000DF4F88818F3709F01882DF91CF911F9162
:101E70000F91FF90EF90DF90CF90BF909F908F9049
:101E80000895043490F762E0812F0E947A03CD57C1
:101E9000DF4F88818F3711F08BE08883F401E85E93
:101EA000F94F81E090E091838083DFCF0434E8F63E
:101EB000FE01ED57FF4F8081833021F460E0812FD8
:101EC0000E944C0361E0812F0E947A03CD57DF4FBF
:101ED00088818F3751F281E0BACF0C3020F084ED49
:101EE000810F833010F661E0812F0E947A0361E058
:101EF000812F0E947A0360E0812F0E944C03CD570E
:101F0000DF4F88818F3709F4B0CF83E0A0CF04344E
:101F100008F0ABCFCD57DF4F88818F3711F084E0C9
:101F20008883F601E25CFC4F80818F3FA9F090E04E
:101F3000FC01EE0FFF1FE80FF91FEA5CF84FE0818C
:101F40008E2F90E0FC01EE0FFF1FE80FF91FEB55FD
:101F5000F94F808186FD89CF4FEF5FEF6FEF7FEF05
:101F6000812FDF91CF911F910F91FF90EF90DF9024
:101F7000CF90BF909F908F900C94090E1451123007
:101F800008F073CFCD57DF4F88818F3709F46DCFBD
:101F900086E05DCF81E492E0DF91CF911F910F91B8
:101FA000FF90EF90DF90CF90BF909F908F900C9418
:101FB000FD0D0F931F93CF93DF9381E080938E03EA
:101FC00080918D03882329F010928D038FEF8093E9
:101FD0000002E6E1F4E0CDE0D4E0A4E8B3E0119241
:101FE00019921D9284E0EF31F807C9F70EE313E070
:101FF000C0E0DFEF8AEC8C0F62E070E0803130F0FF
:102000008EEF8C0F843428F461E070E08C2F0E94F6
:102010007D0EF801D1938F01CF5FC63459F710922E
:1020200048041092470410923D0310923C03109212
:102030008E03DF91CF911F910F9108954F925F9280
:102040006F927F928F929F92AF92BF92DF92EF92A8
:10205000FF920F931F93CF93DF93D82E8B01D42F32
:10206000C22F6F3F760709F490C081E0809382040D
:10207000D092A404109283041092A50483E495E006
:102080000E9415078C2F0E94CC0580913A039091F5
:102090003B038230910538F0880F991F880F991FF4
:1020A00005970197F1F70E94D3034B015C018091E2
:1020B0007C0481116CC0CD2FD13208F0C0E281E0E8
:1020C00080937C0480937B049FEF90937A0410921A
:1020D00079049C0F9093780480935704909157044F
:1020E0008D2D880F892B8093570480915604813061
:1020F00009F09EC0109256040E94D3034B015C016C
:10210000809157048093BB0080917E0490917F045E
:10211000A0918004B0918104892B8A2B8B2BA1F094
:102120000E94D30340907E0450907F04609080040E
:1021300070908104681979098A099B094616570627
:102140006806790608F444C08091BC0083FDD8CFAE
:1021500085EC8093BC000E94D3034B015C0180910D
:102160007C04813009F466C0809179048C1710F4E6
:10217000C0917904A8E5B4E0E3E9F3E080E08C17CE
:1021800061F19D9191938F5FFACF00E08CCF8091A8
:102190007E0490917F04A0918004B0918104892BEA
:1021A0008A2B8B2B09F483CF0E94D30340907E04AB
:1021B00050907F04609080047090810468197909C0
:1021C0008A099B09461657066806790608F06FCFFC
:1021D00080917D040E94AB05C0E01092B403C093CF
:1021E000B303ED2EF12C8C2F90E0E816F9060CF0DD
:1021F00043C082E592E00E94FD0DD092FA02009366
:10220000FB020AEF12E0C8018A5F92408E159F051B
:10221000D4F50F5F1F4F9091B3038091B4039817CB
:1022200091F183E495E00E94CE06F8018183EBCF23
:1022300085EE8FCF80917E0490917F04A0918004E1
:10224000B0918104892B8A2B8B2B09F488CF0E94B3
:10225000D30340907E0450907F046090800470907F
:102260008104681979098A099B0946165706680688
:10227000790608F074CFACCF8E159F050CF0BDCF5A
:102280008FE692E0B8CFDE5F6D2F70E04AEF52E04C
:1022900087E7DF91CF911F910F91FF90EF90DF9033
:1022A000BF90AF909F908F907F906F905F904F9076
:1022B0000C94AC09EF92FF920F931F93CF93DF938F
:1022C0008956823108F035C0EA01162FE82FF0E078
:1022D0008827E259FE4E8F4F0C94311EB11399118D
:1022E0001B13991170139911F9129D1299119911DB
:1022F0009911991199118011991161129911E31293
:10230000998195FF0AC08BE892E0DF91CF911F91F0
:102310000F91FF90EF900C94FD0D888131E096FBBA
:10232000222720F9232798719830D1F148F4992376
:10233000A9F0DF91CF911F910F91FF90EF90089539
:10234000903109F44CC09831A1F720910002121687
:102350000CF472C08FEF80930002EBCF30938204B5
:102360008093A404109283041092A50402E0011744
:1023700078F4FE01E00FF11D61816795662767958E
:102380008081680F83E495E00E9415070E5FEFCF10
:1023900081E00E94CC0583E191E00197F1F7C9CF7C
:1023A0009A814B816630A1F430E8439FB00111243B
:1023B000690F711D4D814795442747959C81490FB1
:1023C000DF91CF911F910F91FF90EF900C941E1011
:1023D000479544274795490F6FEF7FEFF1CFE09185
:1023E0000002E7301CF08BEA92E08FCF3A819B81AC
:1023F0006630D9F460E8969FA0011124430F511D67
:102400009D819795992797953C81930FEF5FE09376
:10241000000235E0E302F0011124E15EFB4F80830E
:10242000528341839383248384CF979599279795EB
:10243000930F4FEF5FEFEACF90E0622F022E000C78
:10244000770B35E0492F50E06417750764F0349F2F
:10245000F001359FF00D1124E15EFB4F40814817DC
:1024600019F09F5FEFCF90E085E0492F50E06417AF
:1024700075071CF19830F8F4FA0131968E9FD0015F
:102480008F9FB00D1124A15EBB4F3C91849FF00142
:10249000859FF00D1124E15EFB4F308311964D9125
:1024A0005C9112975283418313963C911397338327
:1024B00014963C9134839F5FD8CF21502093000223
:1024C00038CF623078F0898160E8869F90011124CE
:1024D0008881820F932F911D009721F090933B03E9
:1024E00080933A0380918D03811123CFC0E08CEE5D
:1024F0008C0F823028F466E070E08C2F0E947D0EF5
:10250000CF5FC634A1F781E080938D031092B403AE
:102510001092B303109283041092A5040E948D05BB
:102520008CEB96E09093D7038093D6038DEB96E0E7
:102530009093DB038093DA03FCCE653008F4F9CE88
:1025400018818EEF810F843408F0F3CE0981EA8080
:10255000FB80CC81E12FF0E0E25CFC4F8081803396
:10256000C0F490E0FC01EE0FFF1FE80FF91FEA5CDA
:10257000F84FE0818E2F90E0FC01EE0FFF1FE80F77
:10258000F91FEB55F94F808186FF03C0812F0E9410
:10259000CA0D80E8C89FA00111244F0D511D90E87D
:1025A000E99EB0011124600F711D812F0E94090E58
:1025B00064E070E0812FDF91CF911F910F91FF9028
:1025C000EF900C947D0E623008F4B3CE8981E0E880
:1025D0008E9F900111248881820F932F911D009767
:1025E00029F09093020280930102A3CE81E090E053
:1025F000F8CF623008F49DCE698170E0123091F01E
:102600008A81F0E88F9FC0011124682B792B133049
:1026100049F08B8190E090E4899F902D88271124C8
:10262000682B792B8881DF91CF911F910F91FF90BB
:10263000EF900C946A0B80EF0E9460028CE60E947F
:102640006002CEEF8CEC8C0F803108F040C082E04D
:102650000E9460028AE00E94600286ED8C0F833047
:10266000C0F1C43430F484E00E9460028EE00E9425
:1026700060028EEE8C0F823030F486E00E946002A1
:1026800081E00E9460028FE70E946002CF5FC43445
:1026900049F487EFDF91CF911F910F91FF90EF9059
:1026A0000C946002C43470F680E00E94600281E005
:1026B0000E9460028BE00E94600281E00E94600242
:1026C00081E00E94600281E00E946002BBCFCC30BA
:1026D00020F683E00E94600288E00E946002C1CF81
:1026E000662309F426CEC88180EF0E9460028EE640
:1026F0000E9460028C2F0E946002C63450F6D0E027
:10270000FE01EE52FA4F80810E946002CC0FDD1F65
:102710008E01085E194FF80180818F770E94600258
:10272000F801808191819C012078232B39F0880F5A
:10273000892F881F990B8F770E946002C85ED94F3E
:10274000888199819C012227307C232B09F4A1CF19
:10275000990F880B990F982F881F8F770E9460021E
:1027600098CF80EF0E9460028AE60E946002CAEC65
:102770008FE7C03108F48C2F0E946002CF5FC03118
:10278000B9F787CF1F920F920FB60F9211242F9394
:102790003F938F939F93AF93BF9380914E049091FB
:1027A0004F04A0915004B091510430914D0423E0A6
:1027B000230F2D3758F50196A11DB11D20934D040F
:1027C00080934E0490934F04A0935004B09351040F
:1027D0008091520490915304A0915404B0915504F7
:1027E0000196A11DB11D8093520490935304A093B0
:1027F0005404B0935504BF91AF919F918F913F9135
:102800002F910F900FBE0F901F90189526E8230F61
:102810000296A11DB11DD2CF1F920F920FB60F923B
:1028200011240BB60F922F933F934F935F936F93A7
:102830007F938F939F93AF93BF93EF93FF9386EA1A
:1028400094E00E94A604FF91EF91BF91AF919F91F8
:102850008F917F916F915F914F913F912F910F9049
:102860000BBE0F900FBE0F901F9018951F920F92E6
:102870000FB60F9211240BB60F922F938F939F9345
:10288000EF93FF93E091B604F091B7048081E0915B
:10289000BC04F091BD0482FD1DC090818091BF04F5
:1028A0008F5F8F732091C004821741F0E091BF04C5
:1028B000F0E0EA55FB4F958F8093BF04FF91EF91B5
:1028C0009F918F912F910F900BBE0F900FBE0F9085
:1028D0001F9018958081F2CF1F920F920FB60F9222
:1028E00011240BB60F922F933F934F935F936F93E7
:1028F0007F938F939F93AF93BF93EF93FF938091B9
:10290000B900887F803609F44DC008F040C0883295
:1029100009F4A9C028F5803109F49DC0C8F48823C2
:1029200009F4FBC0883009F496C0FF91EF91BF9184
:10293000AF919F918F917F916F915F914F913F9157
:102940002F910F900BBE0F900FBE0F901F901895F8
:10295000883109F488C0803241F780937A0414C02A
:10296000803409F49DC040F48033B9F38833E9F62C
:1029700080937A0485ECB0C0803509F485C0883531
:1029800009F496C0883489F60E94450ECECF883966
:1029900009F48CC038F5883729F050F4883611F0E6
:1029A000803719F683E080937C041092FC0357C0B3
:1029B000883809F47BC0803919F0803809F0B5CF28
:1029C0008091FC03803208F071C0E091FC0381E04B
:1029D0008E0F8093FC038091BB00F0E0E452FC4F2B
:1029E00080833DC0803B39F0E0F4803A09F479C03F
:1029F000883A09F09ACF84E080937C041092D9033E
:102A00001092D803E091D603F091D70319958091E5
:102A1000D80381110FC081E08093D8031092B603D0
:102A200009C0803C09F4A6CF883C09F4A3CF883BB9
:102A300009F07BCFE091D90381E08E0F8093D90319
:102A4000F0E0EA54FC4F80818093BB009091D90361
:102A50008091D80329C0809157048093BB0085ECF6
:102A60008093BC0062CF909179048091780498178C
:102A700058F5E091790481E08E0F80937904F0E0BD
:102A8000E85AFB4F8081E9CFE091790481E08E0F15
:102A9000809379048091BB00F0E0E85AFB4F80837B
:102AA00090917904809178049817C8F285E8D8CF7E
:102AB000E091790481E08E0F809379048091BB00CE
:102AC000F0E0E85AFB4F808380917B0481115CCF5A
:102AD00081E08093560484EA8093BC0010927C04C9
:102AE00024CF85EC8093BC0010927C048091FC0381
:102AF000803230F4E091FC03F0E0E452FC4F1082AD
:102B00006091FC0370E0E091DA03F091DB038CED5F
:102B100093E019951092FC0308CF10927A0434CFF9
:102B20001F920F920FB60F9211240BB60F922F9394
:102B30003F934F935F936F937F938F939F93AF9345
:102B4000BF93EF93FF9348E251E064E271E090E0BD
:102B500080E00E94F207FF91EF91BF91AF919F91AA
:102B60008F917F916F915F914F913F912F910F9036
:102B70000BBE0F900FBE0F901F9018951F920F92D3
:102B80000FB60F9211240BB60F922F933F934F93D2
:102B90005F936F937F938F939F93AF93BF93EF93C5
:102BA000FF9348EA50E064EA70E083E090E00E941E
:102BB000F207FF91EF91BF91AF919F918F917F911C
:102BC0006F915F914F913F912F910F900BBE0F909E
:102BD0000FBE0F901F9018951F920F920FB60F9275
:102BE00011240BB60F922F933F934F935F936F93E4
:102BF0007F938F939F93AF93BF93EF93FF9348E996
:102C000050E064E970E082E090E00E94F207FF91FA
:102C1000EF91BF91AF919F918F917F916F915F9154
:102C20004F913F912F910F900BBE0F900FBE0F90C1
:102C30001F9018951F920F920FB60F9211240BB68A
:102C40000F922F933F934F935F936F937F938F9345
:102C50009F93AF93BF93EF93FF9348E850E064E8EE
:102C600070E081E090E00E94F207FF91EF91BF9148
:102C7000AF919F918F917F916F915F914F913F9114
:102C80002F910F900BBE0F900FBE0F901F901895B5
:102C90001092A9041092A80488EE93E0A0E0B0E09E
:102CA0008093AA049093AB04A093AC04B093AD04BA
:102CB0002DE032E03093A7042093A60425EC30E009
:102CC0003093B3042093B20424EC30E03093B50485
:102CD0002093B40420EC30E03093B7042093B60482
:102CE00021EC30E03093B9042093B80422EC30E0BA
:102CF0003093BB042093BA0426EC30E03093BD043B
:102D00002093BC041092BF041092C0041092C1041E
:102D10001092C20410924605109245058093470513
:102D200090934805A0934905B0934A058FE192E03E
:102D300090934405809343058FE495E010929005AD
:102D400010928F05909393058093920520E430E0D4
:102D5000309395052093940510929605109297054F
:102D6000109299051092980510929A0510929C0560
:102D700010929B0510929E0510929D051092A00541
:102D800010929F051092A2051092A1051092A40521
:102D90001092A3051092A6051092A5051092A80501
:102DA0001092A7051092AE051092AD051092B005D5
:102DB0001092AF051092B2051092B1051092B405B1
:102DC0001092B3051092C2051092C10510929105A0
:102DD0001092CF051092D1051092D0051092A40642
:102DE00026EE31E03093B6052093B50520EF31E0B3
:102DF0003093B8052093B7052AEF31E03093BA0538
:102E00002093B90524E032E03093BC052093BB0544
:102E10002EE032E03093BE052093BD0528E132E07C
:102E20003093C0052093BF0522E232E03093C40501
:102E30002093C30523E232E03093C6052093C505F5
:102E40002DE63AE03093C8052093C7059093AA0574
:102E50008093A9052BE234E03093CA052093C9057D
:102E60009093AC058093AB058EE292E09093CC05F5
:102E70008093CB05E6E3F7E02FEF48EB5BE0809132
:102E800035078033B8F491E0980F9093350780832D
:102E900090E0DC01AA0FBB1FA80FB91FAB55B94FBB
:102EA00012965C934E931197339687E0E63CF807B1
:102EB00031F708952083F8CF789484B5826084BD7B
:102EC00084B5816084BD85B5826085BD85B581602E
:102ED00085BD80916E00816080936E0010928100AC
:102EE0008091810082608093810080918100816067
:102EF0008093810080918000816080938000809128
:102F0000B10084608093B1008091B00081608093B3
:102F1000B000809191008260809391008091910037
:102F200081608093910080919000816080939000F7
:102F30008091A10082608093A1008091A1008160B6
:102F40008093A1008091A00081608093A000809177
:102F50002101826080932101809121018160809311
:102F600021018091200181608093200180917A006D
:102F7000846080937A0080917A00826080937A00E6
:102F800080917A00816080937A0080917A008068D5
:102F900080937A001092C10016E01093CF058091C3
:102FA000D0059091D1050E94D51EC091CF05D0E0EB
:102FB000CE0101960E94391E9093D1058093D005D1
:102FC000FC01EC0FFD1F108202E0DC010C9325E0F8
:102FD00011962C93AE014250510960EC72E00296BA
:102FE0000E945E1F8AE69BE090930804809307048A
:102FF0008FE99AE0909306048093050482E79AE0B3
:1030000090930404809303048DE49DE09093020464
:10301000809301048DE79EE0909300048093FF036A
:1030200085EF9CE09093FE038093FD038AE591E198
:1030300090930A048093090489ED9FE090930C0417
:1030400080930B04E091B604F091B7040083E09103
:10305000B604F091B7041082E091B204F091B30489
:103060001082E091B404F091B50480E18083109265
:10307000BE04E091BA04F091BB041083E091B8045F
:10308000F091B904808180618083E091B804F0916F
:10309000B904808188608083E091B804F091B9041C
:1030A000808180688083E091B804F091B9048081C8
:1030B0008F7D80838091A40681114FC061E08DE0F7
:1030C0000E947A0362ED70E080E090E00E94F803D5
:1030D00061E08DE00E944C0368E270E080E090E0E7
:1030E0000E94F80360E08DE00E944C0362ED70E006
:1030F00080E090E00E94F80361E08DE00E944C03C4
:1031000068E270E080E090E00E94F80360E08DE00B
:103110000E944C036AEF70E080E090E00E94F803A8
:10312000C5E062ED70E080E090E00E94F80361E0AD
:103130008DE00E944C0368E270E080E090E00E9425
:10314000F80360E08DE00E944C03C15051F76DE739
:1031500070E080E090E00E94F80386EA94E09093AB
:10316000CE058093CD059093900580938F058FE8D1
:1031700095E00E9436028FE495E00E94F9090E94D2
:10318000D90FD5E0DD24D39402E010E0EE24E394DF
:10319000F12C80911604882391F1C0900D04C2FC9B
:1031A000E1C2C0E0C3FE06C083E00E942303892B76
:1031B00009F0C860C4FE06C084E00E942303892B86
:1031C00009F0C061C5FE06C085E00E942303892B7B
:1031D00009F0C062C6FE06C086E00E942303892B68
:1031E00009F0C064C7FE06C087E00E942303892B54
:1031F00009F0C06840E06C2F80E00E940A0D8091C9
:103200001704882309F44AC0C0900E04CC2DC17065
:10321000C0FE07C088E00E942303C1E0892B09F4A7
:10322000C0E0C1FE06C089E00E942303892B09F09B
:10323000C260C2FE06C08AE00E942303892B09F007
:10324000C460C3FE06C08BE00E942303892B09F0F3
:10325000C860C4FE06C08CE00E942303892B09F0DD
:10326000C061C5FE06C08DE00E942303892B09F0D2
:10327000C062C6FE06C08EE00E942303892B09F0BF
:10328000C064C7FE06C08FE00E942303892B09F0AB
:10329000C06840E06C2F81E00E940A0D8091180404
:1032A000882309F44AC0C0900F04CC2DC170C0FE21
:1032B00007C080E10E942303C1E0892B09F4C0E02C
:1032C000C1FE06C081E10E942303892B09F0C26080
:1032D000C2FE06C082E10E942303892B09F0C4606C
:1032E000C3FE06C083E10E942303892B09F0C86056
:1032F000C4FE06C084E10E942303892B09F0C0614B
:10330000C5FE06C085E10E942303892B09F0C06237
:10331000C6FE06C086E10E942303892B09F0C06423
:10332000C7FE06C087E10E942303892B09F0C0680D
:1033300040E06C2F82E00E940A0D809119048823DE
:1033400009F44AC0C0901004CC2DC170C0FE07C063
:1033500088E10E942303C1E0892B09F4C0E0C1FE8B
:1033600006C089E10E942303892B09F0C260C2FED6
:1033700006C08AE10E942303892B09F0C460C3FEC2
:1033800006C08BE10E942303892B09F0C860C4FEAC
:1033900006C08CE10E942303892B09F0C061C5FEA1
:1033A00006C08DE10E942303892B09F0C062C6FE8E
:1033B00006C08EE10E942303892B09F0C064C7FE7A
:1033C00006C08FE10E942303892B09F0C06840E00A
:1033D0006C2F83E00E940A0D80911A04882309F45F
:1033E0004AC0C0901104CC2DC170C0FE07C080E25D
:1033F0000E942303C1E0892B09F4C0E0C1FE06C08E
:1034000081E20E942303892B09F0C260C2FE06C03C
:1034100082E20E942303892B09F0C460C3FE06C028
:1034200083E20E942303892B09F0C860C4FE06C012
:1034300084E20E942303892B09F0C061C5FE06C007
:1034400085E20E942303892B09F0C062C6FE06C0F4
:1034500086E20E942303892B09F0C064C7FE06C0E0
:1034600087E20E942303892B09F0C06840E06C2F9B
:1034700084E00E940A0D80911B04882309F44AC04D
:10348000C0901204CC2DC170C0FE07C088E20E941B
:103490002303C1E0892B09F4C0E0C1FE06C089E224
:1034A0000E942303892B09F0C260C2FE06C08AE293
:1034B0000E942303892B09F0C460C3FE06C08BE27F
:1034C0000E942303892B09F0C860C4FE06C08CE269
:1034D0000E942303892B09F0C061C5FE06C08DE25E
:1034E0000E942303892B09F0C062C6FE06C08EE24B
:1034F0000E942303892B09F0C064C7FE06C08FE237
:103500000E942303892B09F0C06840E06C2F85E0FE
:103510000E940A0D80911C04882309F44AC0C090BF
:103520001304CC2DC170C0FE07C080E30E942303AA
:10353000C1E0892B09F4C0E0C1FE06C081E30E940E
:103540002303892B09F0C260C2FE06C082E30E94F9
:103550002303892B09F0C460C3FE06C083E30E94E5
:103560002303892B09F0C860C4FE06C084E30E94CF
:103570002303892B09F0C061C5FE06C085E30E94C4
:103580002303892B09F0C062C6FE06C086E30E94B1
:103590002303892B09F0C064C7FE06C087E30E949D
:1035A0002303892B09F0C06840E06C2F86E00E945D
:1035B0000A0D80911D04882309F44AC0C0901404A8
:1035C000CC2DC170C0FE07C088E30E942303C1E078
:1035D000892B09F4C0E0C1FE06C089E30E942303E1
:1035E000892B09F0C260C2FE06C08AE30E94230351
:1035F000892B09F0C460C3FE06C08BE30E9423033D
:10360000892B09F0C860C4FE06C08CE30E94230326
:10361000892B09F0C061C5FE06C08DE30E9423031B
:10362000892B09F0C062C6FE06C08EE30E94230308
:10363000892B09F0C064C7FE06C08FE30E942303F4
:10364000892B09F0C06840E06C2F87E00E940A0DCA
:1036500080911E048823D1F1C0901504CC2DC17037
:10366000C0FE07C080E40E942303C1E0892B09F457
:10367000C0E0C1FE06C081E40E942303892B09F04B
:10368000C260C2FE06C082E40E942303892B09F0B7
:10369000C460C3FE06C083E40E942303892B09F0A3
:1036A000C860C4FE06C084E40E942303892B09F08D
:1036B000C061C5FE06C085E40E942303892B09F082
:1036C000C06240E06C2F88E00E940A0D8091CD0519
:1036D0009091CE05DC01ED91FC910084F185E02D07
:1036E0001995892B09F4D7C18091CD059091CE050C
:1036F000DC01ED91FC910284F385E02D19959C018C
:103700008F3F980719F3982F80919A05882309F421
:103710009BC0973F09F087C010929A05A09192052F
:10372000B09193056C91613709F440C0693709F095
:1037300064C0E091C705F091C805309739F28091D7
:103740009B0590919C0583309105A0F430E020E02A
:1037500050E040E070E060E08091A9059091AA05FA
:103760001995B4CF82E00E942303892B09F419CD67
:10377000C4E018CDBD016D5F7F4F03970E949D028D
:10378000BC016D5F7F4F80E00E946D02E091920569
:10379000F09193059F012D5F3F4F428150E0618181
:1037A00070E0E091C705F091C805D6CF8091C305C0
:1037B0009091C405892B09F489CFBD016F5F7F4FBC
:1037C00080919B0590919C0501970E949D02BC01F0
:1037D0006F5F7F4F80E00E946D0260919205709153
:1037E00093056F5F7F4FE091C305F091C405809111
:1037F000AF059091B005199569CFE091C505F0919D
:10380000C605309709F462CF9D012F5F3F4F40916D
:103810009B0550919C05415051098091B1059091B3
:10382000B205199553CF60919B0570919C05822F2D
:103830000E946D0280919B0590919C05019690934A
:103840009C0580939B0542CF6091980570919905E6
:103850006115710509F4B1C027FDAFC06150710950
:103860007093990560939805822F0E946D02809154
:10387000980590919905892B09F028CF809196059C
:10388000882309F423CF803D09F483C040F48039B4
:1038900049F1803C09F469C01092960517CF843F26
:1038A000E1F1853F09F44DC0803EB1F7E091B505E7
:1038B000F091B605309781F3A0919205B0919305F0
:1038C0004C9120E8429FC001112411964C91480F61
:1038D000592F511D6091970580919D0590919E05EE
:1038E0001995DACFE091B705F091B8053097A1F2BC
:1038F000A0919205B09193054C9120E8429FC001A0
:10390000112411964C91480F592F511D6091970524
:1039100080919F059091A005E3CFE091BD05F091C6
:10392000BE05309709F4B8CFA0919205B0919305E8
:103930004C9150E011966C918091A5059091A6054F
:10394000CFCFE091BF05F091C005309709F4A4CF27
:10395000A0919205B09193054C9150E011966C9115
:103960008091A7059091A805BBCFE091B905F09192
:10397000BA05309709F490CFA0919205B0919305C4
:103980004C9150E0609197058091A1059091A2051E
:10399000A7CFE091BB05F091BC05309709F47CCF2F
:1039A000A0919205B09193054C9150E060919705DC
:1039B0008091A3059091A40593CF903F30F4822F7E
:1039C0008F7080939705922F907F903FF1F190F444
:1039D000903CB1F150F4903909F078CE10939905EC
:1039E000009398059093960571CE903D49F1903ED5
:1039F000A9F36CCE993F09F442C028F48CE0890FFA
:103A0000823060F363CE9F3F09F060CE109299053B
:103A100010929805109296051092970590E080E01C
:103A2000209194053091950582179307A8F4E091B1
:103A30009205F0919305E80FF91F10820196F0CFDF
:103A4000F0929905E0929805CDCFD0929A05109208
:103A50009C0510929B053ACE10929A0510929C05F7
:103A600010929B05E091CB05F091CC058091B305B8
:103A70009091B405309709F429CE199527CEE0919D
:103A8000C905F091CA05309709F420CE8091AB05A5
:103A90009091AC05F2CF8FB7F89480904E0490903F
:103AA0004F04A0905004B09051048FBF80914904FE
:103AB00090914A04A0914B04B0914C0440910102B2
:103AC0005091020270E060E0881A990AAA0ABB0AC3
:103AD000481559056A057B0508F051C0840F951FEC
:103AE000A61FB71F8093490490934A04A0934B04E8
:103AF000B0934C048FE4A82E85E0B82ECAECC031F8
:103B0000C8F4F501ED57FF4F8081823099F4809120
:103B10004704909148040C2E02C0959587950A940D
:103B2000E2F780FF07C08C2F0E94B603BC018C2FE8
:103B30000E944B09CF5F8FEFA81AB80AC031F9F67F
:103B40008091000287FD1BC0C0E02C2F30E08091E7
:103B50000002082E000C990B8217930784F0D29F65
:103B6000F001D39FF00D1124E15EFB4F6181728162
:103B70002481438180810E941E10CF5FE6CF0E9486
:103B8000350507CB052E97FB1EF400940E94D91D26
:103B900057FD07D00E94F41D07FC03D04EF40C948F
:103BA000D91D50954095309521953F4F4F4F5F4F10
:103BB000089590958095709561957F4F8F4F9F4F99
:103BC00008950E94161EA59F900DB49F900DA49F6E
:103BD000800D911D11240895B7FF0C94E11D0E94E2
:103BE000E11D821B930B0895A1E21A2EAA1BBB1B99
:103BF000FD010DC0AA1FBB1FEE1FFF1FA217B307B9
:103C0000E407F50720F0A21BB30BE40BF50B661FCE
:103C1000771F881F991F1A9469F760957095809592
:103C200090959B01AC01BD01CF010895A29FB00109
:103C3000B39FC001A39F700D811D1124911DB29FE0
:103C4000700D811D1124911D0895991B79E004C008
:103C5000991F961708F0961B881F7A95C9F78095CB
:103C60000895EE0FFF1F881F8BBF0790F691E02D80
:103C700019940F931F93CF93DF938230910510F423
:103C800082E090E0E091C807F091C90730E020E0C1
:103C9000B0E0A0E0309799F42115310509F44AC04D
:103CA000281B390B24303105D8F58A819B81611599
:103CB000710589F1FB0193838283FE0111C040816C
:103CC00051810281138148175907E0F048175907BD
:103CD00099F4109761F012960C93129713961C9317
:103CE0003296CF01DF91CF911F910F9108950093EC
:103CF000C8071093C907F4CF2115310551F04217B9
:103D0000530738F0A901DB019A01BD01DF01F80179
:103D1000C1CFEF01F9CF9093C9078093C807CDCFEA
:103D2000FE01E20FF31F81939193225031093983F1
:103D30002883D7CF2091C6073091C707232B41F4A2
:103D400020910502309106023093C7072093C607E1
:103D500020910302309104022115310541F42DB761
:103D60003EB74091070250910802241B350BE091A9
:103D7000C607F091C707E217F307A0F42E1B3F0B0D
:103D80002817390778F0AC014E5F5F4F24173507CD
:103D900048F04E0F5F1F5093C7074093C6078193AB
:103DA00091939FCFF0E0E0E09CCFCF93DF9300971B
:103DB000E9F0FC01329713821282A091C807B091FA
:103DC000C907ED0130E020E01097A1F42081318196
:103DD000820F931F2091C6073091C7072817390714
:103DE00009F061C0F093C707E093C607DF91CF9158
:103DF0000895EA01CE17DF07E8F54A815B819E014D
:103E000041155105B1F7E901FB83EA8349915991C5
:103E1000C40FD51FEC17FD0761F4808191810296D4
:103E2000840F951FE90199838883828193819B8305
:103E30008A83F0E0E0E012968D919C9113970097B1
:103E4000B9F52D913C911197CD010296820F931FE8
:103E50002091C6073091C7072817390739F63097E0
:103E600051F51092C9071092C807B093C707A093E5
:103E7000C607BCCFD383C28340815181840F951F75
:103E8000C817D90761F44E5F5F4F88819981480F49
:103E9000591F518340838A819B819383828321159B
:103EA000310509F0B0CFF093C907E093C8079ECF62
:103EB000FD01DC01C0CF13821282D7CFFB01DC01F0
:103EC0004150504048F001900D920020C9F701C0C8
:0E3ED0001D9241505040E0F70895F894FFCF46
:103EDE00FF13000000CA07800000000000C8043273
:103EEE00045F04150590046E0482040000000015A2
:103EFE0007E8064407BE06E106CE06BF064D61780A
:103F0E0020736572766F7320617474616368656483
:103F1E0000556E6B6E6F776E2070696E206D6F64DC
:103F2E0065004932433A20546F6F206D616E7920DF
:103F3E00627974657320726563656976656400499C
:103F4E0032433A20546F6F2066657720627974652C
:103F5E00732072656365697665640031302D626920
:103F6E00742061646472657373696E67206E6F741A
:103F7E0020737570706F7274656400746F6F206D4E
:103F8E00616E792071756572696573007372635C19
:0A3F9E006D61696E2E637070000003
:00000001FF
