:100000000C9476010C94A7010C94A7010C94A70101
:100010000C94A7010C94A7010C94A7010C94A701C0
:100020000C94A7010C94A7010C94A7010C94A701B0
:100030000C94A7010C94C20E0C94A7010C94A70178
:100040000C94A7010C94150F0C94A7010C94A70114
:100050000C94A7010C94740F0C94A7010C94180E27
:100060000C94A7010C948C0E0C94620E0C94A701B6
:100070000C94A7010C94A7010C94A7010C94A70160
:100080000C94A7010C94A7010C94A7010C94A70150
:100090000C94A7010C94A7010C94A7010C94A70140
:1000A0000C94A7010C94A7010C94A7010C94A70130
:1000B0000C94A7010C94A7010C94A7010C94A70120
:1000C0000C94A7010C94A7010C94A7010C94A70110
:1000D0000C94A7010C94A7010C94A7010C94A70100
:1000E0000C94A7010C94000A0C94D30F0C94FE01FD
:1000F0000C94BC090C9432060C9407020C94F00189
:100100000C9401060C940C020C94760B0C947A0B54
:100110000C9450180C94B9120C9410060C94B60957
:100120000C9408020C946A060C94F4010C94DD17EC
:100130000C94560B0C9475180C94EC010C94E20181
:100140000C94B7060C9402020C94E6010C9445073B
:100150000C94D9010C94CD010C942C0D0C94DC0161
:100160000C94C7010C94D5010C9482160C94FA01DE
:100170000C94D1050C9406130C9426180C94D405F9
:100180000C9493140C9424060C94D1014E414E49C6
:100190004E495459494E46CDCCCC3D0AD7233C1745
:1001A000B7D13877CC2B329595E6241FB14F0A0092
:1001B0000020410000C84200401C4620BCBE4CCA82
:1001C0001B0E5AAEC59D74020100000021002400E0
:1001D00027002A002D003000330001010000040137
:1001E00007010A0100002200250028002B002E0034
:1001F0003100340002010000050108010B0100007C
:1002000020002300260029002C002F0032000001CE
:100210000000030106010901050505050705080899
:100220000808020202020A0A080804040404010180
:100230000101010101010303030303030303040795
:1002400007070C0C0C0C0C0C0C0C0202020206062C
:100250000606060606060B0B0B0B0B0B0B0B01021F
:1002600010202008081020401020408002010201C8
:100270000804020101020408102040808040201080
:1002800008040201800402018040201008040201D9
:100290000804020101020408102040800102040841
:1002A0001020408000000A0B02090C0D0E08070305
:1002B0000401000000000000000000000000000039
:1002C000000000000000000000000000000000002E
:1002D00012111000000000000000000000000000EB
:1002E00000000000000000000000D30F11241FBE1A
:1002F000CFEFD1E2DEBFCDBF00E00CBF15E0A0E044
:10030000B2E0E4EBFFE400E00BBF02C007900D9207
:10031000AA37B107D9F728E0AAE7B5E001C01D92D6
:10032000A036B207E1F711E0C6E7D1E000E006C071
:1003300021970109802FFE010E94AC23C537D10708
:1003400080E00807A9F70E94C6100C94D8270C94E7
:1003500000008150823108F05AC0E82FF0E0882771
:10036000EB54FE4F8F4F0C94AC23D501D901C7013C
:10037000CD01D1010702DC01E201E601EC01F0014F
:10038000F401FA01FE010702020208020C02809148
:1003900080008F77809380000895809180008F7D0A
:1003A000F9CF80918000877FF5CF84B58F7784BDAA
:1003B000089584B58F7DFBCF8091B0008F778093B7
:1003C000B00008958091B0008F7DF9CF80919000AA
:1003D0008F77809390000895809190008F7DF9CF62
:1003E00080919000877FF5CF8091A0008F778093D8
:1003F000A00008958091A0008F7DF9CF8091A0008A
:10040000877FF5CF809120018F7780932001089519
:10041000809120018F7DF9CF80912001877FF5CFDA
:10042000CF93DF93282F30E0F901EC55FD4F8491F5
:10043000F901E25AFD4FD491F901E85EFD4FC491F4
:10044000CC23A1F081110E94A901EC2FF0E0EE0F66
:10045000FF1FE250FE4FA591B491EC91ED2381E096
:1004600090E009F480E0DF91CF91089580E090E082
:10047000FACF1F93CF93DF93282F30E0F901EC558B
:10048000FD4F8491F901E25AFD4FD491F901E85EE4
:10049000FD4FC491CC23A9F0162F81110E94A90110
:1004A000EC2FF0E0EE0FFF1FEC51FE4FA591B49141
:1004B0008FB7F894EC91111108C0D095DE23DC932E
:1004C0008FBFDF91CF911F910895DE2BF8CFCF938F
:1004D000DF9390E0FC01E25AFD4F2491885E9D4F2E
:1004E000FC0184918823D1F090E0880F991FFC01D2
:1004F000E653FE4FA591B491FC01EC51FE4FC5911E
:10050000D49161110EC09FB7F8948C91E22FE095C1
:100510008E238C932881E223E8839FBFDF91CF91C4
:1005200008958FB7F894EC91E22BEC938FBFF6CF40
:100530004F925F926F927F928F929F92AF92BF92F3
:10054000CF92DF92EF92FF920F931F93CF93DF939F
:1005500000D01F921F92CDB7DEB720917D0727FDF7
:100560002CC149835A836B837C838C0161E0809129
:100570007C070E94670280917D078D834801B12C22
:10058000A12C8D7F09F031C160E072E18AE790E033
:10059000A50198010E94572329013A017A016901B6
:1005A00091E0C91AD108E108F108AFEFCA16D104E9
:1005B000E104F10409F00CF4C7C060E472E48FE0D8
:1005C00090E0A50198010E94572369017A01B1E0EA
:1005D000CB1AD108E108F1088D81823009F06AC098
:1005E00082E09FEFC916D104E104F10409F00CF494
:1005F0005EC160E970ED83E090E0A50198010E9482
:10060000572369017A01A1E0CA1AD108E108F1086B
:1006100083E0BFEFCB16D104E104F10409F00CF440
:1006200046C168E478EE81E090E0A50198010E945F
:10063000572369017A0181E0C81AD108E108F1085D
:1006400084E09FEFC916D104E104F10409F00CF431
:100650002EC164E274EF80E090E0A50194010E9455
:10066000572369017A01B1E0CB1AD108E108F108FA
:1006700085E09FEFC916D104E104F10409F008F404
:1006800016C162E17AE780E090E0A50194010E9442
:10069000572369017A01B1E0CB1AD108E108F108CA
:1006A0008FEFC816D104E104F10411F008F0F0C096
:1006B00086E0FDC08FEFC816D104E104F10409F013
:1006C0000CF491C068E478EE81E090E0A501980117
:1006D0000E94572369017A0191E0C91AD108E10803
:1006E000F108AD8184E0A111C4CF83E0AFEFCA1659
:1006F000D104E104F10461F15CF162E17AE780E0A8
:1007000090E0A50194010E94572369017A0181E0DC
:10071000C81AD108E108F10884E09FEFC916D10496
:10072000E104F104A9F0A0F0730162019AE0F594EC
:10073000E794D794C7949A95D1F7A1E0CA1AD10843
:10074000E108F10885E004C081E0AD81A111AFC0EE
:1007500095B5987F892B85BD89819A81AB81BC81B4
:100760002FEF3FEFA901892B8A2B8B2B79F0D80132
:10077000AA0FBB1F29813A814B815C810E9476239D
:1007800028EE33E040E050E00E9435239D81913017
:1007900009F45CC0923009F46BC091110EC0C7BC63
:1007A000209378073093790740937A0750937B071B
:1007B00080916E00826080936E000F900F900F907A
:1007C0000F900F90DF91CF911F910F91FF90EF90BD
:1007D000DF90CF90BF90AF909F908F907F906F9061
:1007E0005F904F90089582E0B0CF60E072E18AE7B9
:1007F00090E0A50198010E94572369017A01B1E0B8
:10080000CB1AD108E108F10891E0C114D10481E0CC
:10081000E806F10484F068E478EE81E090E0A50158
:1008200098010E94572369017A0191E0C91AD10801
:10083000E108F10893E0AD81A13009F08DCF8091FE
:100840008100887F892B8093810086CFD092890098
:10085000C092880020937407309375074093760701
:100860005093770780916F00826080936F00A5CFCF
:10087000C092B300209370073093710740937207C2
:10088000509373078091700082608093700095CFC1
:10089000730162018AE0F594E794D794C7948A952E
:1008A000D1F7B1E0CB1AD108E108F10887E09091C7
:1008B000B100987F892B8093B1004ECF3FB7F89459
:1008C00080916C0790916D07A0916E07B0916F07B2
:1008D00026B5A89B05C02F3F19F00196A11DB11D9B
:1008E0003FBFBA2FA92F982F8827BC01CD01620FD7
:1008F000711D811D911D42E0660F771F881F991F92
:100900004A95D1F708958F929F92AF92BF92CF925E
:10091000DF92EF92FF924B015C010E945E046B013B
:100920007C010E945E046C197D098E099F09683E56
:10093000734081059105A8F321E0821A9108A1086E
:10094000B10888EEC80E83E0D81EE11CF11C8114AA
:100950009104A104B10429F7FF90EF90DF90CF90AC
:10096000BF90AF909F908F9008952FB7F8946091AB
:1009700068077091690780916A0790916B072FBF94
:1009800008954F925F926F927F929F92AF92BF9223
:10099000CF92DF92EF92FF920F931F93CF93DF934B
:1009A00000D0CDB7DEB7D82E80915408909155086D
:1009B000A0915608B0915708892B8A2B8B2BD9F020
:1009C0000E945E0400918607109187072091880796
:1009D00030918907601B710B820B930B00915408B7
:1009E00010915508209156083091570860177107EB
:1009F00082079307C8F20E945E0460938607709393
:100A000087078093880790938907E0915C08F091AD
:100A10005D08309759F040915808509159086091FD
:100A20005A0870915B088D2D1995D82EE090840797
:100A3000F09085074D2C512C712C612CE114F104A0
:100A400009F459C0D7011C96CC901C97809152088C
:100A5000909153088436910510F41C961C92D7018E
:100A6000ED91FC91A280B38019821A821B82DD2055
:100A700079F1F701369610E000E02191222319F177
:100A80009280992001F130E050E040E02F5F3F4F2D
:100A90004F4F5F4FC301B2010E9425239B01AC0160
:100AA000892D90E0B0E0A0E0BC01CD016F5F7F4FE9
:100AB0008F4F9F4F0E942523A1E0B0E0AC0FBD1FD8
:100AC000A00FB11F8C930F5F1F4F03301105A9F6C4
:100AD00009811A812B81F7014585568562817381D1
:100AE000C701F5011995D7011C96CC921C97149655
:100AF000ED90FC90A3CF80918207909183078C01A9
:100B00000F5F1F4F10938307009382074997B4F13B
:100B10000E94B504C0907E07D0907F07E0908007C8
:100B2000F09081079B01AC012C193D094E095F092A
:100B300021F421E030E040E050E088EE93E0089FAF
:100B4000B001099F700D189F700D1124072E000C25
:100B5000880B990B0E943523309353082093520839
:100B600010928307109282070E94B50460937E075B
:100B700070937F0780938007909381070F900F9069
:100B80000F90DF91CF911F910F91FF90EF90DF9029
:100B9000CF90BF90AF909F907F906F905F904F905D
:100BA000089580E991E00895AF92BF92CF92DF92CD
:100BB000EF92FF920F931F93CF93DF936C017B0112
:100BC0008B01040F151FEB015E01AE18BF08C017A3
:100BD000D10759F06991D601ED91FC910190F08116
:100BE000E02DC6011995892B79F7C501DF91CF91C9
:100BF0001F910F91FF90EF90DF90CF90BF90AF903B
:100C00000895FC01538D448D252F30E0842F90E012
:100C1000821B930B541710F0CF96089501970895F7
:100C2000FC01918D828D981761F0A28DAE0FBF2FC0
:100C3000B11D5D968C91928D9F5F9F73928F90E016
:100C400008958FEF9FEF0895FC01918D828D981785
:100C500031F0828DE80FF11D858D90E008958FEFC2
:100C60009FEF0895FC01918D228D892F90E0805C8B
:100C70009F4F821B91098F73992708958AE897E007
:100C80000E94320621E0892B09F420E0822F08958A
:100C9000FC01A48DA80FB92FB11DA35ABF4F2C91F1
:100CA000848D90E001968F739927848FA689B789E8
:100CB0002C93A089B1898C91837080648C93938DDF
:100CC000848D981306C00288F389E02D80818F7D82
:100CD00080830895EF92FF920F931F93CF93DF933A
:100CE000EC0181E0888F9B8D8C8D98131AC0E88968
:100CF000F989808185FF15C09FB7F894EE89FF8937
:100D00006083E889F98980818370806480839FBFD4
:100D100081E090E0DF91CF911F910F91FF90EF90D4
:100D20000895F62E0B8D10E00F5F1F4F0F731127E4
:100D3000E02E8C8D8E110CC00FB607FCFACFE8891F
:100D4000F989808185FFF5CFCE010E944806F1CF59
:100D5000EB8DEC0FFD2FF11DE35AFF4FF0829FB793
:100D6000F8940B8FEA89FB8980818062CFCFCF9383
:100D7000DF93EC01888D8823B9F0AA89BB89E889C3
:100D8000F9898C9185FD03C0808186FD0DC00FB669
:100D900007FCF7CF8C9185FFF2CF808185FFEDCFE7
:100DA000CE010E944806E9CFDF91CF91089580E0FF
:100DB00090E0892B29F00E943E0681110E940000DC
:100DC00080E090E0892B49F080E090E0892B29F0C9
:100DD0000E94000081110E94000080E090E0892BB9
:100DE00049F080E090E0892B29F00E9400008111F9
:100DF0000E94000080E090E0892B49F080E090E0C4
:100E0000892B29F00E94000081110C9400000895A4
:100E10000F931F93CF93DF932091FC052F5F322F09
:100E200037703093FC0520FF2BC020E831FD206493
:100E3000347009F02062205FFC01EC01239600E091
:100E400011E06485662329F070E0C8010E949823B0
:100E50006F5F6187322F369F030E30E0311D112402
:100E6000311110C01682662311F0615061873196EE
:100E7000EC17FD0731F7DF91CF911F910F91089586
:100E800020E0D4CF31503683EECF6F927F928F9295
:100E90009F92AF92BF92CF92DF92EF92FF920F9309
:100EA0001F93CF93DF933C01EB010E945E04F3019B
:100EB00027853089621B730B6A307105B0F3F89493
:100EC000E881F98150910B01526040910B014D7FF7
:100ED00040930B01EA848F812E2D281B822F2F83B4
:100EE000DF84AA81BB816D857C85FE846F5F7F5F17
:100EF000F3949E813885B984AB84118120E0C32EA0
:100F0000022F322F3181112788943111380F08F4C4
:100F10003FEF8195889460FD130F1795889461FDCC
:100F2000130F1795889462FD130F1795889463FD2E
:100F3000130F1795889464FD130F1795889465FD1A
:100F4000130F1795889466FD130F1795889467FD06
:100F5000130F17958894232F6111212F8E0D122FB7
:100F6000002C50930B01002C17FF40930B01308194
:100F70002227889400C000C040930B013111390F23
:100F800000C050930B01002C16FF40930B0108F496
:100F90003FEF9195889400C000C040930B0170FD15
:100FA000230F00C050930B01002C15FF40930B0141
:100FB0002795889471FD230F00C000C040930B015A
:100FC0002795889400C050930B01002C14FF409388
:100FD0000B0172FD230F2795889400C000C0409339
:100FE0000B0173FD230F00C050930B01002C13FF66
:100FF00040930B012795889474FD230F00C000C017
:1010000040930B012795889400C050930B01002C4E
:1010100012FF40930B0175FD230F2795889400C0A4
:1010200000C040930B0176FD230F00C050930B01CD
:10103000002C11FF40930B012795889477FD230F17
:1010400000C000C040930B012795889400C05093C6
:101050000B01002C10FF40930B01132F7111122F65
:101060009B0D00C000C040930B0100C000C0509316
:101070000B01002C17FF40930B013281222788942B
:1010800000C000C040930B0131113C0D00C05093D3
:101090000B01002C16FF40930B0108F43FEFED0D00
:1010A000F11D00C000C040930B01F0FC230F00C0F5
:1010B00050930B01002C15FF40930B01279588944A
:1010C000F1FC230F00C000C040930B0127958894CA
:1010D00000C050930B01002C14FF40930B01F2FC55
:1010E000230F2795889400C000C040930B01F3FCA8
:1010F000230F00C050930B01002C13FF40930B01F2
:1011000027958894F4FC230F00C000C040930B0186
:101110002795889400C050930B01002C12FF409338
:101120000B01F5FC230F2795889400C000C0409365
:101130000B01F6FC230F00C050930B01002C11FF94
:1011400040930B0127958894F7FC230F00C000C043
:1011500040930B012795889400C050930B01002CFD
:1011600010FF40930B01132FF110122FC19400C0F8
:1011700000C040930B01CA0C00C0002C50930B011F
:10118000002C17FF40930B0131812227889400C067
:1011900000C040930B013111380F00C050930B0178
:1011A000002C16FF40930B0108F43FEF81958894C3
:1011B00000C000C040930B0160FD230F00C050939E
:1011C0000B01002C15FF40930B012795889461FDBE
:1011D000230F00C000C040930B012795889400C0E6
:1011E00050930B01002C14FF40930B0162FD230F61
:1011F0002795889400C000C040930B0163FD230F26
:1012000000C050930B01002C13FF40930B01279556
:10121000889464FD230F00C000C040930B01279504
:10122000889400C050930B01002C12FF40930B01D7
:1012300065FD230F2795889400C000C040930B01E3
:1012400066FD230F00C050930B01002C11FF40934B
:101250000B012795889467FD230F00C000C04093C1
:101260000B012795889400C050930B01002C10FFB0
:1012700040930B01132F6111122F8E0D00C000C07F
:1012800040930B01119709F06CCE4A815B8120EEEF
:1012900031E0DA010E94B423DC01CB01F4E0B69521
:1012A000A79597958795FA95D1F730E020E0B90199
:1012B000EAE94E9F040E611D5E9F600D711D1124B1
:1012C000650F711D860F971FA11DB11D893E43E05B
:1012D0009407A105B10508F434C0885E9340A109C4
:1012E000B10942E0B695A795979587954A95D1F7AC
:1012F00047E0849F080E211D949F200D311D11246D
:10130000290F311D6091FB0570E0860F971F820F3A
:10131000931F409168075091690760916A07709127
:101320006B07292F3327420F531F611D711D4093F7
:1013300068075093690760936A0770936B078093FF
:10134000FB0578940E945E04F301708B6787DF9140
:10135000CF911F910F91FF90EF90DF90CF90BF90B2
:10136000AF909F908F907F906F900895EAE0F1E0AA
:101370008081826080830895EF92FF920F931F9384
:10138000CF93DF93CDB7DEB762970FB6F894DEBF89
:101390000FBECDBF7C01DC011C968C917A836983E2
:1013A0005C834B835E834D830D871E872F8781303F
:1013B00001F5CE0101960E94080783E0888B1A8A06
:1013C000198AD701ED91FC910484F585E02DBE01C9
:1013D0006F5F7F4FC701199562960FB6F894DEBF15
:1013E0000FBECDBFDF91CF911F910F91FF90EF9076
:1013F00008951C861B861A86198618861F82DDCFE3
:10140000EF92FF920F931F93CF93DF93CDB7DEB789
:1014100062970FB6F894DEBF0FBECDBF7C01DC0132
:101420001C968C917A8369835C834B835E834D83A6
:101430000D871E872F878130F9F4CE0101960E9417
:101440000807188A1A8A198AD701ED91FC91048439
:10145000F585E02DBE016F5F7F4FC701199562963C
:101460000FB6F894DEBF0FBECDBFDF91CF911F91B5
:101470000F91FF90EF9008951C861B861A8619869F
:1014800018861F82DECF0F931F938091400688231A
:10149000B9F061E084E30E94390261E088E20E94D1
:1014A000390281E08093FA05109240060E94B5044B
:1014B0006093290870932A0880932B0890932C0836
:1014C0008091FA058823E9F00E94B504009129086B
:1014D00010912A0820912B0830912C08601B710B69
:1014E000820B930B653671058105910550F060E024
:1014F00084E30E94390260E088E20E94390210927F
:10150000FA051F910F91089540915B0250915C0282
:1015100060915D0270915E0280915302909154023D
:1015200020912B06211106C020914F0230915002CC
:10153000820F931F0C94980240915B0250915C02C1
:1015400060915D0270915E0280915302909154020D
:1015500020912B06211106C020914F02309150029C
:10156000821B930B0C949802E2E2F6E01082118247
:101570001282138214821582809151080C94C10446
:101580000F931F93E2E2F6E068E276E005E550E0B3
:10159000ABEABAEA10914B0230914D02932F990FAA
:1015A000990F990F292F209F020E20E0211D112451
:1015B000822F232F2074432F407237FD53C02111F7
:1015C0003EC0411106C0982F9095382F892F90E08A
:1015D00004C035E5380F90E08BEA1F3F09F421C0C5
:1015E000252F112321F0119F212D09F02F5F222398
:1015F00009F458C0882331F0482F429F040E40E080
:10160000411D842F332321F0329F030E30E0311D22
:10161000992331F0492F429F040E40E0411D942F41
:10162000112480833183928333966E177F0709F0EC
:10163000B1CF809151081F910F910C94C1044111B9
:101640000CC0292F3B2F239F020E20E0211D1124C7
:101650009A2F921B3AEA380FB9CF382F3095982F2E
:1016600080E0BBCF211112C041110CC0292F4B2F9C
:10167000249F020E20E0211D11243A2F321B95E5F4
:10168000920FEECF982F909530E0A7CF411106C072
:1016900025E5280F9A2F981B822FF6CF2AEA280FCC
:1016A000902FF9CF90E030E080E0BBCF0F931F93F5
:1016B000CF93DF9300D0CDB7DEB7AB0119821A828A
:1016C0001B82DC01ED91FC910190F081E02D00E0A6
:1016D00010E020E0BE016F5F7F4F19950F900F90D3
:1016E0000F90DF91CF911F910F910895FC01858597
:1016F0009685089590E080E008950E94E61E28EE09
:1017000033E040E050E00E9457230E94082220E08E
:1017100030E04AE754E40E943C2420E030E0A90194
:101720000E94012287FD05C060E679E080E090E03C
:10173000089560ED77E080E090E008950E94E61E55
:1017400028EE33E040E050E00E9457230E94082238
:1017500020E030E04AE754E40E943C2420E030E0FE
:1017600040E85FE30E94012287FD05C068EE73E058
:1017700080E090E0089568E572E080E090E00895F0
:10178000FC0101900020E9F73197AF01481B590B8C
:10179000BC018AE897E00C94D4058F929F92AF9297
:1017A000BF920F931F93CF93DF93CDB7DEB7A1976F
:1017B0000FB6F894DEBF0FBECDBF19A2423008F4B9
:1017C0004AE08E010F5D1F4F842E912CB12CA12C6D
:1017D000A50194010E943523E62FB901CA01EA3020
:1017E000F4F4E05DD801EE938D01232B242B252BFF
:1017F00079F790E080E0109719F0CD010E94C00BBE
:10180000A1960FB6F894DEBF0FBECDBFDF91CF918A
:101810001F910F91BF90AF909F908F900895E95CBA
:10182000E1CFCF93DF930E94C00BEC018FE992E0F0
:101830000E94C00B8C0F9D1FDF91CF910895CF9315
:10184000DF93EC010E94B5049F938F937F936F9376
:10185000DF93CF9382EA92E09F938F931F9280E869
:101860008F938AE795E09F938F930E94F5248DB71D
:101870009EB70C960FB6F8949EBF0FBE8DBF8AE739
:1018800095E0DF91CF910C94110CCF93DF93C09131
:101890004106D0914206D0930E02C0930D020E94E1
:1018A000B50460934D0870934E0880934F08909351
:1018B0005008CE01DF91CF910C941F0C0F931F9312
:1018C0000E94B504009141081091420820914308FC
:1018D00030914408601B710B820B930B6B3F7105B9
:1018E00081059105D0F087E390E00E941F0C809164
:1018F000370290913802019799F489E390E00E94B1
:101900001F0C0E94840A0E94B504609341087093E2
:10191000420880934308909344081F910F910895C3
:1019200088E390E0ECCF0F931F930E94B5040091E1
:101930004108109142082091430830914408601BEF
:10194000710B820B930B6B3F710581059105D0F0F4
:1019500086E390E00E941F0C80913702909138023C
:10196000019799F488E390E00E941F0C0E949C0A62
:101970000E94B50460934108709342088093430825
:10198000909344081F910F91089589E390E0ECCF64
:10199000EF92FF920F931F93CF93DF93EC01142FDD
:1019A000052FF62EE72E0E94B5049F938F937F9309
:1019B0006F93EF92FF920F931F93DF93CF9389EA78
:1019C00092E09F938F931F9280E88F938AE795E030
:1019D0009F938F930E94F5248DB79EB740960FB6C4
:1019E000F8949EBF0FBE8DBF8AE795E0DF91CF913F
:1019F0001F910F91FF90EF900C94110C0F931F9378
:101A0000CF93DF93EC01162F072F0E94B5049F930D
:101A10008F937F936F930F931F93DF93CF938AEBF3
:101A200092E09F938F931F9280E88F938AE795E0CF
:101A30009F938F930E94F5248DB79EB70E960FB695
:101A4000F8949EBF0FBE8DBF8AE795E0DF91CF91DE
:101A50001F910F910C94110C0E94E7248F929F927A
:101A6000AF92BF92CF92DF92EF92FF926A017B0119
:101A70009F938F938AEC92E09F938F931F9280E8BD
:101A80008F938AE795E09F938F930E94F5248AE7CE
:101A900095E00E94C00B8DB79EB708960FB6F894DC
:101AA0009EBF0FBE8DBFA7019601C701B6010E9460
:101AB000E224882359F183ED92E00E94C00B0E943A
:101AC000B5049F938F937F936F9384EC92E09F93E1
:101AD0008F931F9280E88F938AE795E09F938F936F
:101AE0000E94F5248DB79EB70A960FB6F8949EBF54
:101AF0000FBE8DBF8AE795E0FF90EF90DF90CF900B
:101B0000BF90AF909F908F900C94110C460157019D
:101B1000E894B7F82FEF3FEF4FE75FE7C501B40157
:101B20000E94E22481110DC02FEF3FEF4FE75FE7E6
:101B3000C501B4010E94012218161CF487ED92E041
:101B4000BCCF2FEF3FEF4FE75FE4C701B6010E9424
:101B5000DD2418161CF48BED92E0AFCF2FEF3FEF92
:101B60004FE75FECC701B6010E94012287FDF3CF6A
:101B700020E030E0A901C701B6010E94012287FFE1
:101B800009C06DE28AE897E00E946A06F7FAF094CD
:101B9000F7F8F0942AE037ED43EA5BE3C701B601BA
:101BA0000E94D0234B015C010E94AE246B017C019A
:101BB0000E9406229B01AC01C501B4010E94CF2303
:101BC0004B015C014AE0C701B6010E94CD0B6EE2F9
:101BD0008AE897E00E946A0620E030E040E251E4A3
:101BE000C501B4010E9467224B015C010E94AE2432
:101BF0006B01F12CE12C4AE0C701B6010E94CD0B2C
:101C0000C701B6010E9406229B01AC01C501B401C7
:101C10000E94CF2320E030E040E251E40E9467229E
:101C20000E94AE2490E080E04AE00E94CD0B47CFB6
:101C30001F920F920FB60F9211242F933F938F9301
:101C40009F93AF93BF938091680790916907A0918C
:101C50006A07B0916B073091670723E0230F2D3798
:101C600058F50196A11DB11D209367078093680761
:101C700090936907A0936A07B0936B0780916C07F4
:101C800090916D07A0916E07B0916F070196A11D0D
:101C9000B11D80936C0790936D07A0936E07B0936E
:101CA0006F07BF91AF919F918F913F912F910F90AF
:101CB0000FBE0F901F90189526E8230F0296A11DC6
:101CC000B11DD2CF1F920F920FB60F9211240BB6F7
:101CD0000F922F933F934F935F936F937F938F93C5
:101CE0009F93AF93BF93EF93FF938AE897E00E948F
:101CF0004806FF91EF91BF91AF919F918F917F9196
:101D00006F915F914F913F912F910F900BBE0F906C
:101D10000FBE0F901F9018951F920F920FB60F9243
:101D200011240BB60F922F938F939F93EF93FF93F2
:101D3000E0919A07F0919B078081E091A007F091D4
:101D4000A10782FD1DC090818091A3078F5F8F73D3
:101D50002091A407821741F0E091A307F0E0E65735
:101D6000F84F958F8093A307FF91EF919F918F91EB
:101D70002F910F900BBE0F900FBE0F901F901895D4
:101D80008081F2CF1F920F920FB60F9211240BB6E3
:101D90000F922F933F938F939F93AF93BF93EF93A4
:101DA000FF938091700790917107A0917207B09195
:101DB00073070097A105B10541F13091FD05E09150
:101DC000FE05F091FF0520812327208318161906B0
:101DD0001A061B061CF40197A109B109809370072C
:101DE00090937107A0937207B0937307FF91EF91DF
:101DF000BF91AF919F918F913F912F910F900BBE0B
:101E00000F900FBE0F901F901895209170002D7F9E
:101E1000209370002091FD05E091FE05F091FF05F3
:101E20003081209523232083D9CF1F920F920FB6A4
:101E30000F9211240BB60F928F939F93AF93BF9382
:101E4000EF93FF938091740790917507A0917607A7
:101E5000B0917707892B8A2B8B2BB1F190910006DB
:101E6000E0910106F09102068081892780838091AC
:101E7000740790917507A0917607B09177071816AF
:101E800019061A061B069CF4809174079091750739
:101E9000A0917607B09177070197A109B1098093C6
:101EA000740790937507A0937607B0937707FF9117
:101EB000EF91BF91AF919F918F910F900BBE0F90BB
:101EC0000FBE0F901F90189580916F008D7F8093AB
:101ED0006F0080910006E0910106F091020690816A
:101EE000809589238083E3CF1F920F920FB60F92C4
:101EF00011240BB60F928F939F93AF93BF93EF93E1
:101F0000FF938091780790917907A0917A07B0911B
:101F10007B07892B8A2B8B2BB1F190910306E091E3
:101F20000406F091050680818927808380917807D7
:101F300090917907A0917A07B0917B07181619063E
:101F40001A061B069CF48091780790917907A0915E
:101F50007A07B0917B070197A109B10980937807AF
:101F600090937907A0937A07B0937B07FF91EF9145
:101F7000BF91AF919F918F910F900BBE0F900FBEAD
:101F80000F901F90189580916E008D7F80936E004A
:101F900080910306E0910406F091050690818095FA
:101FA00089238083E3CF8F929F92AF92BF92CF928B
:101FB000DF92EF92FF9210928D0710928C0788EEBD
:101FC00093E0A0E0B0E080938E0790938F07A093FA
:101FD0009007B093910781E992E090938B078093EB
:101FE0008A0785EC90E0909397078093960784EC9E
:101FF00090E0909399078093980780EC90E09093FD
:102000009B0780939A0781EC90E090939D078093C3
:102010009C0782EC90E090939F0780939E0786EC4C
:1020200090E09093A1078093A0071092A3071092CD
:10203000A4071092A5071092A607CC24CA94DC2C02
:102040007601C0924D08D0924E08E0924F08F0926F
:102050005008C0924908D0924A08E0924B08F0928A
:102060004C08C0924508D0924608E0924708F0928A
:102070004808C0924108D0924208E0924308F0928A
:102080004408C0923D08D0923E08E0923F08F0928A
:1020900040082091630230916402409165025091A2
:1020A0006602A8EEB3E00E9476236093390870932D
:1020B0003A0880933B0890933C08C0923508D09230
:1020C0003608E0923708F0923808C0923108D09272
:1020D0003208E0923308F0923408C0922D08D09272
:1020E0002E08E0922F08F0923008C0922908D09272
:1020F0002A08E0922B08F0922C08C0906102D09040
:1021000062020D2C000CEE08FF0880905F02909098
:102110006002092C000CAA08BB088C149D04AE04B4
:10212000BF048CF4C818D908EA08FB0841F00E94E3
:10213000E61EA70196010E9457236B017C018C0CBF
:102140009D1CAE1CBF1C90922808809227088FEF20
:1021500080935108109253081092520810925D0813
:1021600010925C088FEF9FEFDC01809358089093EA
:102170005908A0935A08B0935B08FF90EF90DF9046
:10218000CF90BF90AF909F908F900895CF93DF93A3
:1021900000D000D01F921F92CDB7DEB7789484B5DF
:1021A000826084BD84B5816084BD85B5826085BD53
:1021B00085B5816085BD80916E00816080936E00E1
:1021C00010928100809181008260809381008091D3
:1021D0008100816080938100809180008160809384
:1021E00080008091B10084608093B1008091B00044
:1021F00081608093B0008091910082608093910013
:102200008091910081608093910080919000816025
:10221000809390008091A10082608093A1008091C2
:10222000A10081608093A1008091A00081608093D3
:10223000A000809121018260809321018091210181
:102240008160809321018091200181608093200131
:1022500080917A00846080937A0080917A00826015
:1022600080937A0080917A00816080937A008091D7
:102270007A00806880937A001092C10068EE73E063
:1022800080E090E00E948304E0919A07F0919B0720
:1022900082E08083E0919607F09197071082E091A9
:1022A0009807F091990780E180831092A207E0914E
:1022B0009E07F0919F0786E08083E0919C07F09154
:1022C0009D07808180618083E0919C07F0919D074C
:1022D000808188608083E0919C07F0919D078081D8
:1022E00080688083E0919C07F0919D0780818F7DBD
:1022F000808360E083E30E94670260E082E30E94E3
:10230000670261E084E30E94670261E088E20E9464
:10231000670261E082E00E946702809106068330D6
:1023200008F023C19EE290937C07E82FF0E0E95388
:10233000FE4FE491E0937D078F5F80930606E130C6
:1023400009F4C5C008F4A2C0E23009F4E7C08091E6
:102350001A06811145C010920C0610920B068FEFE1
:1023600080930F06809310068093110680931206C7
:10237000809313068093140681E0809315061092D3
:1023800017061092160610920E0610920D068091F6
:10239000840790918507892B31F489E096E090932A
:1023A000850780938407E0910706F091080630972F
:1023B00021F089E096E09583848389E096E090930C
:1023C00008068093070610921906109218068FE7E8
:1023D00092E090930A068093090681E080931A06A2
:1023E00080910A01826080930A0182E296E09093D4
:1023F0000C0680930B0682E090E090931706809382
:1024000016068091540890915508A0915608B091F5
:102410005708843C29E09207A105B10520F484EC1B
:1024200099E0A0E0B0E08093540890935508A09301
:102430005608B09357080E94B40A8FED92E00E94AC
:10244000110C68EE73E080E090E00E948304DD24CC
:10245000D3943FE7C32E80916607882309F4A5C271
:10246000E0914106F0914206E830F10508F09DC286
:102470008827E25CFD4E8F4F0C94AC23DD17B91218
:1024800006139314821626187518501814BC15BC20
:1024900084B5826084BD85B5816085BD80917C07EF
:1024A00090E0FC01E85EFD4FE491F0E0EE0FFF1FCD
:1024B000EC51FE4F2591349130930506209304068C
:1024C000FC01E25AFD4FE491E093030640CF1092E5
:1024D000800010928100809181008860809381004B
:1024E0008091810081608093810080917C0790E0E1
:1024F000FC01E85EFD4FE491F0E0EE0FFF1FEC51B0
:10250000FE4F259134913093020620930106FC0181
:10251000E25AFD4FE491E093000619CF1092B0000B
:102520001092B1008091B00082608093B0008091E1
:10253000B10081608093B10080917C0790E0FC0144
:10254000E85EFD4FE491F0E0EE0FFF1FEC51FE4F0F
:10255000259134913093FF052093FE05FC01E25A4A
:10256000FD4FE491E093FD05F2CE8FEF80937D0760
:10257000EECE80910D0290910E02019741F00E94E3
:10258000450C84E190E00E941F0C0E94B40A209147
:1025900041063091420680910D0290910E0228175B
:1025A000390709F002C28091190290911A02892B11
:1025B00031F58CE10E941002019709F0F6C10E94EA
:1025C000B5040091450810914608209147083091C4
:1025D0004808601B710B820B930B00911F02109136
:1025E00020022091210230912202061717072807A6
:1025F000390708F0DAC180914C068111D6C122E07A
:1026000030E03093420620934106CFC180910D0205
:1026100090910E02029709F476C10E94450C85E163
:1026200090E00E941F0C80915F06909160060197D8
:1026300071F4409157025091580260915902709183
:102640005A0280915302909154020E949802D092B3
:1026500040060E94430A8091270290912802019728
:1026600061F580912C06811116C080912502909110
:10267000260220913A0630913B06281739073CF490
:1026800020913806309139062817390724F0D09266
:102690002C0610922B0680912C06882391F0209115
:1026A0003C0630913D068091230290912402281728
:1026B00039070CF448C010922C0680912C06811129
:1026C00042C00E94E61E28EE33E040E050E00E9447
:1026D00057230E94082220E030E04AE754E40E9499
:1026E0003C2420911502309116024091170250911E
:1026F00018020E94DD2418160CF008C186E090E054
:1027000090933F0680933E060E94E61E28EE33E03B
:1027100040E050E00E9457230E94082220E030E071
:102720004AE754E40E943C242091590630915A060D
:1027300040915B0650915C060E940122880F880B35
:102740008D2180932B062091290630912A068091B5
:10275000290290912A028217930754F48091000273
:10276000882331F010923A0210923902109200023E
:10277000809128068823C1F180914B06811134C0D5
:1027800010923A02109239021092370610923606D1
:10279000109228068090610290906202092C000C31
:1027A000AA08BB0840905F0250906002052C000C04
:1027B00066087708481459046A047B048CF484186A
:1027C0009508A608B70841F00E94E61EA5019401ED
:1027D0000E9457234B015C01480C591C6A1C7B1C4E
:1027E00050922808409227082091360630913706EB
:1027F00080912708909128088217930764F48091AC
:102800002806811108C081E090E090933A028093FD
:102810003902D092280680913E0690913F06069795
:1028200089F48091370290913802892B09F075C0A4
:102830000E949E0B6093090270930A0280930B0220
:1028400090930C0280913E0690913F06049789F484
:102850008091370290913802019709F061C00E947F
:102860009E0B6093090270930A0280930B0290936F
:102870000C024091090250910A0260910B02709182
:102880000C0286E093E00E94C80C60913E067091B5
:102890003F0684E193E00E94FE0C60912C0670E0FC
:1028A00081E293E00E94FE0C60912B0670E089E2C9
:1028B00095E00E94FE0C6091390270913A028EE21E
:1028C00093E00E94FE0C6091290670912A0682E432
:1028D00093E00E94FE0C609136067091370680E509
:1028E00093E00E94FE0C6091280670E08DE593E075
:1028F0000E94FE0C8091290690912A0601969093E1
:102900002A068093290623E030E07BCE24E030E0E5
:1029100030933F0620933E06F7CE0E947D0B8ACF70
:102920000E947D0B9ECF80910D0290910E02039725
:1029300011F00E94450C0E94B50400914D081091C1
:102940004E0820914F0830915008601B710B820B8C
:10295000930B0091090210910A0220910B02309111
:102960000C020617170728073907F8F480913E066E
:1029700090913F06049711F40E94930C80913E06BB
:1029800090913F06069711F40E945E0C80913902E7
:1029900090913A0224E030E0019709F032CE85E0D0
:1029A00090E0909342068093410680911002882324
:1029B00009F449C080915806882309F469C061E090
:1029C00085E00E9439028EE090E00E941F0C109278
:1029D000100260913302709134028091350290911F
:1029E00036020E9406220E94AE240E9406222091F6
:1029F0002F023091300240913102509132020E94F8
:102A00003C240E94AE24609347067093480680934E
:102A1000490690934A060E94B5046093310870936A
:102A200032088093330890933408109258068091AE
:102A30005706882341F00E949C0A10925706809105
:102A40001002811125C00E94B50400913108109137
:102A500032082091330830913408601B710B820BCF
:102A6000930B00914706109148062091490630913A
:102A70004A06061717072807390750F460E085E073
:102A80000E9439028FE090E00E941F0CD092100249
:102A900080910F02882309F449C08091560688234B
:102AA00009F469C061E084E00E94390280E190E0AD
:102AB0000E941F0C10920F02609133027091340239
:102AC00080913502909136020E9406220E94AE2427
:102AD0000E94062220912B0230912C0240912D025F
:102AE00050912E020E943C240E94AE246093430623
:102AF0007093440680934506909346060E94B50461
:102B000060932D0870932E0880932F0890933008BF
:102B10001092560680915506882341F00E94840A3F
:102B20001092550680910F02811125C00E94B504B4
:102B300000912D0810912E0820912F083091300817
:102B4000601B710B820B930B00914306109144069E
:102B500020914506309146060617170728073907C2
:102B600050F460E084E00E94390281E190E00E942C
:102B70001F0CD0920F0283E30E94100221E0009705
:102B800009F420E02093520620915106211112C031
:102B9000892B81F08AE090E00E941F0CD0925106B0
:102BA0000E94B5046093490870934A0880934B08CB
:102BB00090934C08809151068823F1F08091520641
:102BC00081111AC08BE090E00E941F0C10925106F8
:102BD0000E94B504609345087093460880934708A7
:102BE0009093480880915006882331F083E290E06A
:102BF0000E941F0C1092500682E30E94100221E0F6
:102C0000009709F420E020934F0620914E062111F1
:102C100012C0892B81F08CE090E00E941F0CD092B2
:102C20004E060E94B5046093490870934A08809349
:102C30004B0890934C0880914E068823F1F08091C8
:102C40004F0681111AC08DE090E00E941F0C109277
:102C50004E060E94B5046093450870934608809321
:102C600047089093480880914D06882331F084E20C
:102C700090E00E941F0C10924D0680915106909199
:102C80004E068111982F90934C0690915006911109
:102C900002C090914D0690934B06209161063091B1
:102CA00062062130310541F481110E94930C80911C
:102CB0004E0681110E945E0C8AE897E00E9432065F
:102CC00020916507181619060CF0B7C22111B8C279
:102CD0008AE897E00E94100690915406992309F41F
:102CE000A6C290915306E92FF0E0EB59F94F8E33CD
:102CF00009F495C2808381E0890F87FF8DC2C0925D
:102D00005306DACF80910D0290910E02049711F0D4
:102D10000E94450C80914C06882309F467C10E94EB
:102D2000B5040091490810914A0820914B08309150
:102D30004C08601B710B820B930B00911B021091CE
:102D40001C0220911D0230911E020617170728074A
:102D5000390708F04BC188E290E00E941F0C809177
:102D600051068823C1F08AE290E00E941F0C8091F6
:102D7000030290910402019690930402809303024F
:102D80008091370290913802019709F0A3C08DE23B
:102D900090E00E941F0C80914E068823C1F08BE2C8
:102DA00090E00E941F0C8091010290910202019616
:102DB0009093020280930102809137029091380231
:102DC000019709F08AC08CE290E00E941F0C80916C
:102DD0003E0690913F068430910509F081C08091B4
:102DE0005106811184C080914E06882309F4FEC0EB
:102DF0008AE190E00E941F0C88E190E00E941F0C85
:102E00000E94C00A0E945E044B015C0180923D0852
:102E100090923E08A0923F08B09240080E945E0443
:102E2000609335087093360880933708909338087C
:102E30000E945E04681979098A099B090091390882
:102E400010913A0820913B0830913C0860177107B7
:102E50008207930708F093C00E945E040091350832
:102E6000109136082091370830913808601B710B9B
:102E7000820B930B6330710581059105C8F20E94A6
:102E80005E046093350870933608809337089093FA
:102E90003808409105025091060260910702709136
:102EA0000802DB01CA01B695A7959795879540FF63
:102EB0005CC036E083279058B05880930502909309
:102EC0000602A0930702B093080261E082E00E942C
:102ED0003902AECF8CE290E05CCF8DE290E075CF0E
:102EE000069709F083C080914E068823D9F18BE1C3
:102EF00090E00E941F0C87E190E00E941F0C8091DF
:102F0000630690916406019781F480913E0690914A
:102F10003F06049711F40E94930C80913E06909115
:102F20003F06069711F40E945E0C80913C0690913A
:102F30003D06019690933D0680933C0680913E06A7
:102F400090913F068430910529F410923B0610922F
:102F50003A0625CD069709F022CD10923906109237
:102F600038061DCD8091510640CF80930502909385
:102F70000602A0930702B093080260E0A7CF8091F9
:102F80003E0690913F0684309105D1F480913A0637
:102F900090913B06019690933B0680933A061092DF
:102FA00039061092380610923D0610923C06809128
:102FB0005D0690915E06892B99F486E090E0F1CC55
:102FC000069789F78091380690913906019690937B
:102FD00039068093380610923B0610923A06E3CFEA
:102FE0006AEF70E080E090E00E9483040E94B504E4
:102FF00000914D0810914E0820914F0830915008D3
:10300000601B710B820B930B00913B0210913C02F1
:1030100020913D0230913E02061717072807390715
:1030200008F0C3CC89E190E00E941F0C88E190E099
:103030000E941F0C8091360690913706019690935E
:1030400037068093360626E030E0DBCA80910D0219
:1030500090910E02059781F00E94450C80913E06EA
:1030600090913F06049799F48FE190E00E941F0C25
:10307000D0925806D092500686E090E09093420697
:103080008093410610923706109236068ECC80E26D
:1030900090E00E941F0CD0925606D0924D06ECCFC5
:1030A00080910D0290910E02079711F00E94450C3D
:1030B0000E94B50400914D0810914E0820914F08D0
:1030C00030915008601B710B820B930B00913F02F3
:1030D00010914002209141023091420206171707D9
:1030E0002807390708F469CF60CC80910D029091D0
:1030F0000E02069709F443C00E94450C80904302DB
:1031000090904402A0904502B09046024090470241
:10311000509048026090490270904A024814590445
:103120006A047B0474F484189508A608B7080E9402
:10313000E61EA50194010E945723460E571E681EE5
:10314000791E409232065092330660923406709295
:1031500035060E94E61E28EE33E040E050E00E9473
:10316000572368517C4F8F4F9F4F60932E0670936B
:103170002F06809330069093310610922D062091F1
:103180000D0230910E02809141069091420628175F
:10319000390719F580904D0890904E08A0904F087F
:1031A000B09050080E94B504681979098A099B09F2
:1031B00000912E0610912F06209130063091310695
:1031C000061717072807390740F480912D0681114B
:1031D00004C00E94C00AD0922D060E94B50400913E
:1031E0004D0810914E0820914F0830915008601BF7
:1031F000710B820B930B00913206109133062091D4
:10320000340630913506061717072807390708F0E6
:10321000CCCB21E030E0F5C9809353064DCD108230
:103220001092540610925306D092650745CD8C3308
:1032300009F042CDD09254063FCD222309F474C543
:1032400085E696E09F938F938DE693E09F938F930F
:103250001F9280E88F9385EE96E09F938F930E9454
:10326000F52485EE96E00E94110CE5E6F6E08DB7B8
:103270009EB708960FB6F8949EBF0FBE8DBF10E0A4
:1032800000E08191882339F00F5F1F4F003811054E
:10329000C1F710E000E044E050E065E676E0CE01E2
:1032A00001960E946C2064E873E0CE0101960E94B2
:1032B000EC24892B09F03FC2ADB6BEB6A80143503D
:1032C00051092DB73EB7241B350B0FB6F8943EBFFE
:1032D0000FBE2DBF8DB79EB701967C0169E676E0E3
:1032E0000E946C2068E873E0C7010E94EC24892BDF
:1032F00061F44091630250916402609165027091A3
:10330000660288E893E00E94C80C6DE973E0C7018B
:103310000E94EC24892B61F440915B0250915C0285
:1033200060915D0270915E028DE993E00E94C80C8D
:1033300061E973E0C7010E94EC24892B61F440919C
:103340005702509158026091590270915A0281E9D6
:1033500093E00E94C80C66EA73E0C7010E94EC2467
:10336000892B61F4409153025091540260915502AF
:103370007091560286EA93E00E94C80C67EB73E0F6
:10338000C7010E94EC24892B61F440914F025091B7
:103390005002609151027091520287EB93E00E94BB
:1033A000C80C65EC73E0C7010E94EC24892B41F442
:1033B00060914D0270914E0285EC93E00E94FE0CEC
:1033C0006DEC73E0C7010E94EC24892B41F46091FD
:1033D0004B0270914C028DEC93E00E94FE0C6CED60
:1033E00073E0C7010E94EC24892B61F440914702ED
:1033F000509148026091490270914A028CED93E02D
:103400000E94C80C68EE73E0C7010E94EC24892B6F
:1034100061F44091430250914402609145027091E1
:10342000460288EE93E00E94C80C64EF73E0C70187
:103430000E94EC24892B61F440913F02509140029C
:10344000609141027091420284EF93E00E94C80CA7
:1034500060E074E0C7010E94EC24892B61F4409184
:103460003B0250913C0260913D0270913E0280E02F
:1034700094E00E94C80C6BE074E0C7010E94EC2449
:10348000892B41F460916306709164068BE094E0AF
:103490000E94FE0C61E274E0C7010E94EC24892BBB
:1034A00041F4609161067091620681E294E00E94AD
:1034B000FE0C6EE274E0C7010E94EC24892B41F4FB
:1034C00060915F06709160068EE294E00E94FE0CAF
:1034D0006FE374E0C7010E94EC24892B41F46091F2
:1034E0005D0670915E068FE394E00E94FE0C6EE232
:1034F00073E0C7010E94EC24892B41F460913902EA
:1035000070913A028EE293E00E94FE0C6EE474E049
:10351000C7010E94EC24892B41F46091370270911D
:1035200038028EE494E00E94FE0C69E574E0C70165
:103530000E94EC24892B61F44091330250913402B3
:10354000609135027091360289E594E00E94C80CC2
:103550006AE674E0C7010E94EC24892B61F4409173
:103560002F025091300260913102709132028AE64E
:1035700094E00E942E0D6BE774E0C7010E94EC24DA
:10358000892B61F440912B0250912C0260912D0205
:1035900070912E028BE794E00E942E0D6DE874E08E
:1035A000C7010E94EC24892B41F46091290270919B
:1035B0002A028DE894E00E94FE0C6DE974E0C701D8
:1035C0000E94EC24892B41F460915F0270916002AB
:1035D0008DE994E00E94FE0C63EB74E0C7010E9449
:1035E000EC24892B41F4609161027091620283EBBB
:1035F00094E00E94FE0C69EC74E0C7010E94EC2488
:10360000892B41F4609127027091280289EC94E0A3
:103610000E94FE0C6AED74E0C7010E94EC24892B25
:1036200041F460912502709126028AED94E00E9497
:10363000FE0C6AEE74E0C7010E94EC24892B41F471
:1036400060912302709124028AEE94E00E94FE0CA5
:1036500069EF74E0C7010E94EC24892B61F440916A
:103660001F0250912002609121027091220289EF85
:1036700094E00E94C80C69E075E0C7010E94EC2448
:10368000892B61F440911B0250911C0260911D0234
:1036900070911E0289E095E00E94C80C67E175E018
:1036A000C7010E94EC24892B41F4609119027091AA
:1036B0001A0287E195E00E94FE0C67E275E0C701FF
:1036C0000E94EC24892B61F44091590650915A06CE
:1036D00060915B0670915C0687E295E00E942E0D7A
:1036E00066E375E0C7010E94EC24892B61F44091E8
:1036F000150250911602609117027091180286E32C
:1037000095E00E942E0D6BE375E0C7010E94EC244A
:10371000892B61F4409111025091120260911302C1
:10372000709114028BE395E00E94C80C0FB6F894D8
:10373000BEBE0FBEADBE6FE375E0CE0101960E9426
:10374000EC24892B09F098C22DB73EB738872F8318
:10375000C80103979E838D83281B390B0FB6F894FD
:103760003EBF0FBE2DBF8DB79EB701965C014D8148
:103770005E8169E676E00E946C20F501712C612C77
:103780002191C3010196203239F03C0190E869167D
:103790007104B1F7712C612C43012FEF821A920A48
:1037A0008DB79EB7881999090FB6F8949EBF0FBEC2
:1037B0008DBF2DB73EB72F5F3F4F7901A401B501F3
:1037C000C9010E946C20A8014250510946195709AD
:1037D0008DB79EB7841B950B0FB6F8949EBF0FBE96
:1037E0008DBF0DB71EB70F5F1F4FB501680D791D57
:1037F000C8010E946C2068E873E0C7010E94EC24B5
:10380000892B79F44AE050E070E060E0C8010E9442
:103810003E1F6093630270936402809365029093ED
:1038200066026DE973E0C7010E94EC24892B79F4EC
:103830004AE050E070E060E0C8010E943E1F6093E3
:103840005B0270935C0280935D0290935E0261E97B
:1038500073E0C7010E94EC24892B79F44AE050E020
:1038600070E060E0C8010E943E1F609357027093B1
:1038700058028093590290935A0266EA73E0C70196
:103880000E94EC24892B79F44AE050E070E060E07B
:10389000C8010E943E1F60935302709354028093AC
:1038A00055029093560267EB73E0C7010E94EC2427
:1038B000892B79F44AE050E070E060E0C8010E9492
:1038C0003E1F60934F027093500280935102909379
:1038D000520265EC73E0C7010E94EC24892B39F495
:1038E000C8010E94452090934E0280934D026DECDA
:1038F00073E0C7010E94EC24892B39F4C8010E94AF
:10390000452090934C0280934B026CED73E0C7010D
:103910000E94EC24892B79F44AE050E070E060E0EA
:10392000C8010E943E1F6093470270934802809333
:10393000490290934A0268EE73E0C7010E94EC24AA
:10394000892B79F44AE050E070E060E0C8010E9401
:103950003E1F60934302709344028093450290930C
:10396000460264EF73E0C7010E94EC24892B79F4CE
:103970004AE050E070E060E0C8010E943E1F6093A2
:103980003F0270934002809341029093420260E0B4
:1039900074E0C7010E94EC24892B79F44AE050E0DE
:1039A00070E060E0C8010E943E1F60933B0270938C
:1039B0003C0280933D0290933E026BE074E0C701AD
:1039C0000E94EC24892B39F4C8010E944520909371
:1039D00064068093630661E274E0C7010E94EC24F0
:1039E000892B39F4C8010E94452090936206809388
:1039F00061066EE274E0C7010E94EC24892B39F461
:103A0000C8010E9445209093600680935F066FE393
:103A100074E0C7010E94EC24892B39F4C8010E948C
:103A2000452090935E0680935D066EE273E0C701C9
:103A30000E94EC24892B39F4C8010E944520909300
:103A40003A02809339026EE474E0C7010E94EC24CC
:103A5000892B39F4C8010E94452090933802809345
:103A6000370269E574E0C7010E94EC24892B79F4E0
:103A70004AE050E070E060E0C8010E943E1F6093A1
:103A800033027093340280933502909336026AE6D3
:103A900074E0C7010E94EC24892B59F4C8010E94EC
:103AA000412060932F0270933002809331029093F3
:103AB00032026BE774E0C7010E94EC24892B59F4B1
:103AC000C8010E94412060932B0270932C028093C6
:103AD0002D0290932E026DE874E0C7010E94EC2441
:103AE000892B39F4C8010E94452090932A028093C3
:103AF00029026DE974E0C7010E94EC24892B39F496
:103B0000C8010E9445209093600280935F0263EB9E
:103B100074E0C7010E94EC24892B39F4C8010E948B
:103B20004520909362028093610269EC74E0C701C2
:103B30000E94EC24892B39F4C8010E9445209093FF
:103B40002802809327026AED74E0C7010E94EC24EA
:103B5000892B39F4C8010E94452090932602809356
:103B600025026AEE74E0C7010E94EC24892B39F427
:103B7000C8010E944520909324028093230269EF9C
:103B800074E0C7010E94EC24892B79F44AE050E0EC
:103B900070E060E0C8010E943E1F60931F027093B6
:103BA0002002809321029093220269E075E0C70110
:103BB0000E94EC24892B79F44AE050E070E060E048
:103BC000C8010E943E1F60931B0270931C028093E9
:103BD0001D0290931E0267E175E0C7010E94EC246C
:103BE000892B39F4C8010E94452090931A028093D2
:103BF000190267E275E0C7010E94EC24892B59F491
:103C0000C8010E9441206093590670935A06809320
:103C10005B0690935C0666E375E0C7010E94EC24A6
:103C2000892B59F4C8010E944120609315027093BA
:103C3000160280931702909318026BE375E0C70198
:103C40000E94EC24892B79F44AE050E070E060E0B7
:103C5000C8010E943E1F609311027093120280936C
:103C60001302909314022F8138850FB6F8943EBF4B
:103C70000FBE2DBF0D811E8163E475E0CE0101965C
:103C80000E94EC24892B09F04DC0EDB6FEB6A801C8
:103C9000435051098DB79EB7841B950B0FB6F8940E
:103CA0009EBF0FBE8DBF2DB73EB72F5F3F4F59014F
:103CB00069E676E0C9010E946C2067E475E0C50101
:103CC0000E94EC24892B31F4D09266078BE495E0B6
:103CD0000E94110C60E675E0C5010E94EC24892B5E
:103CE00031F41092660785E695E00E94110C6EE4AF
:103CF00073E0C5010E94EC24892B21F4D092580670
:103D0000D092570669E774E0C5010E94EC24892B24
:103D100021F4D0925606D09255060FB6F894FEBE06
:103D20000FBEEDBE109265070E94430A0E94D7069F
:103D30000C942B128F929F92AF92BF92CF92DF92F0
:103D4000EF92FF92CF93DF93EC01688179818A81B2
:103D50009B81611571058105910521F464E279ED7E
:103D60008BE597E02DE133EF41E050E00E945723CF
:103D700049015A019B01AC01A7EAB1E40E947623F4
:103D80006B017C01ACEEB4EFA50194010E94842389
:103D9000C60ED71EE81EF91EF7FE06C081E0C81A3F
:103DA000D108E10880E8F80AC882D982EA82FB8259
:103DB000C701B6019F77DF91CF91FF90EF90DF9021
:103DC000CF90BF90AF909F908F9008958F929F92C9
:103DD000AF92BF92CF92DF92EF92FF926091670213
:103DE000709168028091690290916A026115710573
:103DF0008105910521F464E279ED8BE597E02DE1F1
:103E000033EF41E050E00E94572349015A019B01E2
:103E1000AC01A7EAB1E40E9476236B017C01ACEE11
:103E2000B4EFA50194010E948423C60ED71EE81E9C
:103E3000F91EF7FE06C081E0C81AD108E10880E843
:103E4000F80AC0926702D0926802E0926902F0928A
:103E50006A02C701B6019F77FF90EF90DF90CF9085
:103E6000BF90AF909F908F9008956093670270937A
:103E700068028093690290936A0208953F924F927C
:103E80005F926F927F928F929F92AF92BF92CF92EA
:103E9000DF92EF92FF920F931F93CF93DF935C011A
:103EA0006B017A016115710519F0FB019183808323
:103EB000E114F10449F0C7010297839728F060E00C
:103EC00070E0CB019BC05E01E5012196F5011081F8
:103ED000812F90E00E946320892BA9F71D3209F001
:103EE0005CC02196F501118101E0E114F10409F4AF
:103EF000BBC0F0E1EF16F10409F09BC0103341F4B0
:103F000088818F7D883509F08FC0198122960260E3
:103F1000E0E1EE2EF12C88248A94982CA82CFFE066
:103F2000BF2E20E060E070E0CB0127010F2C000CD9
:103F300066087708FE0150ED352E310E39E0331555
:103F400068F43FEB310F49EC342E3A3130F03FE961
:103F5000310F3A31B0F539EA332E310E3E141F04D9
:103F600084F52F3FB9F086169706A806B90638F1F2
:103F7000A30192010E942523232D30E050E040E070
:103F8000620F731F841F951F6217730784079507BD
:103F9000B0F021E021961081CDCF1B3221F4E50154
:103FA0002296F501118100E0A0CF78E0E72EF12CF8
:103FB00088248A94982CA82C6FE1B62EB2CF2FEFCC
:103FC000E9CFC114D10431F0222351F12197F60138
:103FD000D183C08300FF07C090958095709561954F
:103FE0007F4F8F4F9F4F2F3F49F482E290E0909395
:103FF0005F0880935E086FEF7FEFCB01DF91CF9179
:104000001F910F91FF90EF90DF90CF90BF90AF90F6
:104010009F908F907F906F905F904F903F9008950A
:1040200001FFD8CF2297D3CF10E3E114F10409F4B4
:10403000BCCF3AE0E316F104E9F080E1E816F104C0
:1040400009F466CFE8E0EE16F10409F4B1CF6FEFA2
:104050007FEFCB0197010F2C000C440B550B0E94F6
:10406000352349015A015DCF103309F449CF9AE055
:10407000E92EF12C89E9882E982CA82C89E1B82EFC
:1040800050CF662777270C948820FC018827992732
:10409000E89421912032E9F3293010F02E30C8F352
:1040A0002B3241F02D3239F4689404C00E948020F4
:1040B000820F911D219120532A30C0F31EF4909558
:1040C00081959F4F089591110C94E621803219F04B
:1040D00089508550C8F70895DC01FB0141505040DC
:1040E00058F049F001900D920020C1F7E61BF70B44
:1040F0003197CF0108951C9201900020E9F7F6CF87
:104100007AE0979F902D879F802D910D112408951F
:104110008F929F92AF92BF92CF92DF92EF92FF92D7
:104120000F931F93CF93DF935C017B0161157105A2
:1041300019F0DB018D939C9385010F5F1F4FF501F3
:10414000D0818D2F90E00E9463206C01892BB9F5FE
:10415000DD32B9F50F5F1F4FD5011196DC91C1E03B
:104160005801F1E0AF1AB10843E050E064E971E0B2
:10417000C5010E94E921892B69F5680182E0C80E1A
:10418000D11C45E050E06FE871E0C6010E94E921D2
:10419000892B21F4680197E0C90ED11CE114F104C8
:1041A00019F0D701CD92DC9260E070E080E89FEFDB
:1041B000C111FFC060E070E080E89FE7FAC05801DD
:1041C000BBCFDB3229F485010E5F1F4FF501D18192
:1041D000C0E0C6CF43E050E06CE871E0C5010E944A
:1041E000E921892BE9F0F80110E000E020E030E05F
:1041F000A9015F01B0ED8B2E8D0E89E08815C8F105
:104200009C2E689491F88C2F8870C2FF16C0811183
:1042100002C00F5F1F4F3196D501DC91C92DE9CF48
:10422000E114F10429F00E5F1F4FF70111830083A1
:1042300060E070E080EC9FE7BCC0882311F0015083
:104240001109A5E0B0E00E9476239B01AC01220F8A
:10425000331F441F551F280D311D411D511D283985
:1042600099E93907490799E15907A8F2C6609C2ED8
:10427000D2CFAEEF8A1206C0C3FD3CC09C2E68941C
:1042800093F8C9CFDF7DD534A9F580818D3239F41B
:10429000C061DF011296818162E070E006C0DF013B
:1042A0008B32C1F3119661E070E080535D01A61A74
:1042B000B70A8A30F8F4E0E8CE16ECE0DE065CF4EB
:1042C000B601660F771F660F771FC60ED71ECC0C80
:1042D000DD1CC80ED11C5D01FFEFAF1ABF0A8C9127
:1042E00080538A30A8F1C4FF03C0D194C194D1088F
:1042F0000C0D1D1DC1FF09C0E114F10431F081E076
:10430000A81AB108D701AD92BC92CA01B9010E94A6
:104310000622C370C33009F490584B015C0120E0C1
:1043200030E0A9010E940122882309F440C0C3ECB7
:10433000D1E017FF05C0119501951109CBEAD1E035
:104340006E01B8E1CB1AD10880E2E82EF12C0FC043
:10435000D501B1CFFE0125913591459154910E19AA
:104360001F09C501B4010E9467224B015C01D50100
:10437000C4010E151F0574F72497F594E794CC1625
:10438000DD06A9F78A2F880F8B2F881F8F3F49F0F2
:1043900020E030E0A901C501B4010E940122811191
:1043A00006C082E290E090935F0880935E08C501AA
:1043B000B401DF91CF911F910F91FF90EF90DF90AB
:1043C000CF90BF90AF909F908F90089599278827A6
:1043D0000895FB01DC014150504088F08D918134FB
:1043E0001CF08B350CF4805E659161341CF06B35EC
:1043F0000CF4605E861B611171F3990B0895881BA4
:10440000FCCF0E94432208F481E00895E89409C09B
:1044100097FB3EF490958095709561957F4F8F4FF7
:104420009F4F9923A9F0F92F96E9BB279395F6950D
:10443000879577956795B795F111F8CFFAF4BB0F8B
:1044400011F460FF1BC06F5F7F4F8F4F9F4F16C0EF
:10445000882311F096E911C0772321F09EE8872F79
:10446000762F05C0662371F096E8862F70E060E035
:104470002AF09A95660F771F881FDAF7880F9695AE
:10448000879597F90895990F0008550FAA0BE0E852
:10449000FEEF16161706E807F907C0F01216130606
:1044A000E407F50798F0621B730B840B950B39F446
:1044B0000A2661F0232B242B252B21F408950A26AC
:1044C00009F4A140A6958FEF811D811D08950E94DA
:1044D0007A220C94EB220E94DD2238F00E94E42222
:1044E00020F0952311F00C94D4220C94DA2211249C
:1044F0000C941F230E94FC2270F3959FC1F3950F2B
:1045000050E0551F629FF001729FBB27F00DB11D57
:10451000639FAA27F00DB11DAA1F649F6627B00DE7
:10452000A11D661F829F2227B00DA11D621F739FD0
:10453000B00DA11D621F839FA00D611D221F749FDE
:104540003327A00D611D231F849F600D211D822F25
:10455000762F6A2F11249F5750409AF0F1F088234C
:104560004AF0EE0FFF1FBB1F661F771F881F915079
:104570005040A9F79E3F510580F00C94D4220C9432
:104580001F235F3FE4F3983ED4F3869577956795B4
:10459000B795F795E7959F5FC1F7FE2B880F911DA3
:1045A0009695879597F9089597F99F6780E870E049
:1045B00060E008959FEF80EC089500240A94161699
:1045C000170618060906089500240A941216130601
:1045D000140605060895092E0394000C11F488238F
:1045E00052F0BB0F40F4BF2B11F460FF04C06F5FAB
:1045F0007F4F8F4F9F4F089557FD9058440F551F81
:1046000059F05F3F71F04795880F97FB991F61F054
:104610009F3F79F087950895121613061406551FCB
:10462000F2CF4695F1DF08C0161617061806991F37
:10463000F1CF86957105610508940895E894BB272C
:1046400066277727CB0197F90895DB018F939F9316
:104650000E947623BF91AF91A29F800D911DA39FD1
:10466000900DB29F900D11240895A1E21A2EAA1B5D
:10467000BB1BFD010DC0AA1FBB1FEE1FFF1FA21712
:10468000B307E407F50720F0A21BB30BE40BF50B0F
:10469000661F771F881F991F1A9469F76095709598
:1046A000809590959B01AC01BD01CF010895052E29
:1046B00097FB1EF400940E946E2357FD07D00E94C2
:1046C000352307FC03D04EF40C946E23509540958F
:1046D000309521953F4F4F4F5F4F089590958095AE
:1046E000709561957F4F8F4F9F4F08950E9489234A
:1046F000A59F900DB49F900DA49F800D911D112436
:104700000895B7FF0C9476230E947623821B930BA7
:104710000895A29FB001B39FC001A39F700D811D9A
:104720001124911DB29F700D811D1124911D0895BA
:1047300097FB072E16F4009407D077FD09D00E944E
:10474000BB2307FC05D03EF4909581959F4F0895BB
:10475000709561957F4F0895EE0FFF1F881F8BBFE7
:104760000790F691E02D19940E948923B7FF0895D0
:10477000821B930B0895AA1BBB1B51E107C0AA1F04
:10478000BB1FA617B70710F0A61BB70B881F991FF2
:104790005A95A9F780959095BC01CD010895505880
:1047A000BB27AA270E94E7230C94EB220E94DD225C
:1047B00038F00E94E42220F039F49F3F19F426F4E7
:1047C0000C94DA220EF4E095E7FB0C94D422E92F46
:1047D0000E94FC2258F3BA176207730784079507F3
:1047E00020F079F4A6F50C941E230EF4E0950B2E20
:1047F000BA2FA02D0B01B90190010C01CA01A00133
:104800001124FF27591B99F0593F50F4503E68F18D
:104810001A16F040A22F232F342F4427585FF3CFCE
:10482000469537952795A795F0405395C9F77EF49F
:104830001F16BA0B620B730B840BBAF09150A1F0E8
:10484000FF0FBB1F661F771F881FC2F70EC0BA0F6E
:10485000621F731F841F48F4879577956795B795F6
:10486000F7959E3F08F0B0CF9395880F08F09927F1
:10487000EE0F9795879508950E9450240C94EB2293
:104880000E94E42258F00E94DD2240F029F45F3FAC
:1048900029F00C94D42251110C941F230C94DA2289
:1048A0000E94FC2268F39923B1F3552391F3951BE1
:1048B000550BBB27AA2762177307840738F09F5F41
:1048C0005F4F220F331F441FAA1FA9F335D00E2EAE
:1048D0003AF0E0E832D091505040E695001CCAF71B
:1048E0002BD0FE2F29D0660F771F881FBB1F2617DE
:1048F00037074807AB07B0E809F0BB0B802DBF01B5
:10490000FF2793585F4F3AF09E3F510578F00C9483
:10491000D4220C941F235F3FE4F3983ED4F3869592
:1049200077956795B795F7959F5FC9F7880F911DA4
:104930009695879597F90895E1E0660F771F881F90
:10494000BB1F621773078407BA0720F0621B730B43
:10495000840BBA0BEE1F88F7E09508950E9404239C
:1049600088F09F5798F0B92F9927B751B0F0E1F030
:10497000660F771F881F991F1AF0BA95C9F714C0E0
:10498000B13091F00E941E23B1E008950C941E23D3
:10499000672F782F8827B85F39F0B93FCCF3869519
:1049A00077956795B395D9F73EF490958095709576
:1049B00061957F4F8F4F9F4F08950E94432208F4C7
:1049C0008FEF08950E944322880B990B089581E090
:1049D00090E0F8940C94D827FB01DC018D910190B4
:1049E00080190110D9F3990B08950F931F93CF935A
:1049F000DF93CDB7DEB72E970FB6F894DEBF0FBEAC
:104A0000CDBF0E891F89888D998D26E02C831A834E
:104A1000098397FF02C080E090E801979E838D8311
:104A2000AE01445E5F4F6A8D7B8DCE0101960E9480
:104A300032254D815E8157FD0AC02F81388542178E
:104A400053070CF49A01020F131FF80110822E96DF
:104A50000FB6F894DEBF0FBECDBFDF91CF911F918F
:104A60000F9108952F923F924F925F926F927F9293
:104A70008F929F92AF92BF92CF92DF92EF92FF926E
:104A80000F931F93CF93DF9300D000D000D01F92DD
:104A90001F92CDB7DEB77C013B018A01FC01178272
:104AA0001682838181FFDDC1CE0101965C01F70191
:104AB0009381F30193FD859193FF81913F018823B9
:104AC00009F453C1853239F493FD859193FF8191A7
:104AD0003F01853229F4B70190E00E944A27E7CFD1
:104AE000912C212C312CFFE1F31538F08B3211F190
:104AF00090F4803209F1833229F137FC3CC020ED7B
:104B0000280F2A3050F536FE20C08AE0989E200DEE
:104B10001124922E06C08D3291F0803371F7689483
:104B200030F8F30193FD859193FF81913F0181114D
:104B3000DACF21C0689431F8689432F8F2CF6894E3
:104B400033F8EFCF689434F8ECCFEAE02E9E200DD6
:104B50001124222E689435F8E4CF8E3229F436FCE5
:104B600004C1689436F8DDCF8C3619F4689437F8B0
:104B7000D8CF8836B1F2982F9F7D95549330E0F0CE
:104B80008336A1F18337C1F1833509F063C0280171
:104B9000F2E04F0E511CF801C080D180692D70E009
:104BA00036FC02C06FEF7FEFC6010E9434274C0134
:104BB000689437F882010AC00C5F1F4FFFE3F98346
:104BC00088248394912C6501E89437F833FE2DC036
:104BD000522C8114910471F5552009F468CFB70166
:104BE00080E290E00E944A275A94F6CFF801808133
:104BF00089830E5F1F4FE4CF2801F2E04F0E511C56
:104C0000F801C080D180692D70E036FC02C06FEFE2
:104C10007FEFC6010E943F274C018201D5CFB7012B
:104C200080E290E00E944A272A942814190409F08F
:104C3000B0F7CECFF60137FC859137FE81916F0139
:104C4000B70190E00E944A2751105A94F1E08F1A60
:104C50009108BFCF843619F0893609F077C0F80182
:104C600037FE6BC060817181828193810C5F1F4F21
:104C7000F32DFF763F2E97FF09C090958095709594
:104C800061957F4F8F4F9F4F689437F82AE030E04F
:104C9000A5010E947A27C82ECA188C2C432C36FEF8
:104CA0000CC0E89440F8C91440F434FE05C032FC4E
:104CB00003C0F32DFE7E4F2E892C44FEAAC0FE01B8
:104CC000EC0DF11D8081803309F09CC0242D297EDC
:104CD000422E842D8870582E43FCAAC040FEA4C0EA
:104CE0009C2C821418F42C0C922C981844FEA6C00C
:104CF000B70180E390E00E944A2742FE09C088E79E
:104D000090E041FE02C088E590E0B7010E944A278A
:104D1000C91408F49FC0CA94D12C9FEFC91AD90AAC
:104D2000CA0CDB1CF60182916F01B70190E00E9472
:104D30004A27AC14BD04B1F74FCF60817181072EB3
:104D4000000C880B990B0E5F1F4F92CFD32CE89469
:104D5000D4F82AE030E08537E1F1232D297FD22EE7
:104D60008F36A9F1F0F4883551F1F70186819781EA
:104D70002B960FB6F894DEBF0FBECDBFDF91CF915B
:104D80001F910F91FF90EF90DF90CF90BF90AF9069
:104D90009F908F907F906F905F904F903F902F905B
:104DA0000895803749F0883701F7D4FE02C068942F
:104DB000D2F820E130E00DC06894D4F8F6CF34FE8C
:104DC00003C0822F8660D82E20E132E002C028E0A6
:104DD00030E0F801D7FE0FC060817181828193813C
:104DE0000C5F1F4FA5010E947A27C82ECA183D2CC0
:104DF000E89437F852CF6081718190E080E00E5FD7
:104E00001F4FF0CF42FC02C0839463CF83948394FE
:104E100060CF842D867809F45CCFF6CFB70180E2AD
:104E200090E00E944A2783948214C0F3512C5ECFF5
:104E3000522C5818821408F459CFF8CF842D867854
:104E400009F466CF8BE241FE80E247FC8DE2B701B8
:104E500090E05CCFB70180E390E00E944A279A94EB
:104E600057CF8FEF9FEF84CFFC01059061507040CA
:104E70000110D8F7809590958E0F9F1F0895FC0123
:104E80006150704001900110D8F7809590958E0F79
:104E90009F1F08950F931F93CF93DF93182F092F10
:104EA000EB018B8181FD09C01FEF0FEF812F902F48
:104EB000DF91CF911F910F91089582FF14C02E8131
:104EC0003F818C819D81281739073CF4E881F98165
:104ED000CF0101969983888310838E819F810196EB
:104EE0009F838E83E3CFE885F985812F1995892BE0
:104EF000A1F3DACFFA01AA27283051F1203181F14C
:104F0000E8946F936E7F6E5F7F4F8F4F9F4FAF4FD1
:104F1000B1E03ED0B4E03CD0670F781F891F9A1FE4
:104F2000A11D680F791F8A1F911DA11D6A0F711D98
:104F3000811D911DA11D20D009F468943F912AE0A4
:104F4000269F11243019305D3193DEF6CF0108958C
:104F5000462F4770405D4193B3E00FD0C9F7F6CFBD
:104F6000462F4F70405D4A3318F0495D31FD405285
:104F7000419302D0A9F7EACFB4E0A695979587951B
:104F800077956795BA95C9F70097610571050895FA
:104F90009B01AC010A2E06945795479537952795A6
:104FA000BA95C9F7620F731F841F951FA01D08953E
:044FB000F894FFCFA3
:104FB4000101000100CEFAEDFEDC050000FFFF0157
:104FC40001F40100000000003F010014000000E8AB
:104FD4000300000200030001000A001F85EB3D648A
:104FE4003BDF3D0500000001000100C40900007022
:104FF400170000EC2C0000342100006400B40023EE
:10500400000000EB00000005000000320000000575
:10501400000F003200000001000000000000002C1E
:105024000D2C0D2C0D560B760B7A0B000000000096
:105034000ABC09B609560B760BD1054507000000DA
:10504400006A06D4050106B7063206100624060DCA
:105054000A00257509256C75003C564152202573BC
:1050640020256C7520256C753E003C564152202548
:105074007320256920256C753E003C56415220253D
:105084007320006E616E00696E66006F7666003C88
:1050940041726475696E6F20697320726561647909
:1050A40020746F207265636569766520636F6D6D2A
:1050B400616E64733E00746869735F696E746572CF
:1050C40076616C00636F72726563745F73696465A3
:1050D40000696E5F636F72725F6C6F6F70006175F1
:1050E400746F64656C697665725F7265776172640A
:1050F4007300747269616C5F636F756E74657200BE
:105104006D6973735F636F756E74657200696E5F4A
:105114006A61636B706F745F6D6F6465003C4172AC
:105124006475696E6F2072656365697665643A209B
:1051340025733E0047455400746F6E655F64757255
:1051440000747269616C5F656E7472795F62757AFE
:105154007A5F6475720062757A7A5F63656E7465EE
:10516400725F667265710062757A7A5F66726571E4
:105174005F736570006C65645F687376006C65646A
:105184005F6272696768746E657373004954495F3E
:105194006475725F6D696E004954495F6475725F2E
:1051A4006D61780074696D656F75745F6475720004
:1051B40063686F6963655F647572006375655F6FCB
:1051C4006E5F72657761726465645F72656163685E
:1051D400006375655F6F6E5F72656163680070720E
:1051E4006573656E745F696E69745F63756500618C
:1051F4006C6C6F775F6D697374616B6573006C655C
:1052040066745F73686F7274007265776172645F4D
:105214006D61676E69747564650076616C76655F4F
:10522400756C5F6D735F6C6566740076616C766532
:105234005F756C5F6D735F7269676874006E5F772A
:1052440061726D75705F747269616C73006E5F6D0D
:1052540061785F6D6973735F747269616C735F6D9C
:10526400696E006E5F6D61785F6D6973735F7472F0
:1052740069616C735F6D617800636F7272656374EA
:10528400696F6E5F6C6F6F707300636F72725F6CC7
:105294006F6F705F656E74727900636F72725F6CAA
:1052A4006F6F705F657869740072656163685F62CF
:1052B4006C6F636B5F647572006D696E5F677261BA
:1052C40073705F64757200747269616C5F61757488
:1052D4006F737461727400705F74696D696E675F77
:1052E400747269616C006269617300676170005374
:1052F400455400434D440052554E003C4172647580
:10530400696E6F2069732072756E6E696E673E00F8
:1053140048414C54003C41726475696E6F20697356
:0A5324002068616C7465643E0000AF
:00000001FF
