:100000000C9476010C94A7010C94A7010C94A70101
:100010000C94A7010C94A7010C94A7010C94A701C0
:100020000C94A7010C94A7010C94A7010C94A701B0
:100030000C94A7010C94C20F0C94A7010C94A70177
:100040000C94A7010C9415100C94A7010C94A70113
:100050000C94A7010C9474100C94A7010C94180F25
:100060000C94A7010C948C0F0C94620F0C94A701B4
:100070000C94A7010C94A7010C94A7010C94A70160
:100080000C94A7010C94A7010C94A7010C94A70150
:100090000C94A7010C94A7010C94A7010C94A70140
:1000A0000C94A7010C94A7010C94A7010C94A70130
:1000B0000C94A7010C94A7010C94A7010C94A70120
:1000C0000C94A7010C94A7010C94A7010C94A70110
:1000D0000C94A7010C94A7010C94A7010C94A70100
:1000E0000C94A7010C94F0010C9433170C94D101DB
:1000F0000C9462040C94D8070C944E040C94DC0C01
:100100000C94DC010C940C020C94FA010C94D310A6
:100110000C9408020C94490A0C94D80C0C94AB155E
:100120000C9423130C94B80C0C94CD010C94D6129F
:100130000C9426160C940F040C94F5040C940702EE
:100140000C94F4010C944F0A0C9405170C94930A28
:100150000C9470040C94E2010C943F040C94EC0198
:100160000C94A8040C94FE010C94C7010C940F1776
:100170000C9402020C9412040C94D9010C94D50135
:100180000C94F1160C94E6010C942C0E4E414E4941
:100190004E495459494E46CDCCCC3D0AD7233C1745
:1001A000B7D13877CC2B329595E6241FB14F0A0092
:1001B0000020410000C84200401C4620BCBE4CCA82
:1001C0001B0E5AAEC59D74020100000021002400E0
:1001D00027002A002D003000330001010000040137
:1001E00007010A0100002200250028002B002E0034
:1001F0003100340002010000050108010B0100007C
:1002000020002300260029002C002F0032000001CE
:100210000000030106010901050505050705080899
:100220000808020202020A0A080804040404010180
:100230000101010101010303030303030303040795
:1002400007070C0C0C0C0C0C0C0C0202020206062C
:100250000606060606060B0B0B0B0B0B0B0B01021F
:1002600010202008081020401020408002010201C8
:100270000804020101020408102040808040201080
:1002800008040201800402018040201008040201D9
:100290000804020101020408102040800102040841
:1002A0001020408000000A0B02090C0D0E08070305
:1002B0000401000000000000000000000000000039
:1002C000000000000000000000000000000000002E
:1002D00012111000000000000000000000000000EB
:1002E00000000000000000000000D31011241FBE19
:1002F000CFEFD1E2DEBFCDBF00E00CBF14E0A0E045
:10030000B2E0E4EDFBE400E00BBF02C007900D9209
:10031000A63DB107D9F727E0A6EDB4E001C01D92D4
:10032000AA3AB207E1F711E0C6E7D1E000E006C063
:1003300021970109802FFE010E94BC21C537D107FA
:1003400080E00807A9F70E946C110C94E8250C9432
:1003500000008150823108F05AC0E82FF0E0882771
:10036000EB54FE4F8F4F0C94BC21D501D901C7012E
:10037000CD01D1010702DC01E201E601EC01F0014F
:10038000F401FA01FE010702020208020C02809148
:1003900080008F77809380000895809180008F7D0A
:1003A000F9CF80918000877FF5CF84B58F7784BDAA
:1003B000089584B58F7DFBCF8091B0008F778093B7
:1003C000B00008958091B0008F7DF9CF80919000AA
:1003D0008F77809390000895809190008F7DF9CF62
:1003E00080919000877FF5CF8091A0008F778093D8
:1003F000A00008958091A0008F7DF9CF8091A0008A
:10040000877FF5CF809120018F7780932001089519
:10041000809120018F7DF9CF80912001877FF5CFDA
:10042000CF93DF93282F30E0F901EC55FD4F8491F5
:10043000F901E25AFD4FD491F901E85EFD4FC491F4
:10044000CC23A1F081110E94A901EC2FF0E0EE0F66
:10045000FF1FE250FE4FA591B491EC91ED2381E096
:1004600090E009F480E0DF91CF91089580E090E082
:10047000FACF1F93CF93DF93282F30E0F901EC558B
:10048000FD4F8491F901E25AFD4FD491F901E85EE4
:10049000FD4FC491CC23A9F0162F81110E94A90110
:1004A000EC2FF0E0EE0FFF1FEC51FE4FA591B49141
:1004B0008FB7F894EC91111108C0D095DE23DC932E
:1004C0008FBFDF91CF911F910895DE2BF8CFCF938F
:1004D000DF9390E0FC01E25AFD4F2491885E9D4F2E
:1004E000FC0184918823D1F090E0880F991FFC01D2
:1004F000E653FE4FA591B491FC01EC51FE4FC5911E
:10050000D49161110EC09FB7F8948C91E22FE095C1
:100510008E238C932881E223E8839FBFDF91CF91C4
:1005200008958FB7F894EC91E22BEC938FBFF6CF40
:100530003FB7F8948091CA069091CB06A091CC0663
:10054000B091CD0626B5A89B05C02F3F19F00196A6
:10055000A11DB11D3FBFBA2FA92F982F8827BC011D
:10056000CD01620F711D811D911D42E0660F771F45
:10057000881F991F4A95D1F708958F929F92AF9245
:10058000BF92CF92DF92EF92FF920E9498024B01AE
:100590005C0188EEC82E83E0D82EE12CF12C0E945D
:1005A0009802681979098A099B09683E7340810598
:1005B0009105A8F321E0C21AD108E108F10888EEFC
:1005C000880E83E0981EA11CB11CC114D104E10463
:1005D000F10429F7FF90EF90DF90CF90BF90AF909C
:1005E0009F908F9008952FB7F8946091C6067091F0
:1005F000C7068091C8069091C9062FBF08954F92F3
:100600005F926F927F929F92AF92BF92CF92DF9252
:10061000EF92FF920F931F93CF93DF9300D0CDB74C
:10062000DEB7D82E80919E0790919F07A091A007DA
:10063000B091A107892B8A2B8B2BD9F00E949802AD
:100640000091D6061091D7062091D8063091D90690
:10065000601B710B820B930B00919E0710919F07FB
:100660002091A0073091A1076017710782079307B7
:10067000C8F20E9498026093D6067093D7068093C2
:10068000D8069093D906E091A607F091A707309776
:1006900059F04091A2075091A3076091A40770916F
:1006A000A5078D2D1995D82EE090D406F090D5068B
:1006B0004D2C512C712C612CE114F10409F459C01A
:1006C000D7011C96CC901C9780919C0790919D0718
:1006D0008436910510F41C961C92D701ED91FC9183
:1006E000A280B38019821A821B82DD2079F1F70182
:1006F000369610E000E02191222319F19280992092
:1007000001F130E050E040E02F5F3F4F4F4F5F4F2F
:10071000C301B2010E9435219B01AC01892D90E0FB
:10072000B0E0A0E0BC01CD016F5F7F4F8F4F9F4FC6
:100730000E943521A1E0B0E0AC0FBD1FA00FB11F9A
:100740008C930F5F1F4F03301105A9F609811A81A1
:100750002B81F7014585568562817381C701F501BB
:100760001995D7011C96CC921C971496ED90FC908D
:10077000A3CF8091D2069091D3068C010F5F1F4FBB
:100780001093D3060093D2064997B4F10E94F30266
:10079000C090CE06D090CF06E090D006F090D10663
:1007A0009B01AC012C193D094E095F0921F421E0A0
:1007B00030E040E050E088EE93E0089FB001099FF0
:1007C000700D189F700D1124072E000C880B990BCB
:1007D0000E94452130939D0720939C071092D306D9
:1007E0001092D2060E94F3026093CE067093CF0659
:1007F0008093D0069093D1060F900F900F90DF91C9
:10080000CF911F910F91FF90EF90DF90CF90BF900D
:10081000AF909F907F906F905F904F90089580E988
:1008200091E00895AF92BF92CF92DF92EF92FF9244
:100830000F931F93CF93DF936C017B018B01040F08
:10084000151FEB015E01AE18BF08C017D10759F0A4
:100850006991D601ED91FC910190F081E02DC601E6
:100860001995892B79F7C501DF91CF911F910F91D0
:10087000FF90EF90DF90CF90BF90AF900895FC0174
:10088000538D448D252F30E0842F90E0821B930BF5
:10089000541710F0CF96089501970895FC01918D9B
:1008A000828D981761F0A28DAE0FBF2FB11D5D969E
:1008B0008C91928D9F5F9F73928F90E008958FEF40
:1008C0009FEF0895FC01918D828D981731F0828DF4
:1008D000E80FF11D858D90E008958FEF9FEF08954B
:1008E000FC01918D228D892F90E0805C9F4F821BAF
:1008F00091098F73992708958AED96E00E947004FC
:1009000021E0892B09F420E0822F0895FC01A48DB9
:10091000A80FB92FB11DA35ABF4F2C91848D90E021
:1009200001968F739927848FA689B7892C93A08904
:10093000B1898C91837080648C93938D848D98138E
:1009400006C00288F389E02D80818F7D8083089521
:10095000EF92FF920F931F93CF93DF93EC0181E00F
:10096000888F9B8D8C8D98131AC0E889F9898081B6
:1009700085FF15C09FB7F894EE89FF896083E889E9
:10098000F98980818370806480839FBF81E090E0DB
:10099000DF91CF911F910F91FF90EF900895F62E68
:1009A0000B8D10E00F5F1F4F0F731127E02E8C8D02
:1009B0008E110CC00FB607FCFACFE889F989808147
:1009C00085FFF5CFCE010E948604F1CFEB8DEC0FB1
:1009D000FD2FF11DE35AFF4FF0829FB7F8940B8F64
:1009E000EA89FB8980818062CFCFCF93DF93EC01CE
:1009F000888D8823B9F0AA89BB89E889F9898C9107
:100A000085FD03C0808186FD0DC00FB607FCF7CFC2
:100A10008C9185FFF2CF808185FFEDCFCE010E94C2
:100A20008604E9CFDF91CF91089580E090E0892B93
:100A300029F00E947C0481110E94000080E090E077
:100A4000892B49F080E090E0892B29F00E9400007A
:100A500081110E94000080E090E0892B49F080E045
:100A600090E0892B29F00E94000081110E94000073
:100A700080E090E0892B49F080E090E0892B29F01C
:100A80000E94000081110C94000008952F923F9263
:100A90004F925F926F927F928F929F92AF92BF928E
:100AA000CF92DF92EF92FF921F93CF93DF9300D00C
:100AB00000D0CDB7DEB7DC011196EC91E7FD44C163
:100AC00029833A834B835C831B019E838D8361E082
:100AD000FC0180810E946702AD81BE8111961C914C
:100AE0004101B12CA12C812F8D7F09F047C160E01D
:100AF00072E18AE790E0A50191010E946721290136
:100B00003A017A016901B1E0CB1AD108E108F10894
:100B1000EFEFCE16D104E104F10409F00CF4D9C0D2
:100B200060E472E48FE090E0A50191010E946721EA
:100B300069017A01F1E0CF1AD108E108F108123019
:100B4000C9F58FEFC816D104E104F10409F00CF4E3
:100B500067C160E970ED83E090E0A50191010E941A
:100B6000672169017A0191E0C91AD108E108F10809
:100B700083E0AFEFCA16D104E104F10409F00CF4EC
:100B8000A1C068E478EE81E090E0A50191010E94A7
:100B9000672169017A01F1E0CF1AD108E108F10873
:100BA0008FEFC816D104E104F10411F00CF04DC030
:100BB00084E088C0BFEFCB16D104E104F10409F052
:100BC0000CF4DAC068E478EE81E090E0A5019101D0
:100BD0000E94672169017A01E1E0CE1AD108E1089B
:100BE000F10884E0111141C083E09FEFC916D104E0
:100BF000E104F10409F00CF46FC062E17AE780E0EF
:100C000090E0A50194010E94672169017A0181E0C9
:100C1000C81AD108E108F10884E09FEFC916D10491
:100C2000E104F10409F008F457C0730162019AE08D
:100C3000F594E794D794C7949A95D1F7B1E0CB1A7D
:100C4000D108E108F10885E047C064E274EF80E074
:100C500090E0A50194010E94672169017A01F1E009
:100C6000CF1AD108E108F10885E0EFEFCE16D104E4
:100C7000E104F10439F130F162E17AE780E090E0DB
:100C8000A50194010E94672169017A01A1E0CA1AB5
:100C9000D108E108F10886E0BFEFCB16D104E104EA
:100CA000F10481F078F0730162018AE0F594E79431
:100CB000D794C7948A95D1F7E1E0CE1AD108E1081C
:100CC000F10887E09091B100987F892B8093B10063
:100CD00007C081E01111F6CF95B5987F892B85BDAE
:100CE00089819A81AB81BC812FEF3FEFA901892BCC
:100CF0008A2B8B2B79F0D101AA0FBB1F29813A8156
:100D00004B815C810E94862128EE33E040E050E078
:100D10000E944521AD81BE8111968C91813009F4EC
:100D20005DC0823009F46CC081110EC0C7BC209335
:100D30006B0530936C0540936D0550936E05809163
:100D40006E00826080936E0026960FB6F894DEBF28
:100D50000FBECDBFDF91CF911F91FF90EF90DF903D
:100D6000CF90BF90AF909F908F907F906F905F904B
:100D70004F903F902F90089582E0ACCF60E072E1F9
:100D80008AE790E0A50191010E94672169017A013B
:100D9000A1E0CA1AD108E108F10891E0C114D10418
:100DA000B1E0EB06F10484F068E478EE81E090E0D5
:100DB000A50191010E94672169017A01E1E0CE1A43
:100DC000D108E108F10893E0113009F089CF809152
:100DD0008100887F892B8093810082CFD092890007
:100DE000C092880020936705309368054093690599
:100DF00050936A0580916F00826080936F00A4CF4A
:100E0000C092B30020936305309364054093650559
:100E1000509366058091700082608093700094CF3B
:100E200082E050CFDC0180916205833008F07FC002
:100E30006C93E82FF0E0E953FE4FE4911196EC93A8
:100E400011978F5F80936205E13029F120F0E23045
:100E500009F447C0089514BC15BC84B5826084BDF4
:100E600085B5816085BD8C9190E0FC01E85EFD4F09
:100E7000E491F0E0EE0FFF1FEC51FE4F259134910D
:100E80003093610520936005FC01E25AFD4FE49127
:100E9000E0935F0508951092800010928100809188
:100EA00081008860809381008091810081608093BF
:100EB00081008C9190E0FC01E85EFD4FE491F0E050
:100EC000EE0FFF1FEC51FE4F2591349130935E05DC
:100ED00020935D05FC01E25AFD4FE491E0935C052F
:100EE00008951092B0001092B1008091B00082601D
:100EF0008093B0008091B10081608093B1008C91AB
:100F000090E0FC01E85EFD4FE491F0E0EE0FFF1F82
:100F1000EC51FE4F2591349130935B0520935A0597
:100F2000FC01E25AFD4FE491E093590508958FEFDB
:100F300011968C9308950F931F93CF93DF93209175
:100F400058052F5F322F37703093580520FF2BC084
:100F500020E831FD2064347009F02062205FFC013C
:100F6000EC01239600E011E06485662329F070E02F
:100F7000C8010E94A8216F5F6187322F369F030E40
:100F800030E0311D1124311110C01682662311F09A
:100F9000615061873196EC17FD0731F7DF91CF91F2
:100FA0001F910F91089520E0D4CF31503683EECFBA
:100FB0006F927F928F929F92AF92BF92CF92DF9269
:100FC000EF92FF920F931F93CF93DF933C01EB01BE
:100FD0000E949802F30127853089621B730B6A30E7
:100FE0007105B0F3F894E881F98150910B015260DA
:100FF00040910B014D7F40930B01EA848F812E2D90
:10100000281B822F2F83DF84AA81BB816D857C857D
:10101000FE846F5F7F5FF3949E813885B984AB84D3
:10102000118120E0C32E022F322F318111278894A5
:101030003111380F08F43FEF8195889460FD130F4C
:101040001795889461FD130F1795889462FD130F0F
:101050001795889463FD130F1795889464FD130FFB
:101060001795889465FD130F1795889466FD130FE7
:101070001795889467FD130F17958894232F611196
:10108000212F8E0D122F002C50930B01002C17FFD7
:1010900040930B0130812227889400C000C0409308
:1010A0000B013111390F00C050930B01002C16FFBA
:1010B00040930B0108F43FEF9195889400C000C065
:1010C00040930B0170FD230F00C050930B01002CC7
:1010D00015FF40930B012795889471FD230F00C0E5
:1010E00000C040930B012795889400C050930B01DA
:1010F000002C14FF40930B0172FD230F2795889459
:1011000000C000C040930B0173FD230F00C050933B
:101110000B01002C13FF40930B012795889474FD5D
:10112000230F00C000C040930B012795889400C096
:1011300050930B01002C12FF40930B0175FD230F00
:101140002795889400C000C040930B0176FD230FC3
:1011500000C050930B01002C11FF40930B01279509
:10116000889477FD230F00C000C040930B012795A2
:10117000889400C050930B01002C10FF40930B018A
:10118000132F7111122F9B0D00C000C040930B0153
:1011900000C000C050930B01002C17FF40930B01BF
:1011A00032812227889400C000C040930B01311186
:1011B0003C0D00C050930B01002C16FF40930B0117
:1011C00008F43FEFED0DF11D00C000C040930B018E
:1011D000F0FC230F00C050930B01002C15FF40932F
:1011E0000B0127958894F1FC230F00C000C04093A9
:1011F0000B012795889400C050930B01002C14FF1D
:1012000040930B01F2FC230F2795889400C000C087
:1012100040930B01F3FC230F00C050930B01002CF3
:1012200013FF40930B0127958894F4FC230F00C013
:1012300000C040930B012795889400C050930B0188
:10124000002C12FF40930B01F5FC230F2795889487
:1012500000C000C040930B01F6FC230F00C0509368
:101260000B01002C11FF40930B0127958894F7FC8C
:10127000230F00C000C040930B012795889400C045
:1012800050930B01002C10FF40930B01132FF11012
:10129000122FC19400C000C040930B01CA0C00C0C3
:1012A000002C50930B01002C17FF40930B01318150
:1012B0002227889400C000C040930B013111380FE1
:1012C00000C050930B01002C16FF40930B0108F453
:1012D0003FEF8195889400C000C040930B0160FDF2
:1012E000230F00C050930B01002C15FF40930B01FE
:1012F0002795889461FD230F00C000C040930B0127
:101300002795889400C050930B01002C14FF409344
:101310000B0162FD230F2795889400C000C0409305
:101320000B0163FD230F00C050930B01002C13FF32
:1013300040930B012795889464FD230F00C000C0E3
:1013400040930B012795889400C050930B01002C0B
:1013500012FF40930B0165FD230F2795889400C071
:1013600000C040930B0166FD230F00C050930B019A
:10137000002C11FF40930B012795889467FD230FE4
:1013800000C000C040930B012795889400C0509383
:101390000B01002C10FF40930B01132F6111122F32
:1013A0008E0D00C000C040930B01119709F06CCE68
:1013B0004A815B8120EE31E0DA010E94C421DC0128
:1013C000CB01F4E0B695A79597958795FA95D1F757
:1013D00030E020E0B901EAE94E9F040E611D5E9FF6
:1013E000600D711D1124650F711D860F971FA11DC2
:1013F000B11D893E43E09407A105B10508F434C04E
:10140000885E9340A109B10942E0B695A7959795EA
:1014100087954A95D1F747E0849F080E211D949F38
:10142000200D311D1124290F311D6091570570E0E9
:10143000860F971F820F931F4091C6065091C706D3
:101440006091C8067091C906292F3327420F531F98
:10145000611D711D4093C6065093C7066093C80670
:101460007093C9068093570578940E949802F301FF
:10147000708B6787DF91CF911F910F91FF90EF9055
:10148000DF90CF90BF90AF909F908F907F906F90A4
:101490000895EAE0F1E08081826080830895EF9210
:1014A000FF920F931F93CF93DF93CDB7DEB7629771
:1014B0000FB6F894DEBF0FBECDBF7C01DC011C96D9
:1014C0008C917A8369835C834B835E834D830D8724
:1014D0001E872F87813001F5CE0101960E949B0760
:1014E00083E0888B1A8A198AD701ED91FC910484D4
:1014F000F585E02DBE016F5F7F4FC701199562969C
:101500000FB6F894DEBF0FBECDBFDF91CF911F9114
:101510000F91FF90EF9008951C861B861A861986FE
:1015200018861F82DDCFEF92FF920F931F93CF9308
:10153000DF93CDB7DEB762970FB6F894DEBF0FBE6C
:10154000CDBF7C01DC011C968C917A8369835C831E
:101550004B835E834D830D871E872F878130F9F47F
:10156000CE0101960E949B07188A1A8A198AD70110
:10157000ED91FC910484F585E02DBE016F5F7F4FF6
:10158000C701199562960FB6F894DEBF0FBECDBFA6
:10159000DF91CF911F910F91FF90EF9008951C86DE
:1015A0001B861A86198618861F82DECF0F931F931B
:1015B0008091A7058823B9F061E084E30E94390295
:1015C00061E088E20E94390281E080935605109222
:1015D000A7050E94F30260937707709378078093C2
:1015E000790790937A07809156058823E9F00E9445
:1015F000F3020091770710917807209179073091D5
:101600007A07601B710B820B930B653671058105A0
:10161000910550F060E084E30E94390260E088E2C6
:101620000E943902109256051F910F910895409122
:101630000002509101026091020270910302DB01ED
:10164000CA01B695A7959795879540FF0FC026E0EC
:1016500082279058B0588093000290930102A09383
:101660000202B093030281E090E0089580930002AB
:1016700090930102A0930202B093030290E080E0F5
:101680000895CF92DF92EF92FF92CF93DF93C090B5
:101690005802D0905902E0905A02F0905B02C0913B
:1016A0005002D09151028091BF059091C0050197E1
:1016B00069F4A7019601BE0180E995E0DF91CF9121
:1016C000FF90EF90DF90CF900C94460580919405A9
:1016D000811106C080914C0290914D02C80FD91F14
:1016E000A7019601BE0182E995E00E944605E1CF7F
:1016F000CF92DF92EF92FF92CF93DF93C090580288
:10170000D0905902E0905A02F0905B02C0915002D2
:10171000D09151028091BF059091C005019769F465
:10172000A7019601BE0182E995E0DF91CF91FF907C
:10173000EF90DF90CF900C94460580919405811135
:1017400006C080914C0290914D02C81BD90BA70195
:101750009601BE0182E995E00E944605A701960127
:10176000BE0180E995E0E1CFEAE8F5E01082118260
:10177000128213821482158280919B070C94FF02BF
:101780000F931F93EAE8F5E060E975E005E550E0A6
:10179000ABEABAEA1091480230914A02932F990FAE
:1017A000990F990F292F209F020E20E0211D11244F
:1017B000822F232F2074432F407237FD53C02111F5
:1017C0003EC0411106C0982F9095382F892F90E088
:1017D00004C035E5380F90E08BEA1F3F09F421C0C3
:1017E000252F112321F0119F212D09F02F5F222396
:1017F00009F458C0882331F0482F429F040E40E07E
:10180000411D842F332321F0329F030E30E0311D20
:10181000992331F0492F429F040E40E0411D942F3F
:10182000112480833183928333966E177F0709F0EA
:10183000B1CF80919B071F910F910C94FF02411132
:101840000CC0292F3B2F239F020E20E0211D1124C5
:101850009A2F921B3AEA380FB9CF382F3095982F2C
:1018600080E0BBCF211112C041110CC0292F4B2F9A
:10187000249F020E20E0211D11243A2F321B95E5F2
:10188000920FEECF982F909530E0A7CF411106C070
:1018900025E5280F9A2F981B822FF6CF2AEA280FCA
:1018A000902FF9CF90E030E080E0BBCFCF92DF9275
:1018B000EF92FF920F931F930E94C00B0E94980219
:1018C0006B017C01C0928B07D0928C07E0928D0750
:1018D000F0928E070E9498026093830770938407AA
:1018E00080938507909386070E9498026C197D0962
:1018F0008E099F0900918707109188072091890719
:1019000030918A07601771078207930750F50E948C
:1019100098020091830710918407209185073091E8
:101920008607601B710B820B930B63307105810579
:101930009105D0F20E949802609383077093840708
:1019400080938507909386070E94170B682F82E08B
:101950000E9439020E94170B682F83E00E9439020F
:10196000C3CF1F910F91FF90EF90DF90CF9008951C
:101970000F931F93CF93DF9300D0CDB7DEB7AB01AA
:1019800019821A821B82DC01ED91FC910190F08199
:10199000E02D00E010E020E0BE016F5F7F4F199561
:1019A0000F900F900F90DF91CF911F910F9108959D
:1019B000FC0185859685089590E080E00895FC01FE
:1019C00001900020E9F73197AF01481B590BBC018A
:1019D0008AED96E00C9412048F929F92AF92BF9280
:1019E0000F931F93CF93DF93CDB7DEB7A1970FB6B9
:1019F000F894DEBF0FBECDBF19A2423008F44AE012
:101A00008E010F5D1F4F842E912CB12CA12CA501AE
:101A100094010E944521E62FB901CA01EA30F4F48D
:101A2000E05DD801EE938D01232B242B252B79F734
:101A300090E080E0109719F0CD010E94DF0CA19694
:101A40000FB6F894DEBF0FBECDBFDF91CF911F91CF
:101A50000F91BF90AF909F908F900895E95CE1CF78
:101A6000CF93DF930E94DF0CEC0188E992E00E94A3
:101A7000DF0C8C0F9D1FDF91CF910895CF93DF93E3
:101A8000EC010E94F3029F938F937F936F93DF93F8
:101A9000CF938BE992E09F938F931F9280E88F936F
:101AA00086ED94E09F938F930E9405238DB79EB798
:101AB0000C960FB6F8949EBF0FBE8DBF86ED94E0D6
:101AC000DF91CF910C94300DCF93DF93C091A80597
:101AD000D091A905D0930D02C0930C020E94F3028D
:101AE00060939707709398078093990790939A074C
:101AF000CE01DF91CF910C943E0D8091B5058823E6
:101B0000B9F08AE290E00E943E0D80910602909129
:101B10000702019690930702809306028091360295
:101B2000909137020197F9F48DE290E00E943E0D0A
:101B30008091B3058823E9F08BE290E00E943E0D8E
:101B40008091040290910502019690930502809382
:101B500004028091360290913702019739F48CE2A9
:101B600090E00C943E0D8CE290E0E0CF8DE290E0AE
:101B7000F8CF0895EF92FF920F931F93CF93DF93C7
:101B8000EC01142F052FF62EE72E0E94F3029F93EF
:101B90008F937F936F93EF92FF920F931F93DF9337
:101BA000CF9382EA92E09F938F931F9280E88F9366
:101BB00086ED94E09F938F930E9405238DB79EB787
:101BC00040960FB6F8949EBF0FBE8DBF86ED94E091
:101BD000DF91CF911F910F91FF90EF900C94300DFA
:101BE0000F931F93CF93DF93EC01162F072F0E94C3
:101BF000F3029F938F937F936F930F931F93DF93C2
:101C0000CF9383EB92E09F938F931F9280E88F9303
:101C100086ED94E09F938F930E9405238DB79EB726
:101C20000E960FB6F8949EBF0FBE8DBF86ED94E062
:101C3000DF91CF911F910F910C94300D0E94F61CF3
:101C400060E679E080E090E008950E94F61C68E587
:101C500072E080E090E008950E94F7228F929F92B8
:101C6000AF92BF92CF92DF92EF92FF926A017B0117
:101C70009F938F9383EC92E09F938F931F9280E8C2
:101C80008F9386ED94E09F938F930E94052386EDBA
:101C900094E00E94DF0C8DB79EB708960FB6F894BB
:101CA0009EBF0FBE8DBFA7019601C701B6010E945E
:101CB000F222882359F18CEC92E00E94DF0C0E9402
:101CC000F3029F938F937F936F938DEB92E09F939B
:101CD0008F931F9280E88F9386ED94E09F938F936C
:101CE0000E9405238DB79EB70A960FB6F8949EBF43
:101CF0000FBE8DBF86ED94E0FF90EF90DF90CF9008
:101D0000BF90AF909F908F900C94300D460157017B
:101D1000E894B7F82FEF3FEF4FE75FE7C501B40155
:101D20000E94F22281110DC02FEF3FEF4FE75FE7D6
:101D3000C501B4010E94112018161CF480ED92E038
:101D4000BCCF2FEF3FEF4FE75FE4C701B6010E9422
:101D5000ED2218161CF484ED92E0AFCF2FEF3FEF89
:101D60004FE75FECC701B6010E94112087FDF3CF5A
:101D700020E030E0A901C701B6010E94112087FFD1
:101D800009C06DE28AED96E00E94A804F7FAF0948B
:101D9000F7F8F0942AE037ED43EA5BE3C701B601B8
:101DA0000E94E0214B015C010E94BE226B017C017C
:101DB0000E9416209B01AC01C501B4010E94DF21E5
:101DC0004B015C014AE0C701B6010E94EC0C6EE2D7
:101DD0008AED96E00E94A80420E030E040E251E461
:101DE000C501B4010E9477204B015C010E94BE2214
:101DF0006B01F12CE12C4AE0C701B6010E94EC0C0A
:101E0000C701B6010E9416209B01AC01C501B401B7
:101E10000E94DF2120E030E040E251E40E94772080
:101E20000E94BE2290E080E04AE00E94EC0C47CF86
:101E30001F920F920FB60F9211242F933F938F93FF
:101E40009F93AF93BF938091C6069091C706A091D0
:101E5000C806B091C9063091C50623E0230F2D377F
:101E600058F50196A11DB11D2093C5068093C606A5
:101E70009093C706A093C806B093C9068091CA067E
:101E80009091CB06A091CC06B091CD060196A11DF4
:101E9000B11D8093CA069093CB06A093CC06B09355
:101EA000CD06BF91AF919F918F913F912F910F9050
:101EB0000FBE0F901F90189526E8230F0296A11DC4
:101EC000B11DD2CF1F920F920FB60F9211240BB6F5
:101ED0000F922F933F934F935F936F937F938F93C3
:101EE0009F93AF93BF93EF93FF938AED96E00E9489
:101EF0008604FF91EF91BF91AF919F918F917F9158
:101F00006F915F914F913F912F910F900BBE0F906A
:101F10000FBE0F901F9018951F920F920FB60F9241
:101F200011240BB60F922F938F939F93EF93FF93F0
:101F3000E091EA06F091EB068081E091F006F091E5
:101F4000F10682FD1DC090818091F3068F5F8F7333
:101F50002091F406821741F0E091F306F0E0E6529A
:101F6000F94F958F8093F306FF91EF919F918F9199
:101F70002F910F900BBE0F900FBE0F901F901895D2
:101F80008081F2CF1F920F920FB60F9211240BB6E1
:101F90000F922F933F938F939F93AF93BF93EF93A2
:101FA000FF938091630590916405A0916505B091C0
:101FB00066050097A105B10541F130915905E09101
:101FC0005A05F0915B0520812327208318161906F6
:101FD0001A061B061CF40197A109B1098093630539
:101FE00090936405A0936505B0936605FF91EF910A
:101FF000BF91AF919F918F913F912F910F900BBE09
:102000000F900FBE0F901F901895209170002D7F9C
:102010002093700020915905E0915A05F0915B05DD
:102020003081209523232083D9CF1F920F920FB6A2
:102030000F9211240BB60F928F939F93AF93BF9380
:10204000EF93FF938091670590916805A0916905D2
:10205000B0916A05892B8A2B8B2BB1F190915C058D
:10206000E0915D05F0915E058081892780838091F4
:10207000670590916805A0916905B0916A051816E9
:1020800019061A061B069CF4809167059091680555
:10209000A0916905B0916A050197A109B1098093E2
:1020A000670590936805A0936905B0936A05FF9151
:1020B000EF91BF91AF919F918F910F900BBE0F90B9
:1020C0000FBE0F901F90189580916F008D7F8093A9
:1020D0006F0080915C05E0915D05F0915E05908157
:1020E000809589238083E3CF1F920F920FB60F92C2
:1020F00011240BB60F928F939F93AF93BF93EF93DF
:10210000FF9380916B0590916C05A0916D05B09146
:102110006E05892B8A2B8B2BB1F190915F05E09195
:102120006005F091610580818927808380916B052E
:1021300090916C05A0916D05B0916E051816190669
:102140001A061B069CF480916B0590916C05A0917A
:102150006D05B0916E050197A109B10980936B05DA
:1021600090936C05A0936D05B0936E05FF91EF9170
:10217000BF91AF919F918F910F900BBE0F900FBEAB
:102180000F901F90189580916E008D7F80936E0048
:1021900080915F05E0916005F091610590818095E7
:1021A00089238083E3CFCF92DF92EF92FF92EAED13
:1021B000F6E01382128288EE93E0A0E0B0E0848320
:1021C0009583A683B7838AE892E09183808385EC28
:1021D00090E09587848784EC90E09787868780ECF1
:1021E00090E0918B808B81EC90E0938B828B82ECE2
:1021F00090E0958B848B86EC90E0978B868B118E8C
:10220000128E138E148ECC24CA94DC2C7601C092CC
:102210009707D0929807E0929907F0929A07C09298
:102220009307D0929407E0929507F0929607C09298
:102230008F07D0929007E0929107F0929207C09298
:102240008B07D0928C07E0928D07F0928E07209139
:102250005C0230915D0240915E0250915F02A8EEF7
:10226000B3E00E948621609387077093880780936C
:10227000890790938A07C0928307D0928407E092DF
:102280008507F0928607C0927F07D0928007E09280
:102290008107F0928207C0927B07D0927C07E09280
:1022A0007D07F0927E07C0927707D0927807E09280
:1022B0007907F0927A07EBE9F7E08FEF80831282DB
:1022C000118214861386C782D086E186F286FF903B
:1022D000EF90DF90CF900895CF93DF9300D000D0A0
:1022E0001F921F92CDB7DEB7789484B5826084BD0B
:1022F00084B5816084BD85B5826085BD85B581600A
:1023000085BD80916E00816080936E001092810087
:102310008091810082608093810080918100816042
:102320008093810080918000816080938000809103
:10233000B10084608093B1008091B000816080938F
:10234000B000809191008260809391008091910013
:1023500081608093910080919000816080939000D3
:102360008091A10082608093A1008091A100816092
:102370008093A1008091A00081608093A000809153
:1023800021018260809321018091210181608093ED
:1023900021018091200181608093200180917A0049
:1023A000846080937A0080917A00826080937A00C2
:1023B00080917A00816080937A0080917A008068B1
:1023C00080937A001092C1000E94BD02E091EA065B
:1023D000F091EB0682E08083E091E606F091E7065B
:1023E0001082E091E806F091E90680E18083109286
:1023F000F206E091EE06F091EF0686E08083E09130
:10240000EC06F091ED06808180618083E091EC061E
:10241000F091ED06808188608083E091EC06F09178
:10242000ED06808180688083E091EC06F091ED06F6
:1024300080818F7D808360E083E30E94670260E09B
:1024400082E30E94670261E084E30E94670261E028
:1024500088E20E94670261E082E00E94670261E018
:1024600083E00E9467026EE282E995E00E94120713
:102470006FE280E995E00E94120780918205811148
:1024800045C010927405109273058FEF8093770505
:10249000809378058093790580937A0580937B05F6
:1024A00080937C0581E080937D0510927F051092DA
:1024B0007E0510927605109275058091D406909154
:1024C000D506892B31F481E795E09093D50680936A
:1024D000D406E0916F05F0917005309721F081E707
:1024E00095E09583848381E795E0909370058093D0
:1024F0006F05109281051092800588E792E0909315
:1025000072058093710581E08093820580910A01B4
:10251000826080930A018AE895E090937405809325
:10252000730582E090E090937F0580937E05809113
:102530009E0790919F07A091A007B091A107843CAE
:1025400029E09207A105B10520F484EC99E0A0E010
:10255000B0E080939E0790939F07A093A007B0934D
:10256000A1070E94B40B88ED92E00E94300D0E94FA
:10257000BD02DD24D3948091C406882309F45BC195
:10258000E091A805F091A905E830F10508F053C1E4
:102590008827E253FD4E8F4F0C94BC210517D612AD
:1025A0002313AB152616F11633170F1780910C0263
:1025B00090910D02019741F00E94640D84E190E03A
:1025C0000E943E0D0E94B40B2091A8053091A905F0
:1025D00080910C0290910D022817390709F02BC148
:1025E0008091BD059091BE05892B31F58CE10E944B
:1025F0001002019709F01FC10E94F30200918F079A
:10260000109190072091910730919207601B710BF8
:10261000820B930B00912002109121022091220243
:1026200030912302061717072807390708F003C15E
:102630008091B2058111FFC022E030E03093A905FE
:102640002093A805F8C080910C0290910D0202978A
:1026500009F4EBC00E94640D85E190E00E943E0DFC
:102660008090540290905502A0905602B09057026C
:102670000091500210915102A5019401B80182E924
:1026800095E00E944605A5019401B80180E995E016
:102690000E944605D092A7050E94D60A8091280282
:1026A00090912902019761F580919505811116C0DD
:1026B00080912602909127022091A1053091A205D8
:1026C000281739073CF420919F053091A005281761
:1026D000390724F0D09295051092940580919505C4
:1026E000882391F02091A3053091A40580912402C4
:1026F00090912502281739070CF447C010929505D0
:1027000080919505811141C00E94F61C28EE33E0AE
:1027100040E050E00E9467210E94182020E030E055
:102720004AE754E40E944C22209114023091150291
:1027300040911602509117020E94112087FFFEC19E
:1027400086E090E09093A6058093A5050E94F61C74
:1027500028EE33E040E050E00E9467210E941820FC
:1027600020E030E04AE754E40E944C222091180215
:102770003091190240911A0250911B020E941120BF
:10278000880F880B8D21809394058091A5059091E9
:10279000A605069789F48091360290913702892B1D
:1027A00009F0D3C10E94250E6093080270930902BC
:1027B00080930A0290930B028091A5059091A60543
:1027C000049789F48091360290913702019709F0BD
:1027D000BFC10E94250E6093080270930902809386
:1027E0000A0290930B0240910802509109026091F5
:1027F0000A0270910B028FEF92E00E94BA0D609175
:10280000A5057091A6058DE093E00E94F00D609102
:10281000950570E08AE193E00E94F00D60919405C7
:1028200070E085E894E00E94F00D83E090E09093E2
:10283000A9058093A80580910F02882309F449C057
:102840008091BC05882309F469C061E085E00E949D
:1028500039028EE090E00E943E0D10920F026091CE
:1028600032027091330280913402909135020E94BD
:1028700016200E94BE220E94162020912E02309126
:102880002F0240913002509131020E944C220E944E
:10289000BE226093AE057093AF058093B005909310
:1028A000B1050E94F30260937F07709380078093C5
:1028B0008107909382071092BC058091BB05882305
:1028C00041F00E94780B1092BB0580910F0281119C
:1028D00025C00E94F30200917F071091800720918C
:1028E000810730918207601B710B820B930B009163
:1028F000AE051091AF052091B0053091B1050617D6
:1029000017072807390750F460E085E00E94390274
:102910008FE090E00E943E0DD0920F0280910E0257
:10292000882309F449C08091BA05882309F469C055
:1029300061E084E00E94390280E190E00E943E0D57
:1029400010920E0260913202709133028091340233
:10295000909135020E9416200E94BE220E941620ED
:1029600020912A0230912B0240912C0250912D028D
:102970000E944C220E94BE226093AA057093AB0570
:102980008093AC059093AD050E94F30260937B07A2
:1029900070937C0780937D0790937E071092BA0511
:1029A0008091B905882341F00E94410B1092B9052E
:1029B00080910E02811125C00E94F30200917B07D5
:1029C00010917C0720917D0730917E07601B710B71
:1029D000820B930B0091AA051091AB052091AC05D9
:1029E0003091AD05061717072807390750F460E046
:1029F00084E00E94390281E190E00E943E0DD09275
:102A00000E0283E30E94100221E0009709F420E007
:102A10002093B6052091B505211112C0892B81F0B4
:102A20008AE090E00E943E0DD092B5050E94F3022C
:102A300060939307709394078093950790939607FC
:102A40008091B5058823A1F08091B605811110C051
:102A50008BE090E00E943E0D1092B5050E94F302BB
:102A600060938F07709390078093910790939207DC
:102A700082E30E94100221E0009709F420E02093F5
:102A8000B4052091B305211112C0892B81F08CE08F
:102A900090E00E943E0DD092B3050E94F302609335
:102AA000930770939407809395079093960780916E
:102AB000B3058823A1F08091B405811110C08DE089
:102AC00090E00E943E0D1092B3050E94F3026093C5
:102AD0008F0770939007809391079093920780914E
:102AE000B505811102C08091B3058093B2051FE73F
:102AF0008AED96E00E9470042091C306181619060C
:102B00000CF059C221115AC28AED96E00E944E047F
:102B10009091B805992309F448C29091B705E92F1F
:102B2000F0E0ED53FA4F8E3309F437C2808381E031
:102B3000890F87FF2FC21093B705DACF24E030E06A
:102B40003093A6052093A50501CE0E941E0E2CCE23
:102B50000E941E0E40CE80910C0290910D020397B0
:102B600011F00E94640D20910C0230910D028091B1
:102B7000A8059091A90528173907B9F48091B205E5
:102B8000882399F088E290E00E943E0D89E290E06F
:102B90000E943E0D88E190E00E943E0D0E94560C7E
:102BA0000E947D0D27E030E049CD0E94F3020091A4
:102BB0009707109198072091990730919A07601B09
:102BC000710B820B930B0091080210910902209166
:102BD0000A0230910B02061717072807390708F079
:102BE0002ACE8091A5059091A605049781F486E3ED
:102BF00090E00E943E0D809136029091370201973D
:102C0000F9F488E390E00E943E0D0E94780B8091D9
:102C1000A5059091A605069781F487E390E00E94B0
:102C20003E0D8091360290913702019761F489E35D
:102C300090E00E943E0D0E94410B84E090E0F7CDB1
:102C400089E390E0E0CF88E390E0F3CF80910C023D
:102C500090910D02049711F00E94640D8091B205CD
:102C6000882309F497C00E94F30200919307109102
:102C700094072091950730919607601B710B820B8A
:102C8000930B00911C0210911D0220911E023091A5
:102C90001F02061717072807390708F07BC088E2CC
:102CA00090E00E943E0D0E947D0D8091A5059091BF
:102CB000A6058430910579F58091B505811131C063
:102CC0008091B305882309F465C08AE190E00E94F1
:102CD0003E0D88E190E00E943E0D0E94560C8091CE
:102CE000A5059091A6058430910509F043C0809117
:102CF000A1059091A20501969093A2058093A1054C
:102D00001092A00510929F051092A4051092A305A1
:102D100087E090E08CCD0697E9F58091B305882394
:102D200031F18BE190E00E943E0D87E190E00E943E
:102D30003E0D8091A3059091A40501969093A40562
:102D40008093A3058091A5059091A60584309105F7
:102D500039F41092A2051092A10525E030E06ECC66
:102D60000697D9F71092A00510929F05F6CF809193
:102D7000B505A8CF069741F680919F059091A005D3
:102D800001969093A00580939F051092A205109242
:102D9000A105BACF0E94F3020091970710919807FE
:102DA0002091990730919A07601B710B820B930B4E
:102DB000009138021091390220913A0230913B0281
:102DC000061717072807390708F035CD89E190E085
:102DD0000E943E0D88E190E00E943E0D26E030E02A
:102DE0002DCC80910C0290910D02059771F00E94FC
:102DF000640D8091A5059091A605049749F48FE193
:102E000090E00E943E0DD092BC0586E090E00FCD90
:102E100080E290E00E943E0DD092BA05F6CF8091FC
:102E20000C0290910D02079711F00E94640D0E9410
:102E3000F30200919707109198072091990730911C
:102E40009A07601B710B820B930B00913C0210914F
:102E50003D0220913E0230913F02061717072807D6
:102E6000390798F2E8CC80910C0290910D020697F8
:102E700009F443C00E94640D80904002909041028A
:102E8000A0904202B090430240904402509045020C
:102E90006090460270904702481459046A047B040B
:102EA00074F484189508A608B7080E94F61CA501BA
:102EB00094010E946721460E571E681E791E40929B
:102EC0009B0550929C0560929D0570929E050E9404
:102ED000F61C28EE33E040E050E00E946721685184
:102EE0007C4F8F4F9F4F6093970570939805809309
:102EF000990590939A051092960520910C023091B5
:102F00000D028091A8059091A9052817390719F598
:102F10008090970790909807A0909907B0909A0793
:102F20000E94F302681979098A099B0900919705A3
:102F3000109198052091990530919A050617170769
:102F40002807390740F480919605811104C00E943A
:102F5000C00BD09296050E94F30200919707109142
:102F600098072091990730919A07601B710B820B8B
:102F7000930B00919B0510919C0520919D0530912C
:102F80009E05061717072807390708F054CC21E0DB
:102F900030E054CB8093B705ABCD10821092B805CA
:102FA0001092B705D092C306A3CD8C3309F0A0CD03
:102FB000D092B8059DCD222309F4C6C483EC95E0D8
:102FC0009F938F9387E293E09F938F931F9280E864
:102FD0008F9383E496E09F938F930E94052383E46D
:102FE00096E00E94300DE3ECF5E08DB79EB70896B1
:102FF0000FB6F8949EBF0FBE8DBF10E000E0819128
:10300000882339F00F5F1F4F00381105C1F710E01A
:1030100000E044E050E063EC75E0CE0101960E94D0
:103020007C1E6EE373E0CE0101960E94FC22892B88
:1030300009F0E5C1ADB6BEB6A801435051092DB7A0
:103040003EB7241B350B0FB6F8943EBF0FBE2DBF05
:103050008DB79EB701967C0167EC75E00E947C1EDF
:1030600062E473E0C7010E94FC22892B61F4409165
:103070005C0250915D0260915E0270915F0282E499
:1030800093E00E94BA0D67E573E0C7010E94FC223D
:10309000892B61F4409158025091590260915A0273
:1030A00070915B0287E593E00E94BA0D6BE473E0D8
:1030B000C7010E94FC22892B61F440915402509177
:1030C000550260915602709157028BE493E00E9482
:1030D000BA0D60E673E0C7010E94FC22892B61F4FF
:1030E00040915002509151026091520270915302EE
:1030F00080E693E00E94BA0D61E773E0C7010E9489
:10310000FC22892B61F440914C0250914D02609158
:103110004E0270914F0281E793E00E94BA0D6FE773
:1031200073E0C7010E94FC22892B41F460914A029E
:1031300070914B028FE793E00E94F00D67E873E017
:10314000C7010E94FC22892B41F4609148027091D2
:10315000490287E893E00E94F00D66E973E0C70139
:103160000E94FC22892B61F4409144025091450257
:10317000609146027091470286E993E00E94BA0D81
:1031800062EA73E0C7010E94FC22892B61F440913E
:10319000400250914102609142027091430282EAE2
:1031A00093E00E94BA0D6EEA73E0C7010E94FC2210
:1031B000892B61F440913C0250913D0260913E02A6
:1031C00070913F028EEA93E00E94BA0D6AEB73E0C1
:1031D000C7010E94FC22892B61F440913802509172
:1031E000390260913A0270913B028AEB93E00E94AF
:1031F000BA0D65EC73E0C7010E94FC22892B41F4F3
:103200006091C1057091C20585EC93E00E94F00DBC
:1032100069ED73E0C7010E94FC22892B41F46091A3
:1032200036027091370289ED93E00E94F00D64EE52
:1032300073E0C7010E94FC22892B61F440913202A5
:1032400050913302609134027091350284EE93E024
:103250000E94BA0D65EF73E0C7010E94FC22892B22
:1032600061F440912E0250912F02609130027091D2
:10327000310285EF93E00E942E0E66E074E0C701F4
:103280000E94FC22892B61F440912A0250912B026A
:1032900060912C0270912D0286E094E00E942E0E27
:1032A00068E174E0C7010E94FC22892B41F460911F
:1032B000BF057091C00588E194E00E94F00D65E2C1
:1032C00074E0C7010E94FC22892B41F4609128021E
:1032D0007091290285E294E00E94F00D66E374E0AB
:1032E000C7010E94FC22892B41F460912602709153
:1032F000270286E394E00E94F00D66E474E0C701C3
:103300000E94FC22892B41F46091240270912502D5
:1033100086E494E00E94F00D65E574E0C7010E9428
:10332000FC22892B61F4409120025091210260918E
:1033300022027091230285E594E00E94BA0D65E6B1
:1033400074E0C7010E94FC22892B61F440911C02A9
:1033500050911D0260911E0270911F0285E694E05B
:103360000E94BA0D63E774E0C7010E94FC22892B1A
:1033700041F46091BD057091BE0583E794E00E9421
:10338000F00D63E874E0C7010E94FC22892B61F410
:10339000409118025091190260911A0270911B021B
:1033A00083E894E00E942E0E62E974E0C7010E9457
:1033B000FC22892B61F44091140250911502609116
:1033C00016027091170282E994E00E942E0E67E9BE
:1033D00074E0C7010E94FC22892B61F44091100225
:1033E00050911102609112027091130287E994E0EA
:1033F0000E94BA0D0FB6F894BEBE0FBEADBE6BE90B
:1034000074E0CE0101960E94FC22892B09F044C28F
:103410002DB73EB738872F83C80103979E838D83CE
:10342000281B390B0FB6F8943EBF0FBE2DBF8DB7CA
:103430009EB701965C014D815E8167EC75E00E944C
:103440007C1EF501712C612C2191C3010196203263
:1034500039F03C0190E869167104B1F7712C612CC8
:1034600043012FEF821A920A8DB79EB788199909E6
:103470000FB6F8949EBF0FBE8DBF2DB73EB72F5F1E
:103480003F4F7901A401B501C9010E947C1EA8012A
:1034900042505109461957098DB79EB7841B950BA9
:1034A0000FB6F8949EBF0FBE8DBF0DB71EB70F5F4E
:1034B0001F4FB501680D791DC8010E947C1E62E492
:1034C00073E0C7010E94FC22892B79F44AE050E0A6
:1034D00070E060E0C8010E944E1D60935C02709332
:1034E0005D0280935E0290935F0267E573E0C7011F
:1034F0000E94FC22892B79F44AE050E070E060E001
:10350000C8010E944E1D6093580270935902809327
:103510005A0290935B026BE473E0C7010E94FC22A5
:10352000892B79F44AE050E070E060E0C8010E9425
:103530004E1D6093540270935502809356029093EF
:10354000570260E673E0C7010E94FC22892B79F4E0
:103550004AE050E070E060E0C8010E944E1D6093B8
:10356000500270935102809352029093530261E78C
:1035700073E0C7010E94FC22892B79F44AE050E0F5
:1035800070E060E0C8010E944E1D60934C02709391
:103590004D0280934E0290934F026FE773E0C70194
:1035A0000E94FC22892B39F4C8010E94551E909379
:1035B0004B0280934A0267E873E0C7010E94FC2235
:1035C000892B39F4C8010E94551E909349028093BB
:1035D000480266E973E0C7010E94FC22892B79F456
:1035E0004AE050E070E060E0C8010E944E1D609328
:1035F000440270934502809346029093470262EA28
:1036000073E0C7010E94FC22892B79F44AE050E064
:1036100070E060E0C8010E944E1D6093400270930C
:10362000410280934202909343026EEA73E0C70125
:103630000E94FC22892B79F44AE050E070E060E0BF
:10364000C8010E944E1D60933C0270933D0280931E
:103650003E0290933F026AEB73E0C7010E94FC2296
:10366000892B79F44AE050E070E060E0C8010E94E4
:103670004E1D609338027093390280933A02909302
:103680003B0265EC73E0C7010E94FC22892B39F4F0
:10369000C8010E94551E9093C2058093C10569ED33
:1036A00073E0C7010E94FC22892B39F4C8010E94F3
:1036B000551E909337028093360264EE73E0C70183
:1036C0000E94FC22892B79F44AE050E070E060E02F
:1036D000C8010E944E1D60933202709333028093A2
:1036E00034029093350265EF73E0C7010E94FC221B
:1036F000892B59F4C8010E94511E60932E027093C9
:103700002F02809330029093310266E074E0C7018B
:103710000E94FC22892B59F4C8010E94511E60931B
:103720002A0270932B0280932C0290932D0268E161
:1037300074E0C7010E94FC22892B39F4C8010E9461
:10374000551E9093C0058093BF0565E274E0C701E4
:103750000E94FC22892B39F4C8010E94551E9093C7
:1037600029028093280266E374E0C7010E94FC22CC
:10377000892B39F4C8010E94551E9093270280932B
:10378000260266E474E0C7010E94FC22892B39F40A
:10379000C8010E94551E909325028093240265E57E
:1037A00074E0C7010E94FC22892B79F44AE050E0C2
:1037B00070E060E0C8010E944E1D6093200270938B
:1037C0002102809322029093230265E674E0C701F0
:1037D0000E94FC22892B79F44AE050E070E060E01E
:1037E000C8010E944E1D60931C0270931D028093BD
:1037F0001E0290931F0263E774E0C7010E94FC223F
:10380000892B39F4C8010E94551E9093BE05809300
:10381000BD0563E874E0C7010E94FC22892B59F4BE
:10382000C8010E94511E6093180270931902809380
:103830001A0290931B0262E974E0C7010E94FC2205
:10384000892B59F4C8010E94511E60931402709391
:103850001502809316029093170267E974E0C7017E
:103860000E94FC22892B79F44AE050E070E060E08D
:10387000C8010E944E1D6093100270931102809344
:103880001202909313022F8138850FB6F8943EBF31
:103890000FBE2DBF0D811E816FE974E0CE01019630
:1038A0000E94FC22892B09F04DC0EDB6FEB6A8019E
:1038B000435051098DB79EB7841B950B0FB6F894F2
:1038C0009EBF0FBE8DBF2DB73EB72F5F3F4F590133
:1038D00067EC75E0C9010E947C1E63EA74E0C501D3
:1038E0000E94FC22892B31F4D092C40687EA94E02E
:1038F0000E94300D6CEB74E0C5010E94FC22892B04
:1039000031F41092C40681EC94E00E94300D63EC17
:1039100073E0C5010E94FC22892B21F4D092BC05E2
:10392000D092BB0564E074E0C5010E94FC22892BA3
:1039300021F4D092BA05D092B9050FB6F894FEBE24
:103940000FBEEDBE1092C3060E94D60A0E94150556
:103950000C94BB128F929F92AF92BF92CF92DF9244
:10396000EF92FF92CF93DF93EC01688179818A8196
:103970009B81611571058105910521F464E279ED62
:103980008BE597E02DE133EF41E050E00E946721A5
:1039900049015A019B01AC01A7EAB1E40E948621CA
:1039A0006B017C01ACEEB4EFA50194010E9494215F
:1039B000C60ED71EE81EF91EF7FE06C081E0C81A23
:1039C000D108E10880E8F80AC882D982EA82FB823D
:1039D000C701B6019F77DF91CF91FF90EF90DF9005
:1039E000CF90BF90AF909F908F9008958F929F92AD
:1039F000AF92BF92CF92DF92EF92FF9260916002FE
:103A0000709161028091620290916302611571056B
:103A10008105910521F464E279ED8BE597E02DE1D4
:103A200033EF41E050E00E94672149015A019B01B8
:103A3000AC01A7EAB1E40E9486216B017C01ACEEE7
:103A4000B4EFA50194010E949421C60ED71EE81E72
:103A5000F91EF7FE06C081E0C81AD108E10880E827
:103A6000F80AC0926002D0926102E0926202F09283
:103A70006302C701B6019F77FF90EF90DF90CF9070
:103A8000BF90AF909F908F90089560936002709365
:103A90006102809362029093630208953F924F9275
:103AA0005F926F927F928F929F92AF92BF92CF92CE
:103AB000DF92EF92FF920F931F93CF93DF935C01FE
:103AC0006B017A016115710519F0FB019183808307
:103AD000E114F10449F0C7010297839728F060E0F0
:103AE00070E0CB019BC05E01E5012196F5011081DC
:103AF000812F90E00E94731E892BA9F71D3209F0D7
:103B00005CC02196F501118101E0E114F10409F492
:103B1000BBC0F0E1EF16F10409F09BC0103341F493
:103B200088818F7D883509F08FC0198122960260C7
:103B3000E0E1EE2EF12C88248A94982CA82CFFE04A
:103B4000BF2E20E060E070E0CB0127010F2C000CBD
:103B500066087708FE0150ED352E310E39E0331539
:103B600068F43FEB310F49EC342E3A3130F03FE945
:103B7000310F3A31B0F539EA332E310E3E141F04BD
:103B800084F52F3FB9F086169706A806B90638F1D6
:103B9000A30192010E943521232D30E050E040E046
:103BA000620F731F841F951F6217730784079507A1
:103BB000B0F021E021961081CDCF1B3221F4E50138
:103BC0002296F501118100E0A0CF78E0E72EF12CDC
:103BD00088248A94982CA82C6FE1B62EB2CF2FEFB0
:103BE000E9CFC114D10431F0222351F12197F6011C
:103BF000D183C08300FF07C0909580957095619533
:103C00007F4F8F4F9F4F2F3F49F482E290E0909378
:103C1000A9078093A8076FEF7FEFCB01DF91CF91CA
:103C20001F910F91FF90EF90DF90CF90BF90AF90DA
:103C30009F908F907F906F905F904F903F900895EE
:103C400001FFD8CF2297D3CF10E3E114F10409F498
:103C5000BCCF3AE0E316F104E9F080E1E816F104A4
:103C600009F466CFE8E0EE16F10409F4B1CF6FEF86
:103C70007FEFCB0197010F2C000C440B550B0E94DA
:103C8000452149015A015DCF103309F449CF9AE02B
:103C9000E92EF12C89E9882E982CA82C89E1B82EE0
:103CA00050CF662777270C94981EFC018827992708
:103CB000E89421912032E9F3293010F02E30C8F336
:103CC0002B3241F02D3239F4689404C00E94901ECA
:103CD000820F911D219120532A30C0F31EF490953C
:103CE00081959F4F089591110C94F61F803219F021
:103CF00089508550C8F70895DC01FB0141505040C0
:103D000058F049F001900D920020C1F7E61BF70B27
:103D10003197CF0108951C9201900020E9F7F6CF6A
:103D20007AE0979F902D879F802D910D1124089503
:103D30008F929F92AF92BF92CF92DF92EF92FF92BB
:103D40000F931F93CF93DF935C017B016115710586
:103D500019F0DB018D939C9385010F5F1F4FF501D7
:103D6000D0818D2F90E00E94731E6C01892BB9F5D4
:103D7000DD32B9F50F5F1F4FD5011196DC91C1E01F
:103D80005801F1E0AF1AB10843E050E064E971E096
:103D9000C5010E94F91F892B69F5680182E0C80EF0
:103DA000D11C45E050E06FE871E0C6010E94F91FA8
:103DB000892B21F4680197E0C90ED11CE114F104AC
:103DC00019F0D701CD92DC9260E070E080E89FEFBF
:103DD000C111FFC060E070E080E89FE7FAC05801C1
:103DE000BBCFDB3229F485010E5F1F4FF501D18176
:103DF000C0E0C6CF43E050E06CE871E0C5010E942E
:103E0000F91F892BE9F0F80110E000E020E030E034
:103E1000A9015F01B0ED8B2E8D0E89E08815C8F1E8
:103E20009C2E689491F88C2F8870C2FF16C0811167
:103E300002C00F5F1F4F3196D501DC91C92DE9CF2C
:103E4000E114F10429F00E5F1F4FF7011183008385
:103E500060E070E080EC9FE7BCC0882311F0015067
:103E60001109A5E0B0E00E9486219B01AC01220F60
:103E7000331F441F551F280D311D411D511D283969
:103E800099E93907490799E15907A8F2C6609C2EBC
:103E9000D2CFAEEF8A1206C0C3FD3CC09C2E689400
:103EA00093F8C9CFDF7DD534A9F580818D3239F4FF
:103EB000C061DF011296818162E070E006C0DF011F
:103EC0008B32C1F3119661E070E080535D01A61A58
:103ED000B70A8A30F8F4E0E8CE16ECE0DE065CF4CF
:103EE000B601660F771F660F771FC60ED71ECC0C64
:103EF000DD1CC80ED11C5D01FFEFAF1ABF0A8C910B
:103F000080538A30A8F1C4FF03C0D194C194D10872
:103F10000C0D1D1DC1FF09C0E114F10431F081E059
:103F2000A81AB108D701AD92BC92CA01B9010E948A
:103F30001620C370C33009F490584B015C0120E097
:103F400030E0A9010E941120882309F440C0C3EC8D
:103F5000D1E017FF05C0119501951109CBEAD1E019
:103F60006E01B8E1CB1AD10880E2E82EF12C0FC027
:103F7000D501B1CFFE0125913591459154910E198E
:103F80001F09C501B4010E9477204B015C01D501D6
:103F9000C4010E151F0574F72497F594E794CC1609
:103FA000DD06A9F78A2F880F8B2F881F8F3F49F0D6
:103FB00020E030E0A901C501B4010E941120811167
:103FC00006C082E290E09093A9078093A807C501FC
:103FD000B401DF91CF911F910F91FF90EF90DF908F
:103FE000CF90BF90AF909F908F900895992788278A
:103FF0000895FB01DC014150504088F08D918134DF
:104000001CF08B350CF4805E659161341CF06B35CF
:104010000CF4605E861B611171F3990B0895881B87
:10402000FCCF0E94532008F481E00895E89409C071
:1040300097FB3EF490958095709561957F4F8F4FDB
:104040009F4F9923A9F0F92F96E9BB279395F695F1
:10405000879577956795B795F111F8CFFAF4BB0F6F
:1040600011F460FF1BC06F5F7F4F8F4F9F4F16C0D3
:10407000882311F096E911C0772321F09EE8872F5D
:10408000762F05C0662371F096E8862F70E060E019
:104090002AF09A95660F771F881FDAF7880F969592
:1040A000879597F90895990F0008550FAA0BE0E836
:1040B000FEEF16161706E807F907C0F012161306EA
:1040C000E407F50798F0621B730B840B950B39F42A
:1040D0000A2661F0232B242B252B21F408950A2690
:1040E00009F4A140A6958FEF811D811D08950E94BE
:1040F0008A200C94FB200E94ED2038F00E94F420CE
:1041000020F0952311F00C94E4200C94EA20112463
:104110000C942F210E940C2170F3959FC1F3950FF1
:1041200050E0551F629FF001729FBB27F00DB11D3B
:10413000639FAA27F00DB11DAA1F649F6627B00DCB
:10414000A11D661F829F2227B00DA11D621F739FB4
:10415000B00DA11D621F839FA00D611D221F749FC2
:104160003327A00D611D231F849F600D211D822F09
:10417000762F6A2F11249F5750409AF0F1F0882330
:104180004AF0EE0FFF1FBB1F661F771F881F91505D
:104190005040A9F79E3F510580F00C94E4200C9408
:1041A0002F215F3FE4F3983ED4F38695779567958A
:1041B000B795F795E7959F5FC1F7FE2B880F911D87
:1041C0009695879597F9089597F99F6780E870E02D
:1041D00060E008959FEF80EC089500240A9416167D
:1041E000170618060906089500240A9412161306E5
:1041F000140605060895092E0394000C11F4882373
:1042000052F0BB0F40F4BF2B11F460FF04C06F5F8E
:104210007F4F8F4F9F4F089557FD9058440F551F64
:1042200059F05F3F71F04795880F97FB991F61F038
:104230009F3F79F087950895121613061406551FAF
:10424000F2CF4695F1DF08C0161617061806991F1B
:10425000F1CF86957105610508940895E894BB2710
:1042600066277727CB0197F90895DB018F939F93FA
:104270000E948621BF91AF91A29F800D911DA39FA7
:10428000900DB29F900D11240895A1E21A2EAA1B41
:10429000BB1BFD010DC0AA1FBB1FEE1FFF1FA217F6
:1042A000B307E407F50720F0A21BB30BE40BF50BF3
:1042B000661F771F881F991F1A9469F7609570957C
:1042C000809590959B01AC01BD01CF010895052E0D
:1042D00097FB1EF400940E947E2157FD07D00E9498
:1042E000452107FC03D04EF40C947E215095409557
:1042F000309521953F4F4F4F5F4F08959095809592
:10430000709561957F4F8F4F9F4F08950E9499211F
:10431000A59F900DB49F900DA49F800D911D112419
:104320000895B7FF0C9486210E948621821B930B6F
:104330000895A29FB001B39FC001A39F700D811D7E
:104340001124911DB29F700D811D1124911D08959E
:1043500097FB072E16F4009407D077FD09D00E9432
:10436000CB2107FC05D03EF4909581959F4F089591
:10437000709561957F4F0895EE0FFF1F881F8BBFCB
:104380000790F691E02D19940E949921B7FF0895A6
:10439000821B930B0895AA1BBB1B51E107C0AA1FE8
:1043A000BB1FA617B70710F0A61BB70B881F991FD6
:1043B0005A95A9F780959095BC01CD010895505864
:1043C000BB27AA270E94F7210C94FB200E94ED2016
:1043D00038F00E94F42020F039F49F3F19F426F4BD
:1043E0000C94EA200EF4E095E7FB0C94E420E92F0E
:1043F0000E940C2158F3BA176207730784079507C8
:1044000020F079F4A6F50C942E210EF4E0950B2EF5
:10441000BA2FA02D0B01B90190010C01CA01A00116
:104420001124FF27591B99F0593F50F4503E68F171
:104430001A16F040A22F232F342F4427585FF3CFB2
:10444000469537952795A795F0405395C9F77EF483
:104450001F16BA0B620B730B840BBAF09150A1F0CC
:10446000FF0FBB1F661F771F881FC2F70EC0BA0F52
:10447000621F731F841F48F4879577956795B795DA
:10448000F7959E3F08F0B0CF9395880F08F09927D5
:10449000EE0F9795879508950E9460220C94FB205B
:1044A0000E94F42058F00E94ED2040F029F45F3F74
:1044B00029F00C94E42051110C942F210C94EA2043
:1044C0000E940C2168F39923B1F3552391F3951BB6
:1044D000550BBB27AA2762177307840738F09F5F25
:1044E0005F4F220F331F441FAA1FA9F335D00E2E92
:1044F0003AF0E0E832D091505040E695001CCAF7FF
:104500002BD0FE2F29D0660F771F881FBB1F2617C1
:1045100037074807AB07B0E809F0BB0B802DBF0198
:10452000FF2793585F4F3AF09E3F510578F00C9467
:10453000E4200C942F215F3FE4F3983ED4F386955A
:1045400077956795B795F7959F5FC9F7880F911D88
:104550009695879597F90895E1E0660F771F881F74
:10456000BB1F621773078407BA0720F0621B730B27
:10457000840BBA0BEE1F88F7E09508950E94142172
:1045800088F09F5798F0B92F9927B751B0F0E1F014
:10459000660F771F881F991F1AF0BA95C9F714C0C4
:1045A000B13091F00E942E21B1E008950C942E219B
:1045B000672F782F8827B85F39F0B93FCCF38695FD
:1045C00077956795B395D9F73EF49095809570955A
:1045D00061957F4F8F4F9F4F08950E94532008F49D
:1045E0008FEF08950E945320880B990B089581E066
:1045F00090E0F8940C94E825FB01DC018D9101908A
:1046000080190110D9F3990B08950F931F93CF933D
:10461000DF93CDB7DEB72E970FB6F894DEBF0FBE8F
:10462000CDBF0E891F89888D998D26E02C831A8332
:10463000098397FF02C080E090E801979E838D83F5
:10464000AE01445E5F4F6A8D7B8DCE0101960E9464
:1046500042234D815E8157FD0AC02F813885421764
:1046600053070CF49A01020F131FF80110822E96C3
:104670000FB6F894DEBF0FBECDBFDF91CF911F9173
:104680000F9108952F923F924F925F926F927F9277
:104690008F929F92AF92BF92CF92DF92EF92FF9252
:1046A0000F931F93CF93DF9300D000D000D01F92C1
:1046B0001F92CDB7DEB77C013B018A01FC01178256
:1046C0001682838181FFDDC1CE0101965C01F70175
:1046D0009381F30193FD859193FF81913F0188239D
:1046E00009F453C1853239F493FD859193FF81918B
:1046F0003F01853229F4B70190E00E945A25E7CFA7
:10470000912C212C312CFFE1F31538F08B3211F173
:1047100090F4803209F1833229F137FC3CC020ED5E
:10472000280F2A3050F536FE20C08AE0989E200DD2
:104730001124922E06C08D3291F0803371F7689467
:1047400030F8F30193FD859193FF81913F01811131
:10475000DACF21C0689431F8689432F8F2CF6894C7
:1047600033F8EFCF689434F8ECCFEAE02E9E200DBA
:104770001124222E689435F8E4CF8E3229F436FCC9
:1047800004C1689436F8DDCF8C3619F4689437F894
:10479000D8CF8836B1F2982F9F7D95549330E0F0B2
:1047A0008336A1F18337C1F1833509F063C0280155
:1047B000F2E04F0E511CF801C080D180692D70E0ED
:1047C00036FC02C06FEF7FEFC6010E9444254C010A
:1047D000689437F882010AC00C5F1F4FFFE3F9832A
:1047E00088248394912C6501E89437F833FE2DC01A
:1047F000522C8114910471F5552009F468CFB7014A
:1048000080E290E00E945A255A94F6CFF801808108
:1048100089830E5F1F4FE4CF2801F2E04F0E511C39
:10482000F801C080D180692D70E036FC02C06FEFC6
:104830007FEFC6010E944F254C018201D5CFB70101
:1048400080E290E00E945A252A942814190409F065
:10485000B0F7CECFF60137FC859137FE81916F011D
:10486000B70190E00E945A2551105A94F1E08F1A36
:104870009108BFCF843619F0893609F077C0F80166
:1048800037FE6BC060817181828193810C5F1F4F05
:10489000F32DFF763F2E97FF09C090958095709578
:1048A00061957F4F8F4F9F4F689437F82AE030E033
:1048B000A5010E948A25C82ECA188C2C432C36FECE
:1048C0000CC0E89440F8C91440F434FE05C032FC32
:1048D00003C0F32DFE7E4F2E892C44FEAAC0FE019C
:1048E000EC0DF11D8081803309F09CC0242D297EC0
:1048F000422E842D8870582E43FCAAC040FEA4C0CE
:104900009C2C821418F42C0C922C981844FEA6C0EF
:10491000B70180E390E00E945A2542FE09C088E773
:1049200090E041FE02C088E590E0B7010E945A2560
:10493000C91408F49FC0CA94D12C9FEFC91AD90A90
:10494000CA0CDB1CF60182916F01B70190E00E9456
:104950005A25AC14BD04B1F74FCF60817181072E89
:10496000000C880B990B0E5F1F4F92CFD32CE8944D
:10497000D4F82AE030E08537E1F1232D297FD22ECB
:104980008F36A9F1F0F4883551F1F70186819781CE
:104990002B960FB6F894DEBF0FBECDBFDF91CF913F
:1049A0001F910F91FF90EF90DF90CF90BF90AF904D
:1049B0009F908F907F906F905F904F903F902F903F
:1049C0000895803749F0883701F7D4FE02C0689413
:1049D000D2F820E130E00DC06894D4F8F6CF34FE70
:1049E00003C0822F8660D82E20E132E002C028E08A
:1049F00030E0F801D7FE0FC0608171818281938120
:104A00000C5F1F4FA5010E948A25C82ECA183D2C95
:104A1000E89437F852CF6081718190E080E00E5FBA
:104A20001F4FF0CF42FC02C0839463CF83948394E2
:104A300060CF842D867809F45CCFF6CFB70180E291
:104A400090E00E945A2583948214C0F3512C5ECFCB
:104A5000522C5818821408F459CFF8CF842D867838
:104A600009F466CF8BE241FE80E247FC8DE2B7019C
:104A700090E05CCFB70180E390E00E945A259A94C1
:104A800057CF8FEF9FEF84CFFC01059061507040AE
:104A90000110D8F7809590958E0F9F1F0895FC0107
:104AA0006150704001900110D8F7809590958E0F5D
:104AB0009F1F08950F931F93CF93DF93182F092FF4
:104AC000EB018B8181FD09C01FEF0FEF812F902F2C
:104AD000DF91CF911F910F91089582FF14C02E8115
:104AE0003F818C819D81281739073CF4E881F98149
:104AF000CF0101969983888310838E819F810196CF
:104B00009F838E83E3CFE885F985812F1995892BC3
:104B1000A1F3DACFFA01AA27283051F1203181F12F
:104B2000E8946F936E7F6E5F7F4F8F4F9F4FAF4FB5
:104B3000B1E03ED0B4E03CD0670F781F891F9A1FC8
:104B4000A11D680F791F8A1F911DA11D6A0F711D7C
:104B5000811D911DA11D20D009F468943F912AE088
:104B6000269F11243019305D3193DEF6CF01089570
:104B7000462F4770405D4193B3E00FD0C9F7F6CFA1
:104B8000462F4F70405D4A3318F0495D31FD405269
:104B9000419302D0A9F7EACFB4E0A69597958795FF
:104BA00077956795BA95C9F70097610571050895DE
:104BB0009B01AC010A2E069457954795379527958A
:104BC000BA95C9F7620F731F841F951FA01D089522
:044BD000F894FFCF87
:104BD400CEFAEDFE01000100DC050000FFFF01013B
:104BE400F40100000000003FCDCCCC3D14000000D7
:104BF400E8030000020003000100D122DB3D38F885
:104C0400C23D040000000100D0070000701700003E
:104C1400EC2C0000342100006400B40046000000C5
:104C2400EB0000000500000032000000320000002C
:104C340001000000000000002C0E2C0E2C0EB80CFD
:104C4400D80CDC0C00000000930A4F0A490AB80C87
:104C5400D80C0F04D80700000000A80412043F0475
:104C6400F50470044E0462040D0A00257509256CD0
:104C740075003C56415220257320256C7520256C07
:104C8400753E003C56415220257320256920256C31
:104C9400753E003C56415220257320006E616E0023
:104CA400696E66006F7666003C41726475696E6F6A
:104CB40020697320726561647920746F2072656362
:104CC4006569766520636F6D6D616E64733E007413
:104CD4006869735F696E74657276616C00636F7284
:104CE400726563745F7369646500696E5F636F7294
:104CF400725F6C6F6F70003C41726475696E6F20F7
:104D040072656365697665643A2025733E0047459C
:104D14005400746F6E655F64757200747269616CBF
:104D24005F656E7472795F62757A7A5F647572001A
:104D340062757A7A5F63656E7465725F66726571B7
:104D44000062757A7A5F667265715F736570006C74
:104D540065645F687376006C65645F627269676836
:104D6400746E657373004954495F6475725F6D694D
:104D74006E004954495F6475725F6D6178007469AF
:104D84006D656F75745F6475720063686F696365E0
:104D94005F647572006175746F64656C69766572C1
:104DA4005F72657761726473006C6566745F7368C3
:104DB4006F7274007265776172645F6D61676E69AA
:104DC400747564650076616C76655F756C5F6D7390
:104DD4005F6C6566740076616C76655F756C5F6D9B
:104DE400735F7269676874006C61746572616C5F8B
:104DF4006375657300636F7272656374696F6E5F68
:104E04006C6F6F707300636F72725F6C6F6F705F43
:104E1400656E74727900636F72725F6C6F6F705F2E
:104E2400657869740072656163685F626C6F636B57
:104E34005F647572006D696E5F67726173705F6441
:104E4400757200747269616C5F6175746F737461FB
:104E5400727400705F74696D696E675F7472696102
:104E64006C006269617300676170005345540043CC
:104E74004D440052554E003C41726475696E6F207A
:104E840069732072756E6E696E673E0048414C54BA
:104E9400003C41726475696E6F2069732068616CAF
:064EA4007465643E00008D
:00000001FF
