:100000000C94E3010C9414020C9414020C9414024A
:100010000C9414020C9414020C9414020C94140208
:100020000C9414020C9414020C9414020C941402F8
:100030000C9414020C9430050C9414020C941402C9
:100040000C9414020C9483050C9414020C94140266
:100050000C9414020C94E2050C9414020C94E60F18
:100060000C9414020C94D50D0C94AB0D0C9414024A
:100070000C9414020C9414020C9414020C941402A8
:100080000C9414020C9414020C9414020C94140298
:100090000C9414020C9414020C9414020C94140288
:1000A0000C9414020C9414020C9414020C94140278
:1000B0000C9414020C9414020C9414020C94140268
:1000C0000C9414020C9414020C9414020C94140258
:1000D0000C9414020C9414020C9414020C94140248
:1000E0000C941402260E290E180E1C0E220E600E01
:1000F0002D0E310E370E3B0E3F0E450E490E4D0EA6
:10010000600E530E570E5B0E0C94490E0C94260E87
:100110000C9427130C94290E0C949B0C0C942A021B
:100120000C94450E0C9416020C94600E0C946D0CFD
:100130000C94B60C0C94570E0C94310E0C943B0E90
:100140000C944D0E0C943F0E0C945B0E0C942D0EE3
:100150000C94220E0C9438020C941C0E0C94370E46
:100160000C94030D0C94180E0C94530E4E414E49F2
:100170004E495459494E46CDCCCC3D0AD7233C1765
:10018000B7D13877CC2B329595E6241FB14F0A00B2
:100190000020410000C84200401C4620BCBE4CCAA2
:1001A0001B0E5AAEC59D7400407A10F35A00A0721F
:1001B0004E18090010A5D4E80000E87648170000A2
:1001C000E40B54020000CA9A3B000000E1F5050070
:1001D0000080969800000040420F000000A08601B9
:1001E000000000102700000000E803000000006489
:1001F00000000000000A00000000000100000000F4
:10020000002C76D888DC674F0823DFC1DFAE59E1C8
:10021000B1B796E5E3E453C63AE651997696E8E637
:10022000C28426EB898C9B62ED407C6FFCEFBC9C0A
:100230009F40F2BAA56FA5F490055A2AF75C936B1C
:100240006CF9676DC11BFCE0E40D47FEF520E6B5D7
:1002500000D0ED902E0300943577050080841E08B1
:100260000000204E0A000000C80C333333330F98CF
:100270006E12831141EF8D2114893BE65516CFFE96
:10028000E6DB18D1844B381BF77C1D901DA4BBE422
:1002900024203284725E228100C9F124ECA1E53D64
:1002A0002702010000002100240027002A002D0061
:1002B0003000330001010000040107010A010000C1
:1002C0002200250028002B002E00310034000201FE
:1002D0000000050108010B0100002000230026009A
:1002E00029002C002F00320000010000030106014C
:1002F00009010505050507050808080802020202AC
:100300000A0A0808040404040101010101010101B1
:100310000303030303030303040707070C0C0C0C7C
:100320000C0C0C0C02020202060606060606060665
:100330000B0B0B0B0B0B0B0B0102102020080810F2
:100340002040102040800201020108040201010245
:10035000040810204080804020100804020180041E
:100360000201804020100804020108040201010279
:100370000408102040800102040810204080000082
:100380000A0B02090C0D0E0807030401000000000F
:10039000000000000000000000000000000000005D
:1003A000000000000000000000001211100000001A
:1003B000000000000000000000000000000000003D
:1003C00000000000271311241FBECFEFD1E2DEBFD3
:1003D000CDBF00E00CBF13E0A0E0B2E0E4EEFCE330
:1003E00000E00BBF02C007900D92A835B107D9F706
:1003F00024E0A8E5B3E001C01D92AC3FB207E1F7ED
:1004000011E0C3EED1E000E006C021970109802F82
:10041000FE010E94311BC23ED10780E00807A9F708
:100420000E9430100C94701E0C940000FC01918D01
:10043000828D981761F0828DDF01A80FB11D5D9646
:100440008C91928D9F5F9F73928F90E008958FEFB4
:100450009FEF0895FC01918D828D981731F0828D68
:10046000E80FF11D858D90E008958FEF9FEF0895BF
:10047000FC01918D228D892F90E0805C9F4F821B23
:1004800091098F739927089580E090E0892B21F0DE
:100490000E94AA0C811125C080E090E0892B41F0D8
:1004A00080E090E0892B21F00E94000081111CC0A7
:1004B00080E090E0892B41F080E090E0892B21F0F2
:1004C0000E940000811113C080E090E0892BA1F010
:1004D00080E090E0892B81F00E94000081110AC029
:1004E00008950E940000D8CF0E940000E1CF0E9432
:1004F0000000EACF0C9400000895FC01848DDF0118
:10050000A80FB11DA35ABF4F2C91848D90E0019686
:100510008F739927848FA689B7892C93A089B18975
:100520008C91837080648C93938D848D981306C016
:100530000288F389E02D80818F7D808308953F922A
:100540004F925F926F927F928F929F92AF92BF92E3
:10055000CF92DF92EF92FF920F931F93CF93DF938F
:1005600000D000D0CDB7DEB79E838D838B01298369
:100570003A834B835C83DC0111968C91119787FD44
:10058000CEC18C9190E0FC01E85CFC4F2491FC0111
:10059000EE50FD4F8491882399F090E0880F991FC9
:1005A000FC01EC55FD4FA591B491FC01E254FD4FC7
:1005B000859194918FB7F894EC91E22BEC938FBFD7
:1005C000ED81FE813180832D8D7F4801A12CB12CDE
:1005D00009F078C060E072E18AE790E0A50194013B
:1005E0000E94F01A29013A0169017A01F1E0CF1A5B
:1005F000D108E108F1082FEFC216D104E104F1049B
:1006000009F008F44DC060E472E48FE090E0A501C9
:1006100094010E94F01A69017A0181E0C81AD10898
:10062000E108F10892E0391221C0AFEFCA16D104F7
:10063000E104F10409F008F43BC160E970ED83E0E6
:1006400090E0A50194010E94F01A69017A01B1E0DD
:10065000CB1AD108E108F108EFEFCE16D104E1047E
:10066000F10411F008F0B4C083E025C0FFEFCF160D
:10067000D104E104F104B1F0A8F068E478EE81E07F
:1006800090E0A50194010E94F01A69017A0181E0CD
:10069000C81AD108E108F108332009F40DC1D7C008
:1006A00081E001C082E0311006C095B5987F892BAA
:1006B00085BD38C085E09091B100987F892B8093EB
:1006C000B10030C060E072E18AE790E0A5019401DA
:1006D0000E94F01A69017A01E1E0CE1AD108E1081E
:1006E000F108C114D104F1E0EF06F10488F068E4E8
:1006F00078EE81E090E0A50194010E94F01A690172
:100700007A0181E0C81AD108E108F10883E001C04C
:1007100081E091E0391206C090918100987F892B89
:100720008093810089819A81AB81BC81892B8A2B3E
:100730008B2B81F0D801AA0FBB1F29813A814B81F5
:100740005C810E940F1B28EE33E040E050E00E94E5
:10075000CE1A03C02FEF3FEFA901AD81BE811196E4
:100760008C91813099F0823019F18111D8C0C7BCC9
:1007700020936A0330936B0340936C0350936D0393
:1007800080916E00826080936E00C9C0D092890013
:10079000C0928800209366033093670340936803F8
:1007A0005093690380916F00826080936F00B7C09F
:1007B000C092B300209362033093630340936403B9
:1007C0005093650380917000826080937000A7C091
:1007D00068E478EE81E090E0A50194010E94F01AAF
:1007E00069017A01B1E0CB1AD108E108F108EFEF15
:1007F000CE16D104E104F10441F138F164E274EF62
:1008000080E090E0A50194010E94F01A69017A014C
:1008100091E0C91AD108E108F108AFEFCA16D10476
:10082000E104F10409F008F445CF62E17AE780E0E1
:1008300090E0A50194010E94F01A69017A01B1E0EB
:10084000CB1AD108E108F10818C084E034CFAFEF2B
:10085000CA16D104E104F10469F160F162E17AE7BA
:1008600080E090E0A50194010E94F01A69017A01EC
:1008700091E0C91AD108E108F1088FEFC816D10438
:10088000E104F10499F090F0D301C2012AE0B5959A
:10089000A795979587952A95D1F76C017D0121E061
:1008A000C21AD108E108F10887E005CF86E003CF3E
:1008B00082E001CF84E0F7CEFFEFCF16D104E10450
:1008C000F10459F150F162E17AE780E090E0A5018E
:1008D00094010E94F01A69017A01B1E0CB1AD108A3
:1008E000E108F108EFEFCE16D104E104F10499F02C
:1008F00090F0D301C2013AE0B595A79597958795F9
:100900003A95D1F76C017D01F1E0CF1AD108E108E9
:10091000F10885E0CACE84E0C8CE83E0C6CE269634
:100920000FB6F894DEBF0FBECDBFDF91CF911F9100
:100930000F91FF90EF90DF90CF90BF90AF909F907E
:100940008F907F906F905F904F903F900895DC0163
:1009500080916103833008F07FC06C93E82FF0E052
:10096000EF55FD4FE4911196EC9311978F5F8093B3
:100970006103E13029F120F0E23009F447C0089525
:1009800014BC15BC84B5826084BD85B5816085BD0D
:100990008C9190E0FC01EE50FD4FE491F0E0EE0F01
:1009A000FF1FE254FD4F2591349130936003209353
:1009B0005F03FC01E85CFC4FE491E0935E03089563
:1009C0001092800010928100809181008860809355
:1009D0008100809181008160809381008C9190E002
:1009E000FC01EE50FD4FE491F0E0EE0FFF1FE254EA
:1009F000FD4F2591349130935D0320935C03FC01FE
:100A0000E85CFC4FE491E0935B0308951092B00022
:100A10001092B1008091B00082608093B00080910C
:100A2000B10081608093B1008C9190E0FC01EE50A8
:100A3000FD4FE491F0E0EE0FFF1FE254FD4F2591D2
:100A4000349130935A0320935903FC01E85CFC4F26
:100A5000E491E093580308958FEF11968C930895D5
:100A60001F920F920FB60F9211240BB60F922F9375
:100A70003F938F939F93AF93BF93EF93FF93809197
:100A8000620390916303A0916403B09165030097A2
:100A9000A105B10591F030915803E0915903F0910F
:100AA0005A03208123272083181619061A061B06CD
:100AB0009CF40197A109B1090FC0209170002D7F0E
:100AC0002093700020915803E0915903F0915A034C
:100AD00030812095232320838093620390936303C6
:100AE000A0936403B0936503FF91EF91BF91AF9121
:100AF0009F918F913F912F910F900BBE0F900FBE42
:100B00000F901F9018951F920F920FB60F921124FD
:100B10000BB60F928F939F93AF93BF93EF93FF9377
:100B20008091660390916703A0916803B091690377
:100B3000892B8A2B8B2B51F190915B03E0915C0305
:100B4000F0915D0380818927808380916603909175
:100B50006703A0916803B0916903181619061A0675
:100B60001B061CF58091660390916703A0916803B2
:100B7000B09169030197A109B1098093660390932D
:100B80006703A0936803B09369030FC080916F005F
:100B90008D7F80936F0080915B03E0915C03F09107
:100BA0005D039081809589238083FF91EF91BF91B0
:100BB000AF919F918F910F900BBE0F900FBE0F9032
:100BC0001F9018951F920F920FB60F9211240BB61B
:100BD0000F928F939F93AF93BF93EF93FF93809167
:100BE0006A0390916B03A0916C03B0916D03892B04
:100BF0008A2B8B2B51F190915E03E0915F03F09172
:100C0000600380818927808380916A0390916B03C0
:100C1000A0916C03B0916D03181619061A061B06F5
:100C20001CF580916A0390916B03A0916C03B091C5
:100C30006D030197A109B10980936A0390936B0337
:100C4000A0936C03B0936D030FC080916E008D7FF5
:100C500080936E0080915E03E0915F03F0916003EA
:100C60009081809589238083FF91EF91BF91AF910F
:100C70009F918F910F900BBE0F900FBE0F901F9002
:100C800018952F923F924F925F926F927F928F9220
:100C90009F92AF92BF92CF92DF92EF92FF920F930B
:100CA0001F93CF93DF93CDB7DEB7A8970FB6F89415
:100CB000DEBF0FBECDBF2DB63EB68BE392E00E94E5
:100CC000610E81E793E00E94610E89E293E00E9449
:100CD000730EE1E7F3E000E010E08191882339F042
:100CE0000F5F1F4F083C1105C1F700E010E044E022
:100CF00050E061E773E0CE0185960E9461156FE4D4
:100D000072E0CE0185960E94601E892B09F0D9C33E
:100D1000CDB6DEB6A801435051098DB79EB7841BEE
:100D2000950B0FB6F8949EBF0FBE8DBF01967C0148
:100D300065E773E00E94611563E572E0C7010E94F8
:100D4000601E892B09F056C069E273E0CE0101965E
:100D50000E94960D6091160270911702CE010796BF
:100D60000E94810E64E672E0CE010D960E94960DFF
:100D7000B701CE0143960E94960D66E672E0CE0161
:100D80004F960E94960DBE01615E7F4FCE0149963F
:100D90000E94AD0EBE016D5E7F4FCE0149960E944E
:100DA000C70EBE01635F7F4F0E94C70EBE01695F21
:100DB0007F4F0E94C70EBE016F5F7F4F0E94C70E1C
:100DC0000E94FA0ECE0149960E940F0FCE014F9657
:100DD0000E940F0FCE0143960E940F0FCE010D9679
:100DE0000E940F0FCE0107960E940F0FCE010196B1
:100DF0000E940F0F68E672E0C7010E94601E892BF7
:100E000009F056C069E273E0CE0101960E94960D8A
:100E10006091040270910502CE0107960E94810E36
:100E200064E672E0CE010D960E94960DB701CE01E8
:100E300043960E94960D66E672E0CE014F960E94A0
:100E4000960DBE01615E7F4FCE0149960E94AD0EA8
:100E5000BE016D5E7F4FCE0149960E94C70EBE0156
:100E6000635F7F4F0E94C70EBE01695F7F4F0E9484
:100E7000C70EBE016F5F7F4F0E94C70E0E94FA0E21
:100E8000CE0149960E940F0FCE014F960E940F0F80
:100E9000CE0143960E940F0FCE010D960E940F0FB8
:100EA000CE0107960E940F0FCE0101960E940F0FF0
:100EB00068E772E0C7010E94601E892B09F056C0E6
:100EC00069E273E0CE0101960E94960D60910602E0
:100ED00070910702CE0107960E94810E64E672E0CF
:100EE000CE010D960E94960DB701CE0143960E9449
:100EF000960D66E672E0CE014F960E94960DBE01F9
:100F0000615E7F4FCE0149960E94AD0EBE016D5EBF
:100F10007F4FCE0149960E94C70EBE01635F7F4F8F
:100F20000E94C70EBE01695F7F4F0E94C70EBE01BF
:100F30006F5F7F4F0E94C70E0E94FA0ECE01499646
:100F40000E940F0FCE014F960E940F0FCE014396C5
:100F50000E940F0FCE010D960E940F0FCE01079633
:100F60000E940F0FCE0101960E940F0F6DE872E0F4
:100F7000C7010E94601E892B09F056C069E273E028
:100F8000CE0101960E94960D6091190270911A028D
:100F9000CE0107960E94810E64E672E0CE010D96A6
:100FA0000E94960DB701CE0143960E94960D66E60B
:100FB00072E0CE014F960E94960DBE01615E7F4F9A
:100FC000CE0149960E94AD0EBE016D5E7F4FCE01EF
:100FD00049960E94C70EBE01635F7F4F0E94C70EF5
:100FE000BE01695F7F4F0E94C70EBE016F5F7F4FDA
:100FF0000E94C70E0E94FA0ECE0149960E940F0F62
:10100000CE014F960E940F0FCE0143960E940F0F04
:10101000CE010D960E940F0FCE0107960E940F0F72
:10102000CE0101960E940F0F6DE972E0C7010E9488
:10103000601E892B09F05AC069E273E0CE01019667
:101040000E94960D40911B0250911C0260911D025E
:1010500070911E02CE0107960E94140F64E672E0A2
:10106000CE010D960E94960DB701CE0143960E94C7
:10107000960D66E672E0CE014F960E94960DBE0177
:10108000615E7F4FCE0149960E94AD0EBE016D5E3E
:101090007F4FCE0149960E94C70EBE01635F7F4F0E
:1010A0000E94C70EBE01695F7F4F0E94C70EBE013E
:1010B0006F5F7F4F0E94C70E0E94FA0ECE014996C5
:1010C0000E940F0FCE014F960E940F0FCE01439644
:1010D0000E940F0FCE010D960E940F0FCE010796B2
:1010E0000E940F0FCE0101960E940F0F65EA72E079
:1010F000C7010E94601E892B09F05AC069E273E0A3
:10110000CE0101960E94960D409112025091130259
:101110006091140270911502CE0107960E94140F7F
:1011200064E672E0CE010D960E94960DB701CE01E5
:1011300043960E94960D66E672E0CE014F960E949D
:10114000960DBE01615E7F4FCE0149960E94AD0EA5
:10115000BE016D5E7F4FCE0149960E94C70EBE0153
:10116000635F7F4F0E94C70EBE01695F7F4F0E9481
:10117000C70EBE016F5F7F4F0E94C70E0E94FA0E1E
:10118000CE0149960E940F0FCE014F960E940F0F7D
:10119000CE0143960E940F0FCE010D960E940F0FB5
:1011A000CE0107960E940F0FCE0101960E940F0FED
:1011B00066EB72E0C7010E94601E892B09F05AC0DD
:1011C00069E273E0CE0101960E94960D40910E02F5
:1011D00050910F026091100270911102CE0107969A
:1011E0000E94410F64E672E0CE010D960E94960DBA
:1011F000B701CE0143960E94960D66E672E0CE01DD
:101200004F960E94960DBE01615E7F4FCE014996BA
:101210000E94AD0EBE016D5E7F4FCE0149960E94C9
:10122000C70EBE01635F7F4F0E94C70EBE01695F9C
:101230007F4F0E94C70EBE016F5F7F4F0E94C70E97
:101240000E94FA0ECE0149960E940F0FCE014F96D2
:101250000E940F0FCE0143960E940F0FCE010D96F4
:101260000E940F0FCE0107960E940F0FCE0101962C
:101270000E940F0F62EC72E0C7010E94601E892B72
:1012800009F05AC069E273E0CE0101960E94960D02
:10129000409100025091010260910202709103029C
:1012A000CE0107960E94140F64E672E0CE010D96FF
:1012B0000E94960DB701CE0143960E94960D66E6F8
:1012C00072E0CE014F960E94960DBE01615E7F4F87
:1012D000CE0149960E94AD0EBE016D5E7F4FCE01DC
:1012E00049960E94C70EBE01635F7F4F0E94C70EE2
:1012F000BE01695F7F4F0E94C70EBE016F5F7F4FC7
:101300000E94C70E0E94FA0ECE0149960E940F0F4E
:10131000CE014F960E940F0FCE0143960E940F0FF1
:10132000CE010D960E940F0FCE0107960E940F0F5F
:10133000CE0101960E940F0F67ED72E0C7010E9477
:10134000601E892B09F05AC069E273E0CE01019654
:101350000E94960D409108025091090260910A0284
:1013600070910B02CE0107960E94410F64E672E075
:10137000CE010D960E94960DB701CE0143960E94B4
:10138000960D66E672E0CE014F960E94960DBE0164
:10139000615E7F4FCE0149960E94AD0EBE016D5E2B
:1013A0007F4FCE0149960E94C70EBE01635F7F4FFB
:1013B0000E94C70EBE01695F7F4F0E94C70EBE012B
:1013C0006F5F7F4F0E94C70E0E94FA0ECE014996B2
:1013D0000E940F0FCE014F960E940F0FCE01439631
:1013E0000E940F0FCE010D960E940F0FCE0107969F
:1013F0000E940F0FCE0101960E940F0F63EE72E064
:10140000C7010E94601E892B09F056C069E273E093
:10141000CE0101960E94960D60916E0370916F034C
:10142000CE0107960E94810E64E672E0CE010D9611
:101430000E94960DB701CE0143960E94960D66E676
:1014400072E0CE014F960E94960DBE01615E7F4F05
:10145000CE0149960E94AD0EBE016D5E7F4FCE015A
:1014600049960E94C70EBE01635F7F4F0E94C70E60
:10147000BE01695F7F4F0E94C70EBE016F5F7F4F45
:101480000E94C70E0E94FA0ECE0149960E940F0FCD
:10149000CE014F960E940F0FCE0143960E940F0F70
:1014A000CE010D960E940F0FCE0107960E940F0FDE
:1014B000CE0101960E940F0F0FB6F894DEBE0FBE4C
:1014C000CDBE61EF72E0CE0185960E94601E892B31
:1014D00009F0FFC04DB65EB6380193E0691A710895
:1014E0008DB79EB7861997090FB6F8949EBF0FBEA9
:1014F0008DBF01964C01A30165E773E00E94611561
:10150000F401C12CD12C8191803249F09FEFC91A8E
:10151000D90A88ECC816D104B1F7C12CD12C5601D8
:101520009FEFA91AB90A8DB79EB78A199B090FB602
:10153000F8949EBF0FBE8DBF01967C01A501B4013A
:101540000E946115A801425051094C195D098DB7DF
:101550009EB7841B950B0FB6F8949EBF0FBE8DBF30
:1015600001966C01B4016A0D7B1D0E94611563EE4A
:1015700072E0C7010E94601E892B39F4C6010E94E7
:101580003A1590936F0380936E0363E572E0C70191
:101590000E94601E892B39F4C6010E943A1590936F
:1015A00017028093160268E672E0C7010E94601E6F
:1015B000892B39F4C6010E943A1590930502809355
:1015C000040268E772E0C7010E94601E892B39F4AB
:1015D000C6010E943A1590930702809306026DE8B7
:1015E00072E0C7010E94601E892B39F4C6010E9477
:1015F0003A1590931A02809319026DE972E0C701BF
:101600000E94601E892B79F44AE050E060E070E0AF
:10161000C6010E94291460931B0270931C028093E0
:101620001D0290931E0265EA72E0C7010E94601ECF
:10163000892B79F44AE050E060E070E0C6010E9436
:1016400029146093120270931302809314029093F2
:10165000150262EC72E0C7010E94601E892B79F4CA
:101660004AE050E060E070E0C6010E9429146093F7
:10167000000270930102809302029093030266EBD2
:1016800072E0C7010E94601E892B59F4C6010E94B6
:10169000361560930E0270930F02809310029093A0
:1016A000110267ED72E0C7010E94601E892B59F498
:1016B000C6010E9436156093080270930902809358
:1016C0000A0290930B020FB6F8945EBE0FBE4DBE99
:1016D000830165EF72E0CE0185960E94601E892B22
:1016E00009F04BC0EDB6FEB6A801435051098DB7C5
:1016F0009EB7841B950B0FB6F8949EBF0FBE8DBF8F
:101700000DB71EB70F5F1F4F65E773E0C8010E945A
:10171000611569EF72E0C8010E94601E892B39F4DF
:1017200081E080933B048DEF92E00E94730E62E1B2
:1017300073E0C8010E94601E892B31F410923B04B3
:1017400087E193E00E94730E63EA72E0C8010E9491
:10175000601E892B19F481E0809370036BE273E0C3
:10176000C8010E94601E892B19F481E080933A041D
:101770000FB6F894FEBE0FBEEDBE109239040FB640
:10178000F8943EBE0FBE2DBEA8960FB6F894DEBFED
:101790000FBECDBFDF91CF911F910F91FF90EF90C2
:1017A000DF90CF90BF90AF909F908F907F906F9081
:1017B0005F904F903F902F9008950F931F93CF937A
:1017C000DF93CDB7DEB764970FB6F894DEBF0FBED8
:1017D000CDBF8C010E94C10F0E949F1920E030E014
:1017E0004AE754E40E94A61BAB01BC01CE010D9652
:1017F0000E94410FB801CE0101960E94810EBE01E8
:101800006F5F7F4FCE0107960E94AD0E89E08B8BF4
:101810001C8A0B851C850F5F1F4FB801CE010796F0
:101820000E94250D882371F02F8138858B859C853A
:10183000BE016D5E7F4F820F931F0E94691E1C8741
:101840000B8704C0CE0107960E944C0DBE01635F5A
:101850007F4FCE0107960E94C70E0E94FA0ECE015E
:1018600007960E940F0FCE0101960E940F0FCE0126
:101870000D960E940F0F64960FB6F894DEBF0FBE50
:10188000CDBFDF91CF911F910F9108950E94C10F9D
:1018900028EE33E040E050E00E94CE1ACA01B901C0
:1018A0000E949F19089580916E0390916F03909309
:1018B0000D0280930C020E94460C0E94181C60933B
:1018C000E9047093EA048093EB049093EC04809114
:1018D0006E0390916F030C94DD0BCF92DF92EF9229
:1018E000FF920F931F93CF93DF936C017A018B01CB
:1018F000C0E0D0E0CE15DF0581F0D8016D918D01FB
:10190000D601ED91FC910190F081E02DC601199571
:10191000892B11F02196EECF7E01C701DF91CF9187
:101920001F910F91FF90EF90DF90CF900895089551
:1019300080E090E00895FC01538D448D252F30E028
:10194000842F90E0821B930B541710F0CF960895CC
:101950000197089588E494E00E94380221E0892BE1
:1019600009F420E0822F08950E94521EEF92FF9208
:101970000F931F93CF93DF93EC0181E0888F9B8DB2
:101980008C8D981305C0E889F989808185FD26C072
:10199000F62E0B8D10E00F5F1F4F0F731127E02EF7
:1019A0008C8DE8120CC00FB607FCFACFE889F989D4
:1019B000808185FFF5CFCE010E947D02F1CF8B8D16
:1019C000FE01E80FF11DE35AFF4FF0829FB7F89434
:1019D0000B8FEA89FB89808180620AC09FB7F894E7
:1019E000EE89FF896083E889F9898081837080644A
:1019F00080839FBF81E090E0DF91CF911F910F9195
:101A0000FF90EF900895CF93DF93EC01888D8823AA
:101A1000C9F0EA89FB89808185FD05C0A889B9895B
:101A20008C9186FD0FC00FB607FCF5CF808185FF36
:101A3000F2CFA889B9898C9185FFEDCFCE010E94A4
:101A40007D02E7CFDF91CF9108950F931F93CF933E
:101A5000DF93EC0188819981009729F02A813B81ED
:101A60002617370788F48B016F5F7F4F0E946D1D2B
:101A7000009761F0998388831B830A832C813D81C1
:101A8000232B11F4FC01108281E001C080E0DF9182
:101A9000CF911F910F910895CF93DF93EC0188812F
:101AA0009981009711F00E94E41C198218821D820E
:101AB0001C821B821A82DF91CF910895EF92FF92D0
:101AC0000F931F93CF93DF93EC017B018A01BA013F
:101AD0000E94250D811104C0CE010E944C0D07C04B
:101AE0001D830C83B701888199810E94691ECE01F4
:101AF000DF91CF911F910F91FF90EF900895CF93B9
:101B0000DF93EC016115710559F0FB010190002094
:101B1000E9F73197AF01461B570B0E945E0D02C0DB
:101B20000E944C0DCE01DF91CF910895FC011182EE
:101B3000108213821282158214826115710551F090
:101B4000FB0101900020E9F73197AF01461B570BCD
:101B50000C945E0D08951F920F920FB60F921124F0
:101B60000BB60F922F933F934F935F936F937F9397
:101B70008F939F93AF93BF93EF93FF9388E494E089
:101B80000E947D02FF91EF91BF91AF919F918F9144
:101B90007F916F915F914F913F912F910F900BBE6D
:101BA0000F900FBE0F901F9018951F920F920FB6B7
:101BB0000F9211240BB60F922F938F939F93EF9355
:101BC000FF93E0915804F09159048081E0915E0404
:101BD000F0915F0482FD12C09081809161048F5F5B
:101BE0008F7320916204821751F0E0916104F0E05C
:101BF000E85BFB4F958F8093610401C08081FF916A
:101C0000EF919F918F912F910F900BBE0F900FBE70
:101C10000F901F90189590E0FC013197E231F1058B
:101C200008F04EC08827EE58FF4F8F4F0C94311BA1
:101C3000809180008F7703C0809180008F7D80939A
:101C40008000089580918000877FF9CF84B58F77D9
:101C500002C084B58F7D84BD08958091B0008F77D8
:101C600003C08091B0008F7D8093B0000895809173
:101C700090008F7707C0809190008F7D03C0809186
:101C80009000877F8093900008958091A0008F77C7
:101C900007C08091A0008F7D03C08091A000877F46
:101CA0008093A0000895809120018F7707C08091D4
:101CB00020018F7D03C080912001877F80932001C8
:101CC0000895009769F0FC0101900020E9F7319731
:101CD000AF01481B590BBC0188E494E00C946D0CD7
:101CE00080E090E00895CF93DF930E94610EEC01B5
:101CF00084E593E00E94610E8C0F9D1FDF91CF91D0
:101D000008950F931F93CF93DF93CDB7DEB76297FC
:101D10000FB6F894DEBF0FBECDBF8C01CB01F8012A
:101D20001182108213821282158214824AE0BE014F
:101D30006F5F7F4F0E947515BE016F5F7F4FC801B7
:101D40000E947F0D62960FB6F894DEBF0FBECDBF26
:101D5000DF91CF911F910F910895FB01DC01119646
:101D60001C921E9213961C921E92129715961C920C
:101D70001E9214978617970749F06081718161154B
:101D8000710521F0448155810C945E0D0895EF9208
:101D9000FF920F931F93CF93DF93EC01FB0104811C
:101DA0001581E080F180E114F104C9F001151105FD
:101DB000C9F08C819D81080F191FB801CE010E94C6
:101DC000250D882361F0288139818C819D81B7019F
:101DD000820F931F0E94691E1D830C8303C0CE01D6
:101DE0000E944C0DCE01DF91CF911F910F91FF907A
:101DF000EF900895CF93DF93FC014481558160817A
:101E0000718188E494E00E946D0CEC0184E593E01C
:101E10000E94610E8C0F9D1FDF91CF910895FC01F0
:101E2000808191810C94E41C0F931F93CF93DF93D7
:101E3000CDB7DEB7A1970FB6F894DEBF0FBECDBF0A
:101E40008C01CB01BA01F801118210821382128237
:101E5000158214822AE0AE014F5F5F4F0E94881501
:101E6000BE016F5F7F4FC8010E947F0DA1960FB624
:101E7000F894DEBF0FBECDBFDF91CF911F910F91C0
:101E80000895EF92FF920F931F93CF93DF93CDB7F7
:101E9000DEB7A1970FB6F894DEBF0FBECDBF7C01B1
:101EA000CB01BA01F70111821082138212821582CE
:101EB00014828E010F5F1F4F22E044E00E946713DF
:101EC000BC01C7010E947F0DA1960FB6F894DEBF3A
:101ED0000FBECDBFDF91CF911F910F91FF90EF907B
:101EE0000895CF93DF93E9EAF3E08491E3E6F3E02A
:101EF000D491EDE1F3E0C491CC2391F081110E94E3
:101F00000B0EEC2FF0E0EE0FFF1FE852FD4FA591F6
:101F1000B491EC91ED2381E090E021F480E002C0E7
:101F200080E090E0DF91CF9108951F93CF93DF93EE
:101F3000EBEAF3E09491E5E6F3E0D491EFE1F3E02E
:101F4000C491CC23D1F0182F992319F0892F0E9426
:101F50000B0EEC2FF0E0EE0FFF1FE254FD4FA591AA
:101F6000B4919FB7F894111104C08C91D095D823E7
:101F700002C0EC91DE2BDC939FBFDF91CF911F91CC
:101F800008953FB7F8948091F2049091F304A091E2
:101F9000F404B091F50426B5A89B05C02F3F19F0B5
:101FA0000196A11DB11D3FBFBA2FA92F982F8827D9
:101FB000820F911DA11DB11DBC01CD0142E0660F34
:101FC000771F881F991F4A95D1F708951F920F9286
:101FD0000FB60F9211242F933F938F939F93AF933C
:101FE000BF938091EE049091EF04A091F004B09122
:101FF000F1043091ED0423E0230F2D3720F40196F6
:10200000A11DB11D05C026E8230F0296A11DB11D1B
:102010002093ED048093EE049093EF04A093F004DA
:10202000B093F1048091F2049091F304A091F40430
:10203000B091F5040196A11DB11D8093F204909317
:10204000F304A093F404B093F504BF91AF919F9172
:102050008F913F912F910F900FBE0F901F90189569
:10206000789484B5826084BD84B5816084BD85B573
:10207000826085BD85B5816085BD80916E0081607F
:1020800080936E0010928100809181008260809325
:102090008100809181008160809381008091800027
:1020A0008160809380008091B10084608093B10052
:1020B0008091B00081608093B00080919100826037
:1020C0008093910080919100816080939100809134
:1020D00090008160809390008091A1008260809345
:1020E000A1008091A10081608093A1008091A00057
:1020F00081608093A0008091210182608093210102
:102100008091210181608093210180912001816073
:102110008093200180917A00846080937A0080917E
:102120007A00826080937A0080917A008160809347
:102130007A0080917A00806880937A001092C100C2
:10214000E0915804F091590482E08083E0915404B6
:10215000F09155041082E0915604F091570480E10B
:10216000808310926004E0915C04F0915D0486E04D
:102170008083E0915A04F0915B04808180618083C8
:10218000E0915A04F0915B04808188608083E09143
:102190005A04F0915B04808180688083E0915A0446
:1021A000F0915B0480818F7D808363E082E494E022
:1021B0000E94A70461E386E494E00E94A7048DE2F4
:1021C00093E00E94730E0E94C10F4B015C0148E82E
:1021D000C42E43E1D42EE12CF12C0E94C10FDC016E
:1021E000CB0188199909AA09BB09883E9340A1052A
:1021F000B10598F321E0C21AD108E108F10888EE90
:10220000880E83E0981EA11CB11CC114D104E10406
:10221000F10419F704E010E0C1E022242394312CEA
:1022200098EEC92E93E0D92EE12CF12C22E0A22EBB
:10223000B12C33E0832E912CD7EC80913B04882382
:1022400009F421C180916E0390916F038230910552
:1022500009F445C034F4009709F479C0019749F0B6
:1022600012C18330910509F477C0049709F4D7C0EF
:102270000AC180910C0290910D02019711F00E9409
:10228000530C84E190E00E94DD0B0E94D213A70161
:1022900096010E94F01A0E94A1192B013C0120E036
:1022A00030E04AE754E4609108027091090280919D
:1022B0000A0290910B020E94001A9B01AC01C3011B
:1022C000B2010E949A1987FF05C090926F03809215
:1022D0006E03D9C0B0926F03A0926E03D4C08091F8
:1022E0000C0290910D02029791F10E94530C81E231
:1022F00090E00E94DD0B0E94D2139B01AC01A4E68A
:10230000B0E00E940F1B63337105810591057CF0DD
:102310006091190270911A0228EC30E040E050E020
:1023200086E494E00E949F0288E290E00EC06091F3
:1023300006027091070228EC30E040E050E082E4B1
:1023400094E00E949F0289E290E00E94DD0B1093CE
:102350006F0300936E0397C080910C0290910D0261
:102360000397A1F00E94530C10923C048EE190E080
:102370000E94DD0B609104027091050228EC30E0B0
:1023800040E050E082E494E00E949F0220910C0221
:1023900030910D0280916E0390916F0328173907D9
:1023A00081F480913D04882361F080913C04811187
:1023B00008C08FE190E00E94DD0BC0937003C093D2
:1023C0003C040E94460C2B013C016091E904709191
:1023D000EA048091EB049091EC040E949F199B0108
:1023E000AC01C301B2010E94391B2B013C01609179
:1023F00000027091010280910202909103020E94FA
:102400009F199B01AC01C301B2010E94471C90912E
:102410003C0418160CF4DAC09111D8C034C0809175
:102420000C0290910D02049711F00E94530C0E942F
:10243000460C2B013C016091E9047091EA04809103
:10244000EB049091EC040E949F199B01AC01C30125
:10245000B2010E94391B2B013C0160911B0270915B
:102460001C0280911D0290911E020E949F199B01E7
:10247000AC01C301B2010E94471C181624F430922B
:102480006F0320926E0380913D0481110AC00E9467
:10249000710F019759F48AE090E00E94DD0BC09320
:1024A0003D040E94710F892B09F495C08091180298
:1024B000882309F444C080917003882309F43FC045
:1024C000609116027091170228EC30E040E050E075
:1024D00082E494E00E949F0281E00E94950F8CE0CC
:1024E00090E00E94DD0B1092180260911202709130
:1024F000130280911402909115020E949F1920915D
:102500000E0230910F0240911002509111020E9470
:10251000A61B60933E0470933F0480934004909305
:1025200041040E94460C0E94181C6093E5047093BD
:10253000E6048093E7049093E8041092700380917E
:102540001802811139C00E94460C2B013C01609198
:10255000E5047091E6048091E7049091E8040E94FC
:102560009F199B01AC01C301B2010E94391B20914C
:102570003E0430913F0440914004509141040E9438
:10258000471C18167CF118C0211149C088E494E05A
:102590000E941602909145049923E1F1E0914404D0
:1025A0008E3369F1AE2FB0E0AF58BC4F8C93EF5F24
:1025B000E83C10F5E093440488E494E00E9438027B
:1025C0002091390418161906FCF229C09111BFCECA
:1025D00080E290E0BACE8BE090E00E94DD0B10929A
:1025E0003D0464CF80E00E94950F8DE090E00E9452
:1025F000DD0BC0931802E0CFD0934404DDCFF0E0B0
:10260000EF58FC4F10821092450410924404C0937E
:102610003904D2CF8C3381F6C0934504CDCF21113C
:102620000E94410680913A04882371F0609119025A
:1026300070911A0228EC30E040E050E086E494E02B
:102640000E949F0210923A040E944402F6CDE8E4F0
:10265000F4E01382128288EE93E0A0E0B0E084837D
:102660009583A683B7838DE292E09183808385EC86
:1026700090E09587848784EC90E09787868780EC4C
:1026800090E0918B808B81EC90E0938B828B82EC3D
:1026900090E0958B848B86EC90E0978B868B118EE7
:1026A000128E138E148E8FEF9FEFDC018093E9045E
:1026B0009093EA04A093EB04B093EC048093E504B8
:1026C0009093E604A093E704B093E8040895EF9292
:1026D0000F931F93CF93DF93E80147FD02C034E0CF
:1026E00001C034E1042E000C550B57FF03C0519577
:1026F00041955109E32E022F242FAE010E94C415EB
:10270000CE01DF91CF911F910F91EF9008958F929D
:102710009F92AF92BF92CF92DF92EF92FF92CF93B0
:10272000DF93EC01688179818A819B816115710554
:102730008105910521F464E279ED8BE597E02DE1C7
:1027400033EF41E050E00E94F01A49015A019B0129
:10275000AC01A7EAB1E40E940F1B6B017C01ACEE57
:10276000B4EFA50194010E941D1BDC01CB018C0D6F
:102770009D1DAE1DBF1DB7FF03C00197A109B04845
:1027800088839983AA83BB83BC01CD019F77DF91A6
:10279000CF91FF90EF90DF90CF90BF90AF909F9040
:1027A0008F9008958F929F92AF92BF92CF92DF92B7
:1027B000EF92FF9260911F0270912002809121029E
:1027C00090912202611571058105910521F464E261
:1027D00079ED8BE597E02DE133EF41E050E00E9489
:1027E000F01A49015A019B01AC01A7EAB1E40E9429
:1027F0000F1B6B017C01ACEEB4EFA50194010E94AC
:102800001D1BDC01CB018C0D9D1DAE1DBF1DB7FF37
:1028100003C00197A109B04880931F029093200242
:10282000A0932102B0932202BC01CD019F77FF90BB
:10283000EF90DF90CF90BF90AF909F908F900895D2
:1028400060931F02709320028093210290932202D2
:1028500008953F924F925F926F927F928F929F92D4
:10286000AF92BF92CF92DF92EF92FF920F931F939E
:10287000CF93DF935C016B017A016115710519F04B
:10288000FB0191838083E114F10429F0C7010297D1
:10289000839708F0C9C0E5012196F5011081812FC9
:1028A00090E00E945815892B11F05E01F4CF1D3283
:1028B00029F42196F501118101E007C01B3221F4B2
:1028C000E5012296F501118100E0E114F104B1F077
:1028D000F0E1EF16F10429F4B0C010E3E114F104C3
:1028E00001F12AE0E216F104B1F180E1E816F10409
:1028F00071F0E8E0EE16F104F1F413C0103341F585
:1029000088818F7D883549F7198122960260F0E130
:10291000EF2EF12C88248A94982CA82CAFE0BA2EA4
:1029200020C078E0E72EF12C88248A94982CA82CDB
:10293000EFE1BE2E16C06FEF7FEFCB0197010F2C9A
:10294000000C440B550B0E94CE1A49015A0109C0D4
:102950008AE0E82EF12C69E9862E982CA82C69E1F2
:10296000B62E40E060E070E0CB0127010F2C000C98
:1029700066087708FE0150ED352E310E29E023154B
:1029800070F42FEB210F2A3118F439EC332E06C0E6
:102990002FE9210F2A3130F529EA322E310E232D6D
:1029A00030E02E153F05F4F44F3FC9F08616970628
:1029B000A806B90688F0A30192010E94BE1A232D31
:1029C00030E040E050E0620F731F841F951F6217D4
:1029D00073078407950710F44FEF01C041E021967B
:1029E0001081C8CFC114D10451F0442311F02197B4
:1029F00003C001FF04C02297F601D183C08300FF0A
:102A000007C090958095709561957F4F8F4F9F4F30
:102A10004F3F79F482E290E09093F7048093F604BC
:102A20003FEF2FEF9FEF0DC040E030E020E090E05F
:102A300008C0462F372F282F04C0103309F067CF66
:102A40005FCF642F732F822FDF91CF911F910F9152
:102A5000FF90EF90DF90CF90BF90AF909F908F90BE
:102A60007F906F905F904F903F90089566277727F3
:102A70000C943B17FC0188279927E8942191203278
:102A8000E9F3293010F02E30C8F32B3241F02D320B
:102A900039F4689404C00E948015820F911D219121
:102AA00020532A30C0F31EF4909581959F4F0895CE
:102AB00091110C946F19803219F089508550C8F724
:102AC0000895DC01FB014150504058F049F001905D
:102AD0000D920020C1F7E61BF70B3197CF01089547
:102AE0001C9201900020E9F7F6CFBB274A3031F461
:102AF000992322F4BDE2909581959F4F0C94AB15DC
:102B00007AE0979F902D879F802D910D1124089535
:102B1000BB27FA01A62F6217710581059105330BBA
:102B200030FB66F0AA27660F771F881F991FAA1F20
:102B3000A21710F0A21B63953850A9F7A05DAA3325
:102B400008F0A95DA19336F7B111B1931082CA01C3
:102B50000C948A19BB27FB015527AA27880F991FB8
:102B6000AA1FA41710F0A41B83955051B9F7A05DBC
:102B7000AA3308F0A95DA193009779F7B111B19339
:102B80001192CB010C948A198F929F92AF92BF92AF
:102B9000CF92DF92EF92FF920F931F93CF93DF9329
:102BA000CDB7DEB729970FB6F894DEBF0FBECDBF05
:102BB0006A01122FB02E2BE3201720F0FF24F3948C
:102BC000F00E02C02CE3F22E0F2D27E0AE014F5F76
:102BD0005F4F0E949718BC014981842F8970813012
:102BE00031F0E1FC06C0E0FE06C090E205C09DE2C7
:102BF00003C09BE201C090E05E2D507143FF3CC0DA
:102C0000911102C083E001C084E0811718F4212FE4
:102C1000281B01C020E051110BC0F601822F30E2C9
:102C2000882319F031938150FBCFC20ED11C20E0D4
:102C3000992329F0D6019C93F60131966F01C601C4
:102C40000396E2FE0AC03EE4D6013C9341E41196AD
:102C50004C93119712963C9306C03EE6F6013083E2
:102C600041E641833283FC01322F40E2332309F4F1
:102C700042C041933150FACF42FF44C0911102C08B
:102C800083E001C084E0811718F4212F281B01C0C4
:102C900020E051110BC0F601822F30E2882319F099
:102CA00031938150FBCFC20ED11C20E0992329F033
:102CB000D6019C93F60131966F01C6010396E2FEA0
:102CC0000BC039E4D6013C933EE411963C93119736
:102CD00036E412963C9307C039E6F60130833EE6AF
:102CE000318336E63283FC01322F40E2332319F080
:102CF00041933150FBCFFC01E20FF11D10828EEFAA
:102D00009FEFA6C021E030E0911102C020E030E04A
:102D1000161617061CF4FB01319602C0E1E0F0E044
:102D20002E0F3F1FBB2021F0EB2DF0E0319602C0AB
:102D3000E0E0F0E02E0F3F1FE12FF0E02E173F07FD
:102D40001CF4121B212F01C020E08E2D887159F434
:102D5000F601822F30E2882319F031938150FBCFA6
:102D6000C20ED11C20E0992329F0D6019C93F601D4
:102D700031966F0151110BC0F601822F90E3882329
:102D800019F091938150FBCFC20ED11C20E00F2D82
:102D9000060F9A81342F307144FF03C0913309F438
:102DA0000150101624F4093018F008E001C001E0C9
:102DB000AB0177FF02C040E050E0FB01E41BF50BE4
:102DC000A1E0B0E0AC0FBD1FEA0FFB1F8EE2A82E02
:102DD0004B01801A91080B2D10E0119501951109F6
:102DE0004F3FBFEF5B0721F4D601AC9211966D0106
:102DF000641775072CF08416950614F4818101C0C0
:102E000080E3415051093196D60111967D0140175A
:102E1000510724F0D6018C936701E2CF6417750740
:102E200039F4963320F4953319F4311101C081E35C
:102E3000F6018083F701822F90E2882319F09193A5
:102E40008150FBCFF701E20FF11D108280E090E08E
:102E500029960FB6F894DEBF0FBECDBFDF91CF919C
:102E60001F910F91FF90EF90DF90CF90BF90AF90A8
:102E70009F908F9008958F929F92AF92BF92CF9222
:102E8000DF92EF92FF920F931F93CF93DF93EC01AA
:102E90006B016115710519F0FB01918380837E013F
:102EA000FFEFEF1AFF0A0881802F90E00E9458156B
:102EB000892B11F0E701F3CF0D3239F47E0182E066
:102EC000E80EF11C098111E008C00B3229F47E01E3
:102ED00092E0E90EF11C098110E0E701219743E03F
:102EE00050E064E771E0CE010E947219892BC1F4B1
:102EF000239645E050E06FE671E0CE010E94721922
:102F0000892B09F42596C114D10419F0F601D18357
:102F1000C0831111F6C060E070E080E89FE7FAC05E
:102F200043E050E06CE671E0CE010E947219892BFB
:102F300059F4C114D10409F4E9C0F2E0EF0EF11C18
:102F4000F601F182E082E2C020E030E0A901C0E0B9
:102F5000D0E0F70160EDA62EA00E89E08A1530F1D1
:102F6000912F9260B92E812F887012FF04C08111B9
:102F700024C0219622C081112197A5E0B0E00E94D3
:102F80000F1BDC01CB01880F991FAA1FBB1F9C01DF
:102F9000AD012A0D311D411D511D283989E9380720
:102FA000480789E1580748F0166006C09EEFA9124D
:102FB0000AC013FD40C01860B12E8FEFE81AF80A5E
:102FC00000811B2DC6CF802F8F7D8534A1F5808198
:102FD0008D3211F4106106C08B3221F0319661E020
:102FE00070E004C08181329662E070E080538A30E4
:102FF00018F0E61BF70B1FC060E070E060389CE043
:1030000079075CF4DB01AA0FBB1FAA0FBB1F6A0F75
:103010007B1F660F771F680F711D3196DF011197B7
:103020008C9180538A3050F314FF03C071956195E1
:103030007109C60FD71F11FF08C0C114D10429F0B0
:10304000CF010197F60191838083CA01B9010E94E3
:103050009F19212F2370233019F04B015C0106C00A
:103060004B015C01B7FAB094B7F8B09420E030E0BF
:10307000A901C501B4010E949A19882309F43EC030
:10308000D7FF06C0D195C195D1090BE811E002C068
:1030900003EA11E06801F8E1CF1AD10890E2E92EC5
:1030A000F12CCE15DF0574F0F8012591359145918D
:1030B0005491C501B4010E94001A4B015C01CE1964
:1030C000DF09EFCF04501109F594E7940C151D05A5
:1030D00041F78A2D880F8B2D881F8F3F49F020E004
:1030E00030E0A901C501B4010E949A19811106C0FE
:1030F00082E290E09093F7048093F604C501B40156
:1031000009C060E070E080E89FEF04C060E070E01C
:1031100080EC9FE7DF91CF911F910F91FF90EF908F
:10312000DF90CF90BF90AF909F908F900895283000
:1031300008F027E03327DA01990F311D87FD9160F0
:1031400000966105710539F432602E5F3D9330E3DE
:103150002A95E1F708959F3F30F0803871056105A9
:1031600009F03C5F3C5F3D93913008F08068911D11
:10317000DF93CF931F930F93FF92EF92192F987FB6
:103180009695E92F96959695E90FFF27EF5FFD4FEE
:1031900099273327EE24FF24A701E701059008941F
:1031A000079428F4360FE71EF81E491F511D660FBD
:1031B000771F881F991F0694A1F70590079428F49C
:1031C000E70EF81E491F561FC11D770F881F991F54
:1031D000661F0694A1F70590079428F4F80E491F7E
:1031E000561FC71FD11D880F991F661F771F069492
:1031F000A1F70590079420F4490F561FC71FD81F49
:10320000990F661F771F881F0694A9F78491109560
:10321000177041F0D695C79557954795F794E79461
:103220001A95C1F7E7EAF1E0689415901591359188
:103230006591959105907FE27395E118F10A430B32
:10324000560BC90BD009C0F7E10CF11E431F561FE6
:10325000C91FD01D7EF4703311F48A95E6CFE8942F
:10326000015030F0080F0AF40027021708F4202F4D
:103270002395022F7A3328F079E37D932A95E9F795
:1032800010C07D932A9589F6069497956795379592
:1032900017951794E118F10A430B560BC90BD00987
:1032A00098F023957E9173957A3308F070E37C93C0
:1032B0002013B8F77E9170617D9330F0839571E3B0
:1032C0007D9370E32A95E1F71124EF90FF900F9121
:1032D0001F91CF91DF91992787FD909508959927A8
:1032E00088270895FB01DC014150504088F08D9102
:1032F00081341CF08B350CF4805E659161341CF0D8
:103300006B350CF4605E861B611171F3990B0895A7
:10331000881BFCCFDC01FC01672F71917723E1F75B
:10332000329704C07C916D9370836291AE17BF0792
:10333000C8F308950E94DC1908F481E00895E89428
:1033400009C097FB3EF490958095709561957F4FED
:103350008F4F9F4F9923A9F0F92F96E9BB2793959B
:10336000F695879577956795B795F111F8CFFAF4AB
:10337000BB0F11F460FF1BC06F5F7F4F8F4F9F4FDC
:1033800016C0882311F096E911C0772321F09EE83A
:10339000872F762F05C0662371F096E8862F70E0A0
:1033A00060E02AF09A95660F771F881FDAF7880F7A
:1033B0009695879597F90895990F0008550FAA0BD0
:1033C000E0E8FEEF16161706E807F907C0F0121638
:1033D0001306E407F50798F0621B730B840B950B3B
:1033E00039F40A2661F0232B242B252B21F4089590
:1033F0000A2609F4A140A6958FEF811D811D08952D
:103400000E94131A0C94841A0E94761A38F00E94B3
:103410007D1A20F0952311F00C946D1A0C94731AF8
:1034200011240C94B81A0E94951A70F3959FC1F359
:10343000950F50E0551F629FF001729FBB27F00D62
:10344000B11D639FAA27F00DB11DAA1F649F6627B7
:10345000B00DA11D661F829F2227B00DA11D621F06
:10346000739FB00DA11D621F839FA00D611D221FC0
:10347000749F3327A00D611D231F849F600D211DA4
:10348000822F762F6A2F11249F5750409AF0F1F027
:1034900088234AF0EE0FFF1FBB1F661F771F881F90
:1034A00091505040A9F79E3F510580F00C946D1A41
:1034B0000C94B81A5F3FE4F3983ED4F38695779561
:1034C0006795B795F795E7959F5FC1F7FE2B880F36
:1034D000911D9695879597F9089597F99F6780E8CC
:1034E00070E060E008959FEF80EC089500240A9456
:1034F0001616170618060906089500240A941216CF
:103500001306140605060895092E0394000C11F401
:10351000882352F0BB0F40F4BF2B11F460FF04C0AE
:103520006F5F7F4F8F4F9F4F089557FD9058440F07
:10353000551F59F05F3F71F04795880F97FB991F12
:1035400061F09F3F79F087950895121613061406CF
:10355000551FF2CF4695F1DF08C01616170618065C
:10356000991FF1CF86957105610508940895E89437
:10357000BB2766277727CB0197F90895DB018F9347
:103580009F930E940F1BBF91AF91A29F800D911D31
:10359000A39F900DB29F900D11240895A1E21A2EC1
:1035A000AA1BBB1BFD010DC0AA1FBB1FEE1FFF1FE7
:1035B000A217B307E407F50720F0A21BB30BE40B37
:1035C000F50B661F771F881F991F1A9469F760957E
:1035D0007095809590959B01AC01BD01CF01089538
:1035E000052E97FB1EF400940E94071B57FD07D081
:1035F0000E94CE1A07FC03D04EF40C94071B509582
:103600004095309521953F4F4F4F5F4F08959095CE
:103610008095709561957F4F8F4F9F4F08950E94C1
:10362000221BA59F900DB49F900DA49F800D911D0E
:1036300011240895B7FF0C940F1B0E940F1B821BCF
:10364000930B0895A29FB001B39FC001A39F700D7B
:10365000811D1124911DB29F700D811D1124911D9A
:103660000895EE0FFF1F881F8BBF0790F691E02D86
:1036700019945058BB27AA270E94511B0C94841AF6
:103680000E94761A38F00E947D1A20F039F49F3F8C
:1036900019F426F40C94731A0EF4E095E7FB0C94DD
:1036A0006D1AE92F0E94951A58F3BA17620773072B
:1036B0008407950720F079F4A6F50C94B71A0EF458
:1036C000E0950B2EBA2FA02D0B01B90190010C0132
:1036D000CA01A0011124FF27591B99F0593F50F44A
:1036E000503E68F11A16F040A22F232F342F4427A2
:1036F000585FF3CF469537952795A795F04053959A
:10370000C9F77EF41F16BA0B620B730B840BBAF069
:103710009150A1F0FF0FBB1F661F771F881FC2F7D4
:103720000EC0BA0F621F731F841F48F487957795E8
:103730006795B795F7959E3F08F0B0CF9395880FA2
:1037400008F09927EE0F9795879508950E94BA1B68
:103750000C94841A0E947D1A58F00E94761A40F048
:1037600029F45F3F29F00C946D1A51110C94B81A8A
:103770000C94731A0E94951A68F39923B1F3552398
:1037800091F3951B550BBB27AA2762177307840774
:1037900038F09F5F5F4F220F331F441FAA1FA9F30A
:1037A00035D00E2E3AF0E0E832D091505040E695F8
:1037B000001CCAF72BD0FE2F29D0660F771F881F59
:1037C000BB1F261737074807AB07B0E809F0BB0B4C
:1037D000802DBF01FF2793585F4F3AF09E3F510560
:1037E00078F00C946D1A0C94B81A5F3FE4F3983E8D
:1037F000D4F3869577956795B795F7959F5FC9F749
:10380000880F911D9695879597F90895E1E0660FC9
:10381000771F881FBB1F621773078407BA0720F042
:10382000621B730B840BBA0BEE1F88F7E0950895AB
:103830000E949D1A88F09F5798F0B92F9927B75189
:10384000B0F0E1F0660F771F881F991F1AF0BA9544
:10385000C9F714C0B13091F00E94B71AB1E00895D1
:103860000C94B71A672F782F8827B85F39F0B93FC3
:10387000CCF3869577956795B395D9F73EF49095F7
:103880008095709561957F4F8F4F9F4F08950E944F
:10389000DC1908F48FEF08950F931F93CF93DF93F4
:1038A0008230910510F482E090E0E091FA04F0910A
:1038B000FB0420E030E0A0E0B0E0309719F1408157
:1038C00051810281138148175907C8F08417950761
:1038D00069F4109731F012960C93129713961C937B
:1038E00027C00093FA041093FB0422C02115310570
:1038F00019F04217530718F49A01BD01EF01DF01D7
:10390000F801DBCF21153105F9F0281B390B2430E4
:10391000310580F48A819B816115710521F0FB01DD
:103920009383828304C09093FB048093FA04FE0186
:10393000329644C0FE01E20FF31F8193919322500F
:103940003109398328833AC02091F8043091F90471
:10395000232B41F420912502309126023093F90463
:103960002093F8042091230230912402211531057F
:1039700041F42DB73EB74091270250912802241BF5
:10398000350BE091F804F091F904E217F307A0F485
:103990002E1B3F0B2817390778F0AC014E5F5F4FA5
:1039A0002417350748F04E0F5F1F5093F9044093DA
:1039B000F8048193919302C0E0E0F0E0CF01DF9141
:1039C000CF911F910F910895CF93DF93009709F442
:1039D00081C0FC01329713821282A091FA04B09147
:1039E000FB04109781F420813181820F931F209175
:1039F000F8043091F9042817390751F5F093F904C8
:103A0000E093F80467C0ED0120E030E0CE17DF0757
:103A100040F44A815B819E0141155105F1F0EA01B4
:103A2000F5CFD383C28340815181840F951FC8177E
:103A3000D90759F488819981840F951F0296918343
:103A400080838A819B81938382832115310529F4A8
:103A5000F093FB04E093FA043DC0E901FB83EA83A1
:103A600049915991C40FD51FEC17FD0761F480816E
:103A70009181840F951F0296E90199838883828141
:103A800093819B838A83E0E0F0E012968D919C9174
:103A90001397009719F0FD01DC01F7CF8D919C91F0
:103AA00011979D012E5F3F4F820F931F2091F804C5
:103AB0003091F9042817390769F4309729F41092E6
:103AC000FB041092FA0402C013821282B093F9042C
:103AD000A093F804DF91CF9108956F927F928F9217
:103AE0009F92AF92BF92CF92DF92EF92FF920F938D
:103AF0001F93CF93DF93009789F4CB01DF91CF9190
:103B00001F910F91FF90EF90DF90CF90BF90AF90FB
:103B10009F908F907F906F900C944C1CFC01E60F4F
:103B2000F71F9C0122503109E217F30708F4A9C0DE
:103B3000EC01D9010D911C91119706171707B0F0F0
:103B40000530110508F49BC0C80104978617970734
:103B500008F495C002501109061B170B019311932D
:103B60006D937C93CF010E94E41C89C05B01A01A75
:103B7000B10A4C01800E911EA091FA04B091FB0491
:103B8000612C712CE12CF12C109709F446C08D9119
:103B90009C911197A815B905B1F56C0142E0C40ECE
:103BA000D11CCA14DB0478F14C018A189B0864010B
:103BB00042E0C40ED11C1296BC9012971396AC91A1
:103BC000B5E0CB16D10440F0B282A383918280820B
:103BD000D9016D937C9309C00E5F1F4F800F911F19
:103BE000F90191838083EB2DFA2FE114F10431F078
:103BF000D7011396FC93EE93129741C0F093FB0408
:103C0000E093FA043CC06816790608F43C017D0193
:103C100012960D90BC91A02DB7CF8091F804909191
:103C2000F90488169906E1F466167706C8F48091BF
:103C3000230290912402009741F48DB79EB74091E2
:103C4000270250912802841B950BE817F907C8F446
:103C5000F093F904E093F804F901718360830FC0D5
:103C6000CB010E944C1C7C01009759F0A801BE01B9
:103C70000E94571ECE010E94E41CC70104C0CE0161
:103C800002C080E090E0DF91CF911F910F91FF90F3
:103C9000EF90DF90CF90BF90AF909F908F907F90EC
:103CA0006F90089581E090E0F8940C94701EFB01F1
:103CB000DC0102C001900D9241505040D8F70895A8
:103CC000FB01DC018D91019080190110D9F3990B52
:103CD0000895FB01DC0101900D920020E1F70895A9
:043CE000F894FFCF86
:103CE400E8030000E02E401F0000003F010084585C
:103CF400993D0A000000E02E0170174C1D000001E0
:103D04000000000000FC04200000000000B60C6D60
:103D14000C9B0C030D380216022A023C4172647596
:103D2400696E6F2072656365697665643A20004741
:103D34004554007265776172645F746F6E655F6687
:103D4400726571003D003C007265776172645F6367
:103D540075655F6672657100747269616C5F617626
:103D640061696C5F6375655F667265710070756E1D
:103D74006973685F6375655F66726571004954496C
:103D84005F647572007265776172645F6D61676EFE
:103D940069747564650076616C76655F756C5F6DDA
:103DA40073007265776172645F617661696C6162E8
:103DB4006C655F647572007265776172645F7072BE
:103DC4006F620063757272656E745F73746174659B
:103DD4000053455400434D440052554E003C41723B
:103DE4006475696E6F2069732072756E6E696E6793
:103DF4003E0048414C54003C41726475696E6F202A
:103E040069732068616C7465643E0070003C4172A3
:103E14006475696E6F2069732072656164792074BA
:103E24006F207265636569766520636F6D6D616E81
:083E340064733E000D0A00005A
:00000001FF
